{
  "contractName": "ChainConstants",
  "abi": [
    {
      "inputs": [],
      "name": "CHILD_CHAIN_ID",
      "outputs": [
        {
          "internalType": "uint256",
          "name": "",
          "type": "uint256"
        }
      ],
      "stateMutability": "view",
      "type": "function"
    },
    {
      "inputs": [],
      "name": "CHILD_CHAIN_ID_BYTES",
      "outputs": [
        {
          "internalType": "bytes",
          "name": "",
          "type": "bytes"
        }
      ],
      "stateMutability": "view",
      "type": "function"
    },
    {
      "inputs": [],
      "name": "ERC712_VERSION",
      "outputs": [
        {
          "internalType": "string",
          "name": "",
          "type": "string"
        }
      ],
      "stateMutability": "view",
      "type": "function"
    },
    {
      "inputs": [],
      "name": "ROOT_CHAIN_ID",
      "outputs": [
        {
          "internalType": "uint256",
          "name": "",
          "type": "uint256"
        }
      ],
      "stateMutability": "view",
      "type": "function"
    },
    {
      "inputs": [],
      "name": "ROOT_CHAIN_ID_BYTES",
      "outputs": [
        {
          "internalType": "bytes",
          "name": "",
          "type": "bytes"
        }
      ],
      "stateMutability": "view",
      "type": "function"
    }
  ],
  "bytecode": "0x608060405234801561001057600080fd5b506101a2806100206000396000f3fe608060405234801561001057600080fd5b50600436106100575760003560e01c80630b54817c1461005c5780630dd7531a146100d95780630f7e5970146100e1578063626381a0146100e95780638acfcaf714610103575b600080fd5b61006461010b565b6040805160208082528351818301528351919283929083019185019080838360005b8381101561009e578181015183820152602001610086565b50505050905090810190601f1680156100cb5780820380516001836020036101000a031916815260200191505b509250505060405180910390f35b610064610128565b610064610145565b6100f1610162565b60408051918252519081900360200190f35b6100f1610167565b604051806040016040528060018152602001608960f81b81525081565b604051806040016040528060018152602001600160f81b81525081565b604051806040016040528060018152602001603160f81b81525081565b608981565b60018156fea2646970667358221220666bfc2bc934d829aad122b96a0b768a5877e7aac712f6c4b8b17f558eee33d264736f6c63430006060033",
  "immutableReferences": {},
  "source": "/**\n *Submitted for verification at polygonscan.com on 2021-06-29\n*/\n\n// File: @openzeppelin/contracts/GSN/Context.sol\n\n// SPDX-License-Identifier: MIT\n\npragma solidity ^0.6.0;\n\n/*\n * @dev Provides information about the current execution context, including the\n * sender of the transaction and its data. While these are generally available\n * via msg.sender and msg.data, they should not be accessed in such a direct\n * manner, since when dealing with GSN meta-transactions the account sending and\n * paying for execution may not be the actual sender (as far as an application\n * is concerned).\n *\n * This contract is only required for intermediate, library-like contracts.\n */\nabstract contract Context {\n    function _msgSender() internal view virtual returns (address payable) {\n        return msg.sender;\n    }\n\n    function _msgData() internal view virtual returns (bytes memory) {\n        this; // silence state mutability warning without generating bytecode - see https://github.com/ethereum/solidity/issues/2691\n        return msg.data;\n    }\n}\n\n// File: @openzeppelin/contracts/token/ERC20/IERC20.sol\n\n// SPDX-License-Identifier: MIT\n\npragma solidity ^0.6.0;\n\n/**\n * @dev Interface of the ERC20 standard as defined in the EIP.\n */\ninterface IERC20 {\n    /**\n     * @dev Returns the amount of tokens in existence.\n     */\n    function totalSupply() external view returns (uint256);\n\n    /**\n     * @dev Returns the amount of tokens owned by `account`.\n     */\n    function balanceOf(address account) external view returns (uint256);\n\n    /**\n     * @dev Moves `amount` tokens from the caller's account to `recipient`.\n     *\n     * Returns a boolean value indicating whether the operation succeeded.\n     *\n     * Emits a {Transfer} event.\n     */\n    function transfer(address recipient, uint256 amount) external returns (bool);\n\n    /**\n     * @dev Returns the remaining number of tokens that `spender` will be\n     * allowed to spend on behalf of `owner` through {transferFrom}. This is\n     * zero by default.\n     *\n     * This value changes when {approve} or {transferFrom} are called.\n     */\n    function allowance(address owner, address spender) external view returns (uint256);\n\n    /**\n     * @dev Sets `amount` as the allowance of `spender` over the caller's tokens.\n     *\n     * Returns a boolean value indicating whether the operation succeeded.\n     *\n     * IMPORTANT: Beware that changing an allowance with this method brings the risk\n     * that someone may use both the old and the new allowance by unfortunate\n     * transaction ordering. One possible solution to mitigate this race\n     * condition is to first reduce the spender's allowance to 0 and set the\n     * desired value afterwards:\n     * https://github.com/ethereum/EIPs/issues/20#issuecomment-263524729\n     *\n     * Emits an {Approval} event.\n     */\n    function approve(address spender, uint256 amount) external returns (bool);\n\n    /**\n     * @dev Moves `amount` tokens from `sender` to `recipient` using the\n     * allowance mechanism. `amount` is then deducted from the caller's\n     * allowance.\n     *\n     * Returns a boolean value indicating whether the operation succeeded.\n     *\n     * Emits a {Transfer} event.\n     */\n    function transferFrom(address sender, address recipient, uint256 amount) external returns (bool);\n\n    /**\n     * @dev Emitted when `value` tokens are moved from one account (`from`) to\n     * another (`to`).\n     *\n     * Note that `value` may be zero.\n     */\n    event Transfer(address indexed from, address indexed to, uint256 value);\n\n    /**\n     * @dev Emitted when the allowance of a `spender` for an `owner` is set by\n     * a call to {approve}. `value` is the new allowance.\n     */\n    event Approval(address indexed owner, address indexed spender, uint256 value);\n}\n\n// File: @openzeppelin/contracts/math/SafeMath.sol\n\n// SPDX-License-Identifier: MIT\n\npragma solidity ^0.6.0;\n\n/**\n * @dev Wrappers over Solidity's arithmetic operations with added overflow\n * checks.\n *\n * Arithmetic operations in Solidity wrap on overflow. This can easily result\n * in bugs, because programmers usually assume that an overflow raises an\n * error, which is the standard behavior in high level programming languages.\n * `SafeMath` restores this intuition by reverting the transaction when an\n * operation overflows.\n *\n * Using this library instead of the unchecked operations eliminates an entire\n * class of bugs, so it's recommended to use it always.\n */\nlibrary SafeMath {\n    /**\n     * @dev Returns the addition of two unsigned integers, reverting on\n     * overflow.\n     *\n     * Counterpart to Solidity's `+` operator.\n     *\n     * Requirements:\n     *\n     * - Addition cannot overflow.\n     */\n    function add(uint256 a, uint256 b) internal pure returns (uint256) {\n        uint256 c = a + b;\n        require(c >= a, \"SafeMath: addition overflow\");\n\n        return c;\n    }\n\n    /**\n     * @dev Returns the subtraction of two unsigned integers, reverting on\n     * overflow (when the result is negative).\n     *\n     * Counterpart to Solidity's `-` operator.\n     *\n     * Requirements:\n     *\n     * - Subtraction cannot overflow.\n     */\n    function sub(uint256 a, uint256 b) internal pure returns (uint256) {\n        return sub(a, b, \"SafeMath: subtraction overflow\");\n    }\n\n    /**\n     * @dev Returns the subtraction of two unsigned integers, reverting with custom message on\n     * overflow (when the result is negative).\n     *\n     * Counterpart to Solidity's `-` operator.\n     *\n     * Requirements:\n     *\n     * - Subtraction cannot overflow.\n     */\n    function sub(uint256 a, uint256 b, string memory errorMessage) internal pure returns (uint256) {\n        require(b <= a, errorMessage);\n        uint256 c = a - b;\n\n        return c;\n    }\n\n    /**\n     * @dev Returns the multiplication of two unsigned integers, reverting on\n     * overflow.\n     *\n     * Counterpart to Solidity's `*` operator.\n     *\n     * Requirements:\n     *\n     * - Multiplication cannot overflow.\n     */\n    function mul(uint256 a, uint256 b) internal pure returns (uint256) {\n        // Gas optimization: this is cheaper than requiring 'a' not being zero, but the\n        // benefit is lost if 'b' is also tested.\n        // See: https://github.com/OpenZeppelin/openzeppelin-contracts/pull/522\n        if (a == 0) {\n            return 0;\n        }\n\n        uint256 c = a * b;\n        require(c / a == b, \"SafeMath: multiplication overflow\");\n\n        return c;\n    }\n\n    /**\n     * @dev Returns the integer division of two unsigned integers. Reverts on\n     * division by zero. The result is rounded towards zero.\n     *\n     * Counterpart to Solidity's `/` operator. Note: this function uses a\n     * `revert` opcode (which leaves remaining gas untouched) while Solidity\n     * uses an invalid opcode to revert (consuming all remaining gas).\n     *\n     * Requirements:\n     *\n     * - The divisor cannot be zero.\n     */\n    function div(uint256 a, uint256 b) internal pure returns (uint256) {\n        return div(a, b, \"SafeMath: division by zero\");\n    }\n\n    /**\n     * @dev Returns the integer division of two unsigned integers. Reverts with custom message on\n     * division by zero. The result is rounded towards zero.\n     *\n     * Counterpart to Solidity's `/` operator. Note: this function uses a\n     * `revert` opcode (which leaves remaining gas untouched) while Solidity\n     * uses an invalid opcode to revert (consuming all remaining gas).\n     *\n     * Requirements:\n     *\n     * - The divisor cannot be zero.\n     */\n    function div(uint256 a, uint256 b, string memory errorMessage) internal pure returns (uint256) {\n        require(b > 0, errorMessage);\n        uint256 c = a / b;\n        // assert(a == b * c + a % b); // There is no case in which this doesn't hold\n\n        return c;\n    }\n\n    /**\n     * @dev Returns the remainder of dividing two unsigned integers. (unsigned integer modulo),\n     * Reverts when dividing by zero.\n     *\n     * Counterpart to Solidity's `%` operator. This function uses a `revert`\n     * opcode (which leaves remaining gas untouched) while Solidity uses an\n     * invalid opcode to revert (consuming all remaining gas).\n     *\n     * Requirements:\n     *\n     * - The divisor cannot be zero.\n     */\n    function mod(uint256 a, uint256 b) internal pure returns (uint256) {\n        return mod(a, b, \"SafeMath: modulo by zero\");\n    }\n\n    /**\n     * @dev Returns the remainder of dividing two unsigned integers. (unsigned integer modulo),\n     * Reverts with custom message when dividing by zero.\n     *\n     * Counterpart to Solidity's `%` operator. This function uses a `revert`\n     * opcode (which leaves remaining gas untouched) while Solidity uses an\n     * invalid opcode to revert (consuming all remaining gas).\n     *\n     * Requirements:\n     *\n     * - The divisor cannot be zero.\n     */\n    function mod(uint256 a, uint256 b, string memory errorMessage) internal pure returns (uint256) {\n        require(b != 0, errorMessage);\n        return a % b;\n    }\n}\n\n// File: @openzeppelin/contracts/utils/Address.sol\n\n// SPDX-License-Identifier: MIT\n\npragma solidity ^0.6.2;\n\n/**\n * @dev Collection of functions related to the address type\n */\nlibrary Address {\n    /**\n     * @dev Returns true if `account` is a contract.\n     *\n     * [IMPORTANT]\n     * ====\n     * It is unsafe to assume that an address for which this function returns\n     * false is an externally-owned account (EOA) and not a contract.\n     *\n     * Among others, `isContract` will return false for the following\n     * types of addresses:\n     *\n     *  - an externally-owned account\n     *  - a contract in construction\n     *  - an address where a contract will be created\n     *  - an address where a contract lived, but was destroyed\n     * ====\n     */\n    function isContract(address account) internal view returns (bool) {\n        // According to EIP-1052, 0x0 is the value returned for not-yet created accounts\n        // and 0xc5d2460186f7233c927e7db2dcc703c0e500b653ca82273b7bfad8045d85a470 is returned\n        // for accounts without code, i.e. `keccak256('')`\n        bytes32 codehash;\n        bytes32 accountHash = 0xc5d2460186f7233c927e7db2dcc703c0e500b653ca82273b7bfad8045d85a470;\n        // solhint-disable-next-line no-inline-assembly\n        assembly { codehash := extcodehash(account) }\n        return (codehash != accountHash && codehash != 0x0);\n    }\n\n    /**\n     * @dev Replacement for Solidity's `transfer`: sends `amount` wei to\n     * `recipient`, forwarding all available gas and reverting on errors.\n     *\n     * https://eips.ethereum.org/EIPS/eip-1884[EIP1884] increases the gas cost\n     * of certain opcodes, possibly making contracts go over the 2300 gas limit\n     * imposed by `transfer`, making them unable to receive funds via\n     * `transfer`. {sendValue} removes this limitation.\n     *\n     * https://diligence.consensys.net/posts/2019/09/stop-using-soliditys-transfer-now/[Learn more].\n     *\n     * IMPORTANT: because control is transferred to `recipient`, care must be\n     * taken to not create reentrancy vulnerabilities. Consider using\n     * {ReentrancyGuard} or the\n     * https://solidity.readthedocs.io/en/v0.5.11/security-considerations.html#use-the-checks-effects-interactions-pattern[checks-effects-interactions pattern].\n     */\n    function sendValue(address payable recipient, uint256 amount) internal {\n        require(address(this).balance >= amount, \"Address: insufficient balance\");\n\n        // solhint-disable-next-line avoid-low-level-calls, avoid-call-value\n        (bool success, ) = recipient.call{ value: amount }(\"\");\n        require(success, \"Address: unable to send value, recipient may have reverted\");\n    }\n\n    /**\n     * @dev Performs a Solidity function call using a low level `call`. A\n     * plain`call` is an unsafe replacement for a function call: use this\n     * function instead.\n     *\n     * If `target` reverts with a revert reason, it is bubbled up by this\n     * function (like regular Solidity function calls).\n     *\n     * Returns the raw returned data. To convert to the expected return value,\n     * use https://solidity.readthedocs.io/en/latest/units-and-global-variables.html?highlight=abi.decode#abi-encoding-and-decoding-functions[`abi.decode`].\n     *\n     * Requirements:\n     *\n     * - `target` must be a contract.\n     * - calling `target` with `data` must not revert.\n     *\n     * _Available since v3.1._\n     */\n    function functionCall(address target, bytes memory data) internal returns (bytes memory) {\n      return functionCall(target, data, \"Address: low-level call failed\");\n    }\n\n    /**\n     * @dev Same as {xref-Address-functionCall-address-bytes-}[`functionCall`], but with\n     * `errorMessage` as a fallback revert reason when `target` reverts.\n     *\n     * _Available since v3.1._\n     */\n    function functionCall(address target, bytes memory data, string memory errorMessage) internal returns (bytes memory) {\n        return _functionCallWithValue(target, data, 0, errorMessage);\n    }\n\n    /**\n     * @dev Same as {xref-Address-functionCall-address-bytes-}[`functionCall`],\n     * but also transferring `value` wei to `target`.\n     *\n     * Requirements:\n     *\n     * - the calling contract must have an ETH balance of at least `value`.\n     * - the called Solidity function must be `payable`.\n     *\n     * _Available since v3.1._\n     */\n    function functionCallWithValue(address target, bytes memory data, uint256 value) internal returns (bytes memory) {\n        return functionCallWithValue(target, data, value, \"Address: low-level call with value failed\");\n    }\n\n    /**\n     * @dev Same as {xref-Address-functionCallWithValue-address-bytes-uint256-}[`functionCallWithValue`], but\n     * with `errorMessage` as a fallback revert reason when `target` reverts.\n     *\n     * _Available since v3.1._\n     */\n    function functionCallWithValue(address target, bytes memory data, uint256 value, string memory errorMessage) internal returns (bytes memory) {\n        require(address(this).balance >= value, \"Address: insufficient balance for call\");\n        return _functionCallWithValue(target, data, value, errorMessage);\n    }\n\n    function _functionCallWithValue(address target, bytes memory data, uint256 weiValue, string memory errorMessage) private returns (bytes memory) {\n        require(isContract(target), \"Address: call to non-contract\");\n\n        // solhint-disable-next-line avoid-low-level-calls\n        (bool success, bytes memory returndata) = target.call{ value: weiValue }(data);\n        if (success) {\n            return returndata;\n        } else {\n            // Look for revert reason and bubble it up if present\n            if (returndata.length > 0) {\n                // The easiest way to bubble the revert reason is using memory via assembly\n\n                // solhint-disable-next-line no-inline-assembly\n                assembly {\n                    let returndata_size := mload(returndata)\n                    revert(add(32, returndata), returndata_size)\n                }\n            } else {\n                revert(errorMessage);\n            }\n        }\n    }\n}\n\n// File: contracts/child/ChildToken/UpgradeableChildERC20/ERC20.sol\n\n// SPDX-License-Identifier: MIT\n\npragma solidity ^0.6.0;\n\n\n\n\n\n/**\n * Modified openzeppelin implemtation to add setters for name, symbol and decimals.\n * This was needed because the variables cannot be set in constructor as the contract is upgradeable.\n */\n\n/**\n * @dev openzeppelin Implementation of the {IERC20} interface.\n *\n * Modified to add setters for name, symbol and decimals. This was needed\n * because\n *\n * This implementation is agnostic to the way tokens are created. This means\n * that a supply mechanism has to be added in a derived contract using {_mint}.\n * For a generic mechanism see {ERC20PresetMinterPauser}.\n *\n * TIP: For a detailed writeup see our guide\n * https://forum.zeppelin.solutions/t/how-to-implement-erc20-supply-mechanisms/226[How\n * to implement supply mechanisms].\n *\n * We have followed general OpenZeppelin guidelines: functions revert instead\n * of returning `false` on failure. This behavior is nonetheless conventional\n * and does not conflict with the expectations of ERC20 applications.\n *\n * Additionally, an {Approval} event is emitted on calls to {transferFrom}.\n * This allows applications to reconstruct the allowance for all accounts just\n * by listening to said events. Other implementations of the EIP may not emit\n * these events, as it isn't required by the specification.\n *\n * Finally, the non-standard {decreaseAllowance} and {increaseAllowance}\n * functions have been added to mitigate the well-known issues around setting\n * allowances. See {IERC20-approve}.\n */\ncontract ERC20 is Context, IERC20 {\n    using SafeMath for uint256;\n    using Address for address;\n\n    mapping (address => uint256) private _balances;\n\n    mapping (address => mapping (address => uint256)) private _allowances;\n\n    uint256 private _totalSupply;\n\n    string private _name;\n    string private _symbol;\n    uint8 private _decimals;\n\n    /**\n     * @dev Sets the values for {name} and {symbol}, initializes {decimals} with\n     * a default value of 18.\n     *\n     * To select a different value for {decimals}, use {_setupDecimals}.\n     *\n     * All three of these values are immutable: they can only be set once during\n     * construction.\n     */\n    constructor (string memory name, string memory symbol) public {\n        _name = name;\n        _symbol = symbol;\n        _decimals = 18;\n    }\n\n    /**\n     * @dev Returns the name of the token.\n     */\n    function name() public view returns (string memory) {\n        return _name;\n    }\n\n    function setName(string memory newName) internal {\n      _name = newName;\n    }\n\n    /**\n     * @dev Returns the symbol of the token, usually a shorter version of the\n     * name.\n     */\n    function symbol() public view returns (string memory) {\n        return _symbol;\n    }\n\n    function setSymbol(string memory newSymbol) internal {\n      _symbol = newSymbol;\n    }\n\n    /**\n     * @dev Returns the number of decimals used to get its user representation.\n     * For example, if `decimals` equals `2`, a balance of `505` tokens should\n     * be displayed to a user as `5,05` (`505 / 10 ** 2`).\n     *\n     * Tokens usually opt for a value of 18, imitating the relationship between\n     * Ether and Wei. This is the value {ERC20} uses, unless {_setupDecimals} is\n     * called.\n     *\n     * NOTE: This information is only used for _display_ purposes: it in\n     * no way affects any of the arithmetic of the contract, including\n     * {IERC20-balanceOf} and {IERC20-transfer}.\n     */\n    function decimals() public view returns (uint8) {\n        return _decimals;\n    }\n\n    function setDecimals(uint8 newDecimals) internal {\n      _decimals = newDecimals;\n    }\n\n    /**\n     * @dev See {IERC20-totalSupply}.\n     */\n    function totalSupply() public view override returns (uint256) {\n        return _totalSupply;\n    }\n\n    /**\n     * @dev See {IERC20-balanceOf}.\n     */\n    function balanceOf(address account) public view override returns (uint256) {\n        return _balances[account];\n    }\n\n    /**\n     * @dev See {IERC20-transfer}.\n     *\n     * Requirements:\n     *\n     * - `recipient` cannot be the zero address.\n     * - the caller must have a balance of at least `amount`.\n     */\n    function transfer(address recipient, uint256 amount) public virtual override returns (bool) {\n        _transfer(_msgSender(), recipient, amount);\n        return true;\n    }\n\n    /**\n     * @dev See {IERC20-allowance}.\n     */\n    function allowance(address owner, address spender) public view virtual override returns (uint256) {\n        return _allowances[owner][spender];\n    }\n\n    /**\n     * @dev See {IERC20-approve}.\n     *\n     * Requirements:\n     *\n     * - `spender` cannot be the zero address.\n     */\n    function approve(address spender, uint256 amount) public virtual override returns (bool) {\n        _approve(_msgSender(), spender, amount);\n        return true;\n    }\n\n    /**\n     * @dev See {IERC20-transferFrom}.\n     *\n     * Emits an {Approval} event indicating the updated allowance. This is not\n     * required by the EIP. See the note at the beginning of {ERC20};\n     *\n     * Requirements:\n     * - `sender` and `recipient` cannot be the zero address.\n     * - `sender` must have a balance of at least `amount`.\n     * - the caller must have allowance for ``sender``'s tokens of at least\n     * `amount`.\n     */\n    function transferFrom(address sender, address recipient, uint256 amount) public virtual override returns (bool) {\n        _transfer(sender, recipient, amount);\n        _approve(sender, _msgSender(), _allowances[sender][_msgSender()].sub(amount, \"ERC20: transfer amount exceeds allowance\"));\n        return true;\n    }\n\n    /**\n     * @dev Atomically increases the allowance granted to `spender` by the caller.\n     *\n     * This is an alternative to {approve} that can be used as a mitigation for\n     * problems described in {IERC20-approve}.\n     *\n     * Emits an {Approval} event indicating the updated allowance.\n     *\n     * Requirements:\n     *\n     * - `spender` cannot be the zero address.\n     */\n    function increaseAllowance(address spender, uint256 addedValue) public virtual returns (bool) {\n        _approve(_msgSender(), spender, _allowances[_msgSender()][spender].add(addedValue));\n        return true;\n    }\n\n    /**\n     * @dev Atomically decreases the allowance granted to `spender` by the caller.\n     *\n     * This is an alternative to {approve} that can be used as a mitigation for\n     * problems described in {IERC20-approve}.\n     *\n     * Emits an {Approval} event indicating the updated allowance.\n     *\n     * Requirements:\n     *\n     * - `spender` cannot be the zero address.\n     * - `spender` must have allowance for the caller of at least\n     * `subtractedValue`.\n     */\n    function decreaseAllowance(address spender, uint256 subtractedValue) public virtual returns (bool) {\n        _approve(_msgSender(), spender, _allowances[_msgSender()][spender].sub(subtractedValue, \"ERC20: decreased allowance below zero\"));\n        return true;\n    }\n\n    /**\n     * @dev Moves tokens `amount` from `sender` to `recipient`.\n     *\n     * This is internal function is equivalent to {transfer}, and can be used to\n     * e.g. implement automatic token fees, slashing mechanisms, etc.\n     *\n     * Emits a {Transfer} event.\n     *\n     * Requirements:\n     *\n     * - `sender` cannot be the zero address.\n     * - `recipient` cannot be the zero address.\n     * - `sender` must have a balance of at least `amount`.\n     */\n    function _transfer(address sender, address recipient, uint256 amount) internal virtual {\n        require(sender != address(0), \"ERC20: transfer from the zero address\");\n        require(recipient != address(0), \"ERC20: transfer to the zero address\");\n\n        _beforeTokenTransfer(sender, recipient, amount);\n\n        _balances[sender] = _balances[sender].sub(amount, \"ERC20: transfer amount exceeds balance\");\n        _balances[recipient] = _balances[recipient].add(amount);\n        emit Transfer(sender, recipient, amount);\n    }\n\n    /** @dev Creates `amount` tokens and assigns them to `account`, increasing\n     * the total supply.\n     *\n     * Emits a {Transfer} event with `from` set to the zero address.\n     *\n     * Requirements\n     *\n     * - `to` cannot be the zero address.\n     */\n    function _mint(address account, uint256 amount) internal virtual {\n        require(account != address(0), \"ERC20: mint to the zero address\");\n\n        _beforeTokenTransfer(address(0), account, amount);\n\n        _totalSupply = _totalSupply.add(amount);\n        _balances[account] = _balances[account].add(amount);\n        emit Transfer(address(0), account, amount);\n    }\n\n    /**\n     * @dev Destroys `amount` tokens from `account`, reducing the\n     * total supply.\n     *\n     * Emits a {Transfer} event with `to` set to the zero address.\n     *\n     * Requirements\n     *\n     * - `account` cannot be the zero address.\n     * - `account` must have at least `amount` tokens.\n     */\n    function _burn(address account, uint256 amount) internal virtual {\n        require(account != address(0), \"ERC20: burn from the zero address\");\n\n        _beforeTokenTransfer(account, address(0), amount);\n\n        _balances[account] = _balances[account].sub(amount, \"ERC20: burn amount exceeds balance\");\n        _totalSupply = _totalSupply.sub(amount);\n        emit Transfer(account, address(0), amount);\n    }\n\n    /**\n     * @dev Sets `amount` as the allowance of `spender` over the `owner`s tokens.\n     *\n     * This is internal function is equivalent to `approve`, and can be used to\n     * e.g. set automatic allowances for certain subsystems, etc.\n     *\n     * Emits an {Approval} event.\n     *\n     * Requirements:\n     *\n     * - `owner` cannot be the zero address.\n     * - `spender` cannot be the zero address.\n     */\n    function _approve(address owner, address spender, uint256 amount) internal virtual {\n        require(owner != address(0), \"ERC20: approve from the zero address\");\n        require(spender != address(0), \"ERC20: approve to the zero address\");\n\n        _allowances[owner][spender] = amount;\n        emit Approval(owner, spender, amount);\n    }\n\n    /**\n     * @dev Sets {decimals} to a value other than the default one of 18.\n     *\n     * WARNING: This function should only be called from the constructor. Most\n     * applications that interact with token contracts will not expect\n     * {decimals} to ever change, and may work incorrectly if it does.\n     */\n    function _setupDecimals(uint8 decimals_) internal {\n        _decimals = decimals_;\n    }\n\n    /**\n     * @dev Hook that is called before any transfer of tokens. This includes\n     * minting and burning.\n     *\n     * Calling conditions:\n     *\n     * - when `from` and `to` are both non-zero, `amount` of ``from``'s tokens\n     * will be to transferred to `to`.\n     * - when `from` is zero, `amount` tokens will be minted for `to`.\n     * - when `to` is zero, `amount` of ``from``'s tokens will be burned.\n     * - `from` and `to` are never both zero.\n     *\n     * To learn more about hooks, head to xref:ROOT:extending-contracts.adoc#using-hooks[Using Hooks].\n     */\n    function _beforeTokenTransfer(address from, address to, uint256 amount) internal virtual { }\n}\n\n// File: @openzeppelin/contracts/utils/EnumerableSet.sol\n\n// SPDX-License-Identifier: MIT\n\npragma solidity ^0.6.0;\n\n/**\n * @dev Library for managing\n * https://en.wikipedia.org/wiki/Set_(abstract_data_type)[sets] of primitive\n * types.\n *\n * Sets have the following properties:\n *\n * - Elements are added, removed, and checked for existence in constant time\n * (O(1)).\n * - Elements are enumerated in O(n). No guarantees are made on the ordering.\n *\n * ```\n * contract Example {\n *     // Add the library methods\n *     using EnumerableSet for EnumerableSet.AddressSet;\n *\n *     // Declare a set state variable\n *     EnumerableSet.AddressSet private mySet;\n * }\n * ```\n *\n * As of v3.0.0, only sets of type `address` (`AddressSet`) and `uint256`\n * (`UintSet`) are supported.\n */\nlibrary EnumerableSet {\n    // To implement this library for multiple types with as little code\n    // repetition as possible, we write it in terms of a generic Set type with\n    // bytes32 values.\n    // The Set implementation uses private functions, and user-facing\n    // implementations (such as AddressSet) are just wrappers around the\n    // underlying Set.\n    // This means that we can only create new EnumerableSets for types that fit\n    // in bytes32.\n\n    struct Set {\n        // Storage of set values\n        bytes32[] _values;\n\n        // Position of the value in the `values` array, plus 1 because index 0\n        // means a value is not in the set.\n        mapping (bytes32 => uint256) _indexes;\n    }\n\n    /**\n     * @dev Add a value to a set. O(1).\n     *\n     * Returns true if the value was added to the set, that is if it was not\n     * already present.\n     */\n    function _add(Set storage set, bytes32 value) private returns (bool) {\n        if (!_contains(set, value)) {\n            set._values.push(value);\n            // The value is stored at length-1, but we add 1 to all indexes\n            // and use 0 as a sentinel value\n            set._indexes[value] = set._values.length;\n            return true;\n        } else {\n            return false;\n        }\n    }\n\n    /**\n     * @dev Removes a value from a set. O(1).\n     *\n     * Returns true if the value was removed from the set, that is if it was\n     * present.\n     */\n    function _remove(Set storage set, bytes32 value) private returns (bool) {\n        // We read and store the value's index to prevent multiple reads from the same storage slot\n        uint256 valueIndex = set._indexes[value];\n\n        if (valueIndex != 0) { // Equivalent to contains(set, value)\n            // To delete an element from the _values array in O(1), we swap the element to delete with the last one in\n            // the array, and then remove the last element (sometimes called as 'swap and pop').\n            // This modifies the order of the array, as noted in {at}.\n\n            uint256 toDeleteIndex = valueIndex - 1;\n            uint256 lastIndex = set._values.length - 1;\n\n            // When the value to delete is the last one, the swap operation is unnecessary. However, since this occurs\n            // so rarely, we still do the swap anyway to avoid the gas cost of adding an 'if' statement.\n\n            bytes32 lastvalue = set._values[lastIndex];\n\n            // Move the last value to the index where the value to delete is\n            set._values[toDeleteIndex] = lastvalue;\n            // Update the index for the moved value\n            set._indexes[lastvalue] = toDeleteIndex + 1; // All indexes are 1-based\n\n            // Delete the slot where the moved value was stored\n            set._values.pop();\n\n            // Delete the index for the deleted slot\n            delete set._indexes[value];\n\n            return true;\n        } else {\n            return false;\n        }\n    }\n\n    /**\n     * @dev Returns true if the value is in the set. O(1).\n     */\n    function _contains(Set storage set, bytes32 value) private view returns (bool) {\n        return set._indexes[value] != 0;\n    }\n\n    /**\n     * @dev Returns the number of values on the set. O(1).\n     */\n    function _length(Set storage set) private view returns (uint256) {\n        return set._values.length;\n    }\n\n   /**\n    * @dev Returns the value stored at position `index` in the set. O(1).\n    *\n    * Note that there are no guarantees on the ordering of values inside the\n    * array, and it may change when more values are added or removed.\n    *\n    * Requirements:\n    *\n    * - `index` must be strictly less than {length}.\n    */\n    function _at(Set storage set, uint256 index) private view returns (bytes32) {\n        require(set._values.length > index, \"EnumerableSet: index out of bounds\");\n        return set._values[index];\n    }\n\n    // AddressSet\n\n    struct AddressSet {\n        Set _inner;\n    }\n\n    /**\n     * @dev Add a value to a set. O(1).\n     *\n     * Returns true if the value was added to the set, that is if it was not\n     * already present.\n     */\n    function add(AddressSet storage set, address value) internal returns (bool) {\n        return _add(set._inner, bytes32(uint256(value)));\n    }\n\n    /**\n     * @dev Removes a value from a set. O(1).\n     *\n     * Returns true if the value was removed from the set, that is if it was\n     * present.\n     */\n    function remove(AddressSet storage set, address value) internal returns (bool) {\n        return _remove(set._inner, bytes32(uint256(value)));\n    }\n\n    /**\n     * @dev Returns true if the value is in the set. O(1).\n     */\n    function contains(AddressSet storage set, address value) internal view returns (bool) {\n        return _contains(set._inner, bytes32(uint256(value)));\n    }\n\n    /**\n     * @dev Returns the number of values in the set. O(1).\n     */\n    function length(AddressSet storage set) internal view returns (uint256) {\n        return _length(set._inner);\n    }\n\n   /**\n    * @dev Returns the value stored at position `index` in the set. O(1).\n    *\n    * Note that there are no guarantees on the ordering of values inside the\n    * array, and it may change when more values are added or removed.\n    *\n    * Requirements:\n    *\n    * - `index` must be strictly less than {length}.\n    */\n    function at(AddressSet storage set, uint256 index) internal view returns (address) {\n        return address(uint256(_at(set._inner, index)));\n    }\n\n\n    // UintSet\n\n    struct UintSet {\n        Set _inner;\n    }\n\n    /**\n     * @dev Add a value to a set. O(1).\n     *\n     * Returns true if the value was added to the set, that is if it was not\n     * already present.\n     */\n    function add(UintSet storage set, uint256 value) internal returns (bool) {\n        return _add(set._inner, bytes32(value));\n    }\n\n    /**\n     * @dev Removes a value from a set. O(1).\n     *\n     * Returns true if the value was removed from the set, that is if it was\n     * present.\n     */\n    function remove(UintSet storage set, uint256 value) internal returns (bool) {\n        return _remove(set._inner, bytes32(value));\n    }\n\n    /**\n     * @dev Returns true if the value is in the set. O(1).\n     */\n    function contains(UintSet storage set, uint256 value) internal view returns (bool) {\n        return _contains(set._inner, bytes32(value));\n    }\n\n    /**\n     * @dev Returns the number of values on the set. O(1).\n     */\n    function length(UintSet storage set) internal view returns (uint256) {\n        return _length(set._inner);\n    }\n\n   /**\n    * @dev Returns the value stored at position `index` in the set. O(1).\n    *\n    * Note that there are no guarantees on the ordering of values inside the\n    * array, and it may change when more values are added or removed.\n    *\n    * Requirements:\n    *\n    * - `index` must be strictly less than {length}.\n    */\n    function at(UintSet storage set, uint256 index) internal view returns (uint256) {\n        return uint256(_at(set._inner, index));\n    }\n}\n\n// File: @openzeppelin/contracts/access/AccessControl.sol\n\n// SPDX-License-Identifier: MIT\n\npragma solidity ^0.6.0;\n\n\n\n\n/**\n * @dev Contract module that allows children to implement role-based access\n * control mechanisms.\n *\n * Roles are referred to by their `bytes32` identifier. These should be exposed\n * in the external API and be unique. The best way to achieve this is by\n * using `public constant` hash digests:\n *\n * ```\n * bytes32 public constant MY_ROLE = keccak256(\"MY_ROLE\");\n * ```\n *\n * Roles can be used to represent a set of permissions. To restrict access to a\n * function call, use {hasRole}:\n *\n * ```\n * function foo() public {\n *     require(hasRole(MY_ROLE, msg.sender));\n *     ...\n * }\n * ```\n *\n * Roles can be granted and revoked dynamically via the {grantRole} and\n * {revokeRole} functions. Each role has an associated admin role, and only\n * accounts that have a role's admin role can call {grantRole} and {revokeRole}.\n *\n * By default, the admin role for all roles is `DEFAULT_ADMIN_ROLE`, which means\n * that only accounts with this role will be able to grant or revoke other\n * roles. More complex role relationships can be created by using\n * {_setRoleAdmin}.\n *\n * WARNING: The `DEFAULT_ADMIN_ROLE` is also its own admin: it has permission to\n * grant and revoke this role. Extra precautions should be taken to secure\n * accounts that have been granted it.\n */\nabstract contract AccessControl is Context {\n    using EnumerableSet for EnumerableSet.AddressSet;\n    using Address for address;\n\n    struct RoleData {\n        EnumerableSet.AddressSet members;\n        bytes32 adminRole;\n    }\n\n    mapping (bytes32 => RoleData) private _roles;\n\n    bytes32 public constant DEFAULT_ADMIN_ROLE = 0x00;\n\n    /**\n     * @dev Emitted when `newAdminRole` is set as ``role``'s admin role, replacing `previousAdminRole`\n     *\n     * `DEFAULT_ADMIN_ROLE` is the starting admin for all roles, despite\n     * {RoleAdminChanged} not being emitted signaling this.\n     *\n     * _Available since v3.1._\n     */\n    event RoleAdminChanged(bytes32 indexed role, bytes32 indexed previousAdminRole, bytes32 indexed newAdminRole);\n\n    /**\n     * @dev Emitted when `account` is granted `role`.\n     *\n     * `sender` is the account that originated the contract call, an admin role\n     * bearer except when using {_setupRole}.\n     */\n    event RoleGranted(bytes32 indexed role, address indexed account, address indexed sender);\n\n    /**\n     * @dev Emitted when `account` is revoked `role`.\n     *\n     * `sender` is the account that originated the contract call:\n     *   - if using `revokeRole`, it is the admin role bearer\n     *   - if using `renounceRole`, it is the role bearer (i.e. `account`)\n     */\n    event RoleRevoked(bytes32 indexed role, address indexed account, address indexed sender);\n\n    /**\n     * @dev Returns `true` if `account` has been granted `role`.\n     */\n    function hasRole(bytes32 role, address account) public view returns (bool) {\n        return _roles[role].members.contains(account);\n    }\n\n    /**\n     * @dev Returns the number of accounts that have `role`. Can be used\n     * together with {getRoleMember} to enumerate all bearers of a role.\n     */\n    function getRoleMemberCount(bytes32 role) public view returns (uint256) {\n        return _roles[role].members.length();\n    }\n\n    /**\n     * @dev Returns one of the accounts that have `role`. `index` must be a\n     * value between 0 and {getRoleMemberCount}, non-inclusive.\n     *\n     * Role bearers are not sorted in any particular way, and their ordering may\n     * change at any point.\n     *\n     * WARNING: When using {getRoleMember} and {getRoleMemberCount}, make sure\n     * you perform all queries on the same block. See the following\n     * https://forum.openzeppelin.com/t/iterating-over-elements-on-enumerableset-in-openzeppelin-contracts/2296[forum post]\n     * for more information.\n     */\n    function getRoleMember(bytes32 role, uint256 index) public view returns (address) {\n        return _roles[role].members.at(index);\n    }\n\n    /**\n     * @dev Returns the admin role that controls `role`. See {grantRole} and\n     * {revokeRole}.\n     *\n     * To change a role's admin, use {_setRoleAdmin}.\n     */\n    function getRoleAdmin(bytes32 role) public view returns (bytes32) {\n        return _roles[role].adminRole;\n    }\n\n    /**\n     * @dev Grants `role` to `account`.\n     *\n     * If `account` had not been already granted `role`, emits a {RoleGranted}\n     * event.\n     *\n     * Requirements:\n     *\n     * - the caller must have ``role``'s admin role.\n     */\n    function grantRole(bytes32 role, address account) public virtual {\n        require(hasRole(_roles[role].adminRole, _msgSender()), \"AccessControl: sender must be an admin to grant\");\n\n        _grantRole(role, account);\n    }\n\n    /**\n     * @dev Revokes `role` from `account`.\n     *\n     * If `account` had been granted `role`, emits a {RoleRevoked} event.\n     *\n     * Requirements:\n     *\n     * - the caller must have ``role``'s admin role.\n     */\n    function revokeRole(bytes32 role, address account) public virtual {\n        require(hasRole(_roles[role].adminRole, _msgSender()), \"AccessControl: sender must be an admin to revoke\");\n\n        _revokeRole(role, account);\n    }\n\n    /**\n     * @dev Revokes `role` from the calling account.\n     *\n     * Roles are often managed via {grantRole} and {revokeRole}: this function's\n     * purpose is to provide a mechanism for accounts to lose their privileges\n     * if they are compromised (such as when a trusted device is misplaced).\n     *\n     * If the calling account had been granted `role`, emits a {RoleRevoked}\n     * event.\n     *\n     * Requirements:\n     *\n     * - the caller must be `account`.\n     */\n    function renounceRole(bytes32 role, address account) public virtual {\n        require(account == _msgSender(), \"AccessControl: can only renounce roles for self\");\n\n        _revokeRole(role, account);\n    }\n\n    /**\n     * @dev Grants `role` to `account`.\n     *\n     * If `account` had not been already granted `role`, emits a {RoleGranted}\n     * event. Note that unlike {grantRole}, this function doesn't perform any\n     * checks on the calling account.\n     *\n     * [WARNING]\n     * ====\n     * This function should only be called from the constructor when setting\n     * up the initial roles for the system.\n     *\n     * Using this function in any other way is effectively circumventing the admin\n     * system imposed by {AccessControl}.\n     * ====\n     */\n    function _setupRole(bytes32 role, address account) internal virtual {\n        _grantRole(role, account);\n    }\n\n    /**\n     * @dev Sets `adminRole` as ``role``'s admin role.\n     *\n     * Emits a {RoleAdminChanged} event.\n     */\n    function _setRoleAdmin(bytes32 role, bytes32 adminRole) internal virtual {\n        emit RoleAdminChanged(role, _roles[role].adminRole, adminRole);\n        _roles[role].adminRole = adminRole;\n    }\n\n    function _grantRole(bytes32 role, address account) private {\n        if (_roles[role].members.add(account)) {\n            emit RoleGranted(role, account, _msgSender());\n        }\n    }\n\n    function _revokeRole(bytes32 role, address account) private {\n        if (_roles[role].members.remove(account)) {\n            emit RoleRevoked(role, account, _msgSender());\n        }\n    }\n}\n\n// File: contracts/common/AccessControlMixin.sol\n\npragma solidity 0.6.6;\n\n\ncontract AccessControlMixin is AccessControl {\n    string private _revertMsg;\n    function _setupContractId(string memory contractId) internal {\n        _revertMsg = string(abi.encodePacked(contractId, \": INSUFFICIENT_PERMISSIONS\"));\n    }\n\n    modifier only(bytes32 role) {\n        require(\n            hasRole(role, _msgSender()),\n            _revertMsg\n        );\n        _;\n    }\n}\n\n// File: contracts/child/ChildToken/IChildToken.sol\n\npragma solidity 0.6.6;\n\ninterface IChildToken {\n    function deposit(address user, bytes calldata depositData) external;\n}\n\n// File: contracts/common/Initializable.sol\n\npragma solidity 0.6.6;\n\ncontract Initializable {\n    bool inited = false;\n\n    modifier initializer() {\n        require(!inited, \"already inited\");\n        _;\n        inited = true;\n    }\n}\n\n// File: contracts/common/EIP712Base.sol\n\npragma solidity 0.6.6;\n\n\ncontract EIP712Base is Initializable {\n    struct EIP712Domain {\n        string name;\n        string version;\n        address verifyingContract;\n        bytes32 salt;\n    }\n\n    bytes32 internal constant EIP712_DOMAIN_TYPEHASH = keccak256(\n        bytes(\n            \"EIP712Domain(string name,string version,address verifyingContract,bytes32 salt)\"\n        )\n    );\n    bytes32 internal domainSeperator;\n\n    // supposed to be called once while initializing.\n    // one of the contractsa that inherits this contract follows proxy pattern\n    // so it is not possible to do this in a constructor\n    function _initializeEIP712(\n        string memory name,\n        string memory version\n    )\n        internal\n        initializer\n    {\n        _setDomainSeperator(name, version);\n    }\n\n    function _setDomainSeperator(string memory name, string memory version) internal {\n        domainSeperator = keccak256(\n            abi.encode(\n                EIP712_DOMAIN_TYPEHASH,\n                keccak256(bytes(name)),\n                keccak256(bytes(version)),\n                address(this),\n                bytes32(getChainId())\n            )\n        );\n    }\n\n    function getDomainSeperator() public view returns (bytes32) {\n        return domainSeperator;\n    }\n\n    function getChainId() public pure returns (uint256) {\n        uint256 id;\n        assembly {\n            id := chainid()\n        }\n        return id;\n    }\n\n    /**\n     * Accept message hash and returns hash message in EIP712 compatible form\n     * So that it can be used to recover signer from signature signed using EIP712 formatted data\n     * https://eips.ethereum.org/EIPS/eip-712\n     * \"\\\\x19\" makes the encoding deterministic\n     * \"\\\\x01\" is the version byte to make it compatible to EIP-191\n     */\n    function toTypedMessageHash(bytes32 messageHash)\n        internal\n        view\n        returns (bytes32)\n    {\n        return\n            keccak256(\n                abi.encodePacked(\"\\x19\\x01\", getDomainSeperator(), messageHash)\n            );\n    }\n}\n\n// File: contracts/common/NativeMetaTransaction.sol\n\npragma solidity 0.6.6;\n\n\n\ncontract NativeMetaTransaction is EIP712Base {\n    using SafeMath for uint256;\n    bytes32 private constant META_TRANSACTION_TYPEHASH = keccak256(\n        bytes(\n            \"MetaTransaction(uint256 nonce,address from,bytes functionSignature)\"\n        )\n    );\n    event MetaTransactionExecuted(\n        address userAddress,\n        address payable relayerAddress,\n        bytes functionSignature\n    );\n    mapping(address => uint256) nonces;\n\n    /*\n     * Meta transaction structure.\n     * No point of including value field here as if user is doing value transfer then he has the funds to pay for gas\n     * He should call the desired function directly in that case.\n     */\n    struct MetaTransaction {\n        uint256 nonce;\n        address from;\n        bytes functionSignature;\n    }\n\n    function executeMetaTransaction(\n        address userAddress,\n        bytes memory functionSignature,\n        bytes32 sigR,\n        bytes32 sigS,\n        uint8 sigV\n    ) public payable returns (bytes memory) {\n        MetaTransaction memory metaTx = MetaTransaction({\n            nonce: nonces[userAddress],\n            from: userAddress,\n            functionSignature: functionSignature\n        });\n\n        require(\n            verify(userAddress, metaTx, sigR, sigS, sigV),\n            \"Signer and signature do not match\"\n        );\n\n        // increase nonce for user (to avoid re-use)\n        nonces[userAddress] = nonces[userAddress].add(1);\n\n        emit MetaTransactionExecuted(\n            userAddress,\n            msg.sender,\n            functionSignature\n        );\n\n        // Append userAddress and relayer address at the end to extract it from calling context\n        (bool success, bytes memory returnData) = address(this).call(\n            abi.encodePacked(functionSignature, userAddress)\n        );\n        require(success, \"Function call not successful\");\n\n        return returnData;\n    }\n\n    function hashMetaTransaction(MetaTransaction memory metaTx)\n        internal\n        pure\n        returns (bytes32)\n    {\n        return\n            keccak256(\n                abi.encode(\n                    META_TRANSACTION_TYPEHASH,\n                    metaTx.nonce,\n                    metaTx.from,\n                    keccak256(metaTx.functionSignature)\n                )\n            );\n    }\n\n    function getNonce(address user) public view returns (uint256 nonce) {\n        nonce = nonces[user];\n    }\n\n    function verify(\n        address signer,\n        MetaTransaction memory metaTx,\n        bytes32 sigR,\n        bytes32 sigS,\n        uint8 sigV\n    ) internal view returns (bool) {\n        require(signer != address(0), \"NativeMetaTransaction: INVALID_SIGNER\");\n        return\n            signer ==\n            ecrecover(\n                toTypedMessageHash(hashMetaTransaction(metaTx)),\n                sigV,\n                sigR,\n                sigS\n            );\n    }\n}\n\n// File: contracts/ChainConstants.sol\n\npragma solidity 0.6.6;\n\ncontract ChainConstants {\n    string constant public ERC712_VERSION = \"1\";\n\n    uint256 constant public ROOT_CHAIN_ID = 1;\n    bytes constant public ROOT_CHAIN_ID_BYTES = hex\"01\";\n\n    uint256 constant public CHILD_CHAIN_ID = 137;\n    bytes constant public CHILD_CHAIN_ID_BYTES = hex\"89\";\n}\n\n// File: contracts/common/ContextMixin.sol\n\npragma solidity 0.6.6;\n\nabstract contract ContextMixin {\n    function msgSender()\n        internal\n        view\n        returns (address payable sender)\n    {\n        if (msg.sender == address(this)) {\n            bytes memory array = msg.data;\n            uint256 index = msg.data.length;\n            assembly {\n                // Load the 32 bytes word from memory with the address on the lower 20 bytes, and mask those.\n                sender := and(\n                    mload(add(array, index)),\n                    0xffffffffffffffffffffffffffffffffffffffff\n                )\n            }\n        } else {\n            sender = msg.sender;\n        }\n        return sender;\n    }\n}\n\n// File: contracts/child/ChildToken/UpgradeableChildERC20/UChildERC20.sol\n\npragma solidity 0.6.6;\n\n\n\n\n\n\n\n\ncontract UChildERC20 is\n    ERC20,\n    IChildToken,\n    AccessControlMixin,\n    NativeMetaTransaction,\n    ChainConstants,\n    ContextMixin\n{\n    bytes32 public constant DEPOSITOR_ROLE = keccak256(\"DEPOSITOR_ROLE\");\n\n    constructor() public ERC20(\"\", \"\") {}\n\n    /**\n     * @notice Initialize the contract after it has been proxified\n     * @dev meant to be called once immediately after deployment\n     */\n    function initialize(\n        string calldata name_,\n        string calldata symbol_,\n        uint8 decimals_,\n        address childChainManager\n    )\n        external\n        initializer\n    {\n      setName(name_);\n      setSymbol(symbol_);\n      setDecimals(decimals_);\n      _setupContractId(string(abi.encodePacked(\"Child\", symbol_)));\n      _setupRole(DEFAULT_ADMIN_ROLE, _msgSender());\n      _setupRole(DEPOSITOR_ROLE, childChainManager);\n      _initializeEIP712(name_, ERC712_VERSION);\n    }\n\n    // This is to support Native meta transactions\n    // never use msg.sender directly, use _msgSender() instead\n    function _msgSender()\n        internal\n        override\n        view\n        returns (address payable sender)\n    {\n        return ContextMixin.msgSender();\n    }\n\n    function changeName(string calldata name_) external only(DEFAULT_ADMIN_ROLE) {\n        setName(name_);\n        _setDomainSeperator(name_, ERC712_VERSION);\n    }\n\n    /**\n     * @notice called when token is deposited on root chain\n     * @dev Should be callable only by ChildChainManager\n     * Should handle deposit by minting the required amount for user\n     * Make sure minting is done only by this function\n     * @param user user address for whom deposit is being done\n     * @param depositData abi encoded amount\n     */\n    function deposit(address user, bytes calldata depositData)\n        external\n        override\n        only(DEPOSITOR_ROLE)\n    {\n        uint256 amount = abi.decode(depositData, (uint256));\n        _mint(user, amount);\n    }\n\n    /**\n     * @notice called when user wants to withdraw tokens back to root chain\n     * @dev Should burn user's tokens. This transaction will be verified when exiting on root chain\n     * @param amount amount of tokens to withdraw\n     */\n    function withdraw(uint256 amount) external {\n        _burn(_msgSender(), amount);\n    }\n}",
  "sourcePath": "/home/guillermo/dapps/patoProyect/blockEnd/contracts/ProxyUsdt.sol",
  "compiler": {
    "name": "solc",
    "version": "0.6.6+commit.6c089d02.Emscripten.clang"
  },
  "schemaVersion": "3.4.3",
  "updatedAt": "2021-12-29T18:16:59.509Z",
  "devdoc": {
    "methods": {}
  },
  "userdoc": {
    "methods": {}
  }
}