{
  "contractName": "Reward",
  "abi": [
    {
      "inputs": [
        {
          "internalType": "contract IERC20",
          "name": "_PATO",
          "type": "address"
        }
      ],
      "stateMutability": "nonpayable",
      "type": "constructor"
    },
    {
      "inputs": [
        {
          "internalType": "address",
          "name": "_staking",
          "type": "address"
        }
      ],
      "name": "setStakingAddress",
      "outputs": [],
      "stateMutability": "nonpayable",
      "type": "function"
    },
    {
      "inputs": [
        {
          "internalType": "address",
          "name": "to",
          "type": "address"
        },
        {
          "internalType": "uint256",
          "name": "amount",
          "type": "uint256"
        }
      ],
      "name": "payTo",
      "outputs": [],
      "stateMutability": "nonpayable",
      "type": "function"
    },
    {
      "inputs": [],
      "name": "totalPATOInContract",
      "outputs": [
        {
          "internalType": "uint256",
          "name": "",
          "type": "uint256"
        }
      ],
      "stateMutability": "view",
      "type": "function"
    }
  ],
  "bytecode": "0x608060405234801561001057600080fd5b5060405161061038038061061083398101604081905261002f91610062565b6000805433600160a060020a03199182161790915560028054909116600160a060020a0392909216919091179055610090565b600060208284031215610073578081fd5b8151600160a060020a0381168114610089578182fd5b9392505050565b6105718061009f6000396000f3fe608060405234801561001057600080fd5b506004361061005d577c010000000000000000000000000000000000000000000000000000000060003504630fc22a7d81146100625780637bf0862114610080578063f4e0d9ac14610095575b600080fd5b61006a6100a8565b6040516100779190610532565b60405180910390f35b61009361008e366004610436565b610147565b005b6100936100a3366004610415565b61037f565b6002546040517f70a08231000000000000000000000000000000000000000000000000000000008152600091600160a060020a0316906370a08231906100f2903090600401610497565b60206040518083038186803b15801561010a57600080fd5b505afa15801561011e573d6000803e3d6000fd5b505050506040513d601f19601f82011682018060405250810190610142919061047f565b905090565b600154600160a060020a03163314610194576040517f08c379a000000000000000000000000000000000000000000000000000000000815260040161018b906104fb565b60405180910390fd5b6002546040517f70a08231000000000000000000000000000000000000000000000000000000008152600091600160a060020a0316906370a08231906101de903090600401610497565b60206040518083038186803b1580156101f657600080fd5b505afa15801561020a573d6000803e3d6000fd5b505050506040513d601f19601f8201168201806040525081019061022e919061047f565b9050808211156102db576002546040517fa9059cbb000000000000000000000000000000000000000000000000000000008152600160a060020a039091169063a9059cbb9061028390869085906004016104ab565b602060405180830381600087803b15801561029d57600080fd5b505af11580156102b1573d6000803e3d6000fd5b505050506040513d601f19601f820116820180604052508101906102d5919061045f565b5061037a565b6002546040517fa9059cbb000000000000000000000000000000000000000000000000000000008152600160a060020a039091169063a9059cbb9061032690869086906004016104ab565b602060405180830381600087803b15801561034057600080fd5b505af1158015610354573d6000803e3d6000fd5b505050506040513d601f19601f82011682018060405250810190610378919061045f565b505b505050565b600054600160a060020a031633146103c3576040517f08c379a000000000000000000000000000000000000000000000000000000000815260040161018b906104c4565b60018054600160a060020a0390921673ffffffffffffffffffffffffffffffffffffffff19928316179055600080549091169055565b8035600160a060020a038116811461041057600080fd5b919050565b600060208284031215610426578081fd5b61042f826103f9565b9392505050565b60008060408385031215610448578081fd5b610451836103f9565b946020939093013593505050565b600060208284031215610470578081fd5b8151801515811461042f578182fd5b600060208284031215610490578081fd5b5051919050565b600160a060020a0391909116815260200190565b600160a060020a03929092168252602082015260400190565b60208082526016908201527f596f752063616e742073657420616e797468696e672100000000000000000000604082015260600190565b60208082526014908201527f596f752063616e742070617920616e796f6e6521000000000000000000000000604082015260600190565b9081526020019056fea2646970667358221220ec229be35b5ffc21fc038449dd0aba82a32451efb8bf573bb04e122e9b2923a964736f6c63430008000033",
  "immutableReferences": {},
  "source": "// SPDX-License-Identifier: MIT\r\npragma solidity >=0.4.22 <0.9.0;\r\n\r\nimport \"@openzeppelin/contracts/token/ERC20/IERC20.sol\";\r\n\r\ncontract Reward {\r\n  \r\n  address admin;\r\n  address staking;\r\n  IERC20 PATO;\r\n\r\n  constructor(IERC20 _PATO) {\r\n    admin = msg.sender;\r\n    PATO = _PATO;\r\n  }\r\n\r\n  function setStakingAddress(address _staking) external{\r\n    require(msg.sender == admin, \"You cant set anything!\");\r\n    staking = _staking;\r\n    admin = address(0);\r\n  }\r\n\r\n  function payTo(address to, uint256 amount) external{\r\n    require(msg.sender == staking, \"You cant pay anyone!\");\r\n    \r\n    uint256 PATOBalance = PATO.balanceOf(address(this));\r\n    if (amount > PATOBalance) {\r\n        PATO.transfer(to, PATOBalance);\r\n    } else {\r\n        PATO.transfer(to, amount);\r\n    }\r\n  }\r\n\r\n  function totalPATOInContract() public view returns(uint256){\r\n    return PATO.balanceOf(address(this));\r\n  }\r\n}\r\n\r\n\r\n",
  "sourcePath": "C:\\Escritorio\\Estudio\\FaucetProyect\\contracts\\Reward.sol",
  "compiler": {
    "name": "solc",
    "version": "0.8.0+commit.c7dfd78e.Emscripten.clang"
  },
  "schemaVersion": "3.4.3",
  "updatedAt": "2021-12-06T19:51:11.613Z",
  "devdoc": {
    "kind": "dev",
    "methods": {},
    "version": 1
  },
  "userdoc": {
    "kind": "user",
    "methods": {},
    "version": 1
  }
}