{
  "contractName": "EnergySistem",
  "abi": [
    {
      "inputs": [
        {
          "internalType": "uint256",
          "name": "_price",
          "type": "uint256"
        },
        {
          "internalType": "address",
          "name": "_feeWallet",
          "type": "address"
        }
      ],
      "stateMutability": "nonpayable",
      "type": "constructor"
    },
    {
      "inputs": [],
      "name": "buyToken",
      "outputs": [
        {
          "internalType": "contract IERC20",
          "name": "",
          "type": "address"
        }
      ],
      "stateMutability": "view",
      "type": "function"
    },
    {
      "inputs": [],
      "name": "feeWallet",
      "outputs": [
        {
          "internalType": "address",
          "name": "",
          "type": "address"
        }
      ],
      "stateMutability": "view",
      "type": "function"
    },
    {
      "inputs": [],
      "name": "funActive",
      "outputs": [
        {
          "internalType": "bool",
          "name": "",
          "type": "bool"
        }
      ],
      "stateMutability": "view",
      "type": "function"
    },
    {
      "inputs": [],
      "name": "maxDayToBuy",
      "outputs": [
        {
          "internalType": "uint256",
          "name": "",
          "type": "uint256"
        }
      ],
      "stateMutability": "view",
      "type": "function"
    },
    {
      "inputs": [],
      "name": "owner",
      "outputs": [
        {
          "internalType": "address",
          "name": "",
          "type": "address"
        }
      ],
      "stateMutability": "view",
      "type": "function"
    },
    {
      "inputs": [],
      "name": "pricePerDay",
      "outputs": [
        {
          "internalType": "uint256",
          "name": "",
          "type": "uint256"
        }
      ],
      "stateMutability": "view",
      "type": "function"
    },
    {
      "inputs": [
        {
          "internalType": "address",
          "name": "",
          "type": "address"
        }
      ],
      "name": "userEnergy",
      "outputs": [
        {
          "internalType": "uint256",
          "name": "",
          "type": "uint256"
        }
      ],
      "stateMutability": "view",
      "type": "function"
    },
    {
      "inputs": [
        {
          "internalType": "address",
          "name": "",
          "type": "address"
        }
      ],
      "name": "vipList",
      "outputs": [
        {
          "internalType": "bool",
          "name": "",
          "type": "bool"
        }
      ],
      "stateMutability": "view",
      "type": "function"
    },
    {
      "inputs": [
        {
          "internalType": "uint256",
          "name": "_days",
          "type": "uint256"
        }
      ],
      "name": "buyDay",
      "outputs": [],
      "stateMutability": "nonpayable",
      "type": "function"
    },
    {
      "inputs": [
        {
          "internalType": "address",
          "name": "_user",
          "type": "address"
        }
      ],
      "name": "checkUser",
      "outputs": [
        {
          "internalType": "bool",
          "name": "",
          "type": "bool"
        }
      ],
      "stateMutability": "view",
      "type": "function"
    },
    {
      "inputs": [
        {
          "internalType": "address",
          "name": "_buyToken",
          "type": "address"
        }
      ],
      "name": "setBuyToken",
      "outputs": [],
      "stateMutability": "nonpayable",
      "type": "function"
    },
    {
      "inputs": [
        {
          "internalType": "uint256",
          "name": "_pricePerDayInWai",
          "type": "uint256"
        }
      ],
      "name": "setPricePerDay",
      "outputs": [],
      "stateMutability": "nonpayable",
      "type": "function"
    },
    {
      "inputs": [
        {
          "internalType": "address",
          "name": "_user",
          "type": "address"
        }
      ],
      "name": "howTimeLeft",
      "outputs": [
        {
          "internalType": "uint256",
          "name": "",
          "type": "uint256"
        }
      ],
      "stateMutability": "view",
      "type": "function"
    },
    {
      "inputs": [
        {
          "internalType": "address",
          "name": "_vipAddress",
          "type": "address"
        },
        {
          "internalType": "bool",
          "name": "_bool",
          "type": "bool"
        }
      ],
      "name": "addOrRemoveVIP",
      "outputs": [],
      "stateMutability": "nonpayable",
      "type": "function"
    },
    {
      "inputs": [
        {
          "internalType": "address",
          "name": "_wallet",
          "type": "address"
        }
      ],
      "name": "setWalletFee",
      "outputs": [],
      "stateMutability": "nonpayable",
      "type": "function"
    },
    {
      "inputs": [
        {
          "internalType": "uint256",
          "name": "_maxDays",
          "type": "uint256"
        }
      ],
      "name": "setMaxDayToBuy",
      "outputs": [],
      "stateMutability": "nonpayable",
      "type": "function"
    },
    {
      "inputs": [
        {
          "internalType": "bool",
          "name": "_value",
          "type": "bool"
        }
      ],
      "name": "active",
      "outputs": [],
      "stateMutability": "nonpayable",
      "type": "function"
    },
    {
      "inputs": [
        {
          "internalType": "address",
          "name": "_user",
          "type": "address"
        }
      ],
      "name": "getVipChek",
      "outputs": [
        {
          "internalType": "bool",
          "name": "",
          "type": "bool"
        }
      ],
      "stateMutability": "view",
      "type": "function"
    },
    {
      "inputs": [],
      "name": "timeBLockChain",
      "outputs": [
        {
          "internalType": "uint256",
          "name": "",
          "type": "uint256"
        }
      ],
      "stateMutability": "view",
      "type": "function"
    }
  ],
  "bytecode": "0x608060405234801561001057600080fd5b50604051610c7d380380610c7d83398101604081905261002f916100a5565b6001805433600160a060020a03199182161790915560028054909116600160a060020a03831617905561006a82670de0b6b3a76400006100e0565b60035550503360009081526007602052604090208054600160ff1991821681179092556203f480600455600580549091169091179055610124565b600080604083850312156100b7578182fd5b82516020840151909250600160a060020a03811681146100d5578182fd5b809150509250929050565b600081600019048311821515161561011f577f4e487b710000000000000000000000000000000000000000000000000000000081526011600452602481fd5b500290565b610b4a806101336000396000f3fe608060405234801561001057600080fd5b506004361061013e576000357c010000000000000000000000000000000000000000000000000000000090048063a4821719116100ca578063dade3fa01161008e578063dade3fa014610253578063e526af1614610266578063f25f4b561461026e578063fcdfce8f14610276578063fd2b9cf1146102895761013e565b8063a48217191461020a578063a9e22da414610212578063aa168b4714610225578063bda299ea14610238578063c4c1892a1461024b5761013e565b80637097fd2b116101115780637097fd2b146101a95780638a1165b3146101bc5780638da5cb5b146101cf5780638f62b56e146101e45780639f6b770a146101f75761013e565b806304001a5e146101435780631e9d48cf146101615780634192b3441461018157806359d236e614610194575b600080fd5b61014b610291565b6040516101589190610a7d565b60405180910390f35b61017461016f36600461084e565b610295565b604051610158919061095f565b61017461018f36600461084e565b6102e9565b6101a76101a23660046108a5565b610307565b005b6101a76101b73660046108dd565b610331565b6101a76101ca36600461084e565b61035b565b6101d76103c0565b604051610158919061090d565b61014b6101f236600461084e565b6103cf565b6101a761020536600461086f565b6103e1565b6101d7610439565b6101a76102203660046108dd565b610448565b61017461023336600461084e565b61048d565b61014b61024636600461084e565b6104a2565b61014b6104f4565b6101a761026136600461084e565b6104fa565b610174610556565b6101d761055f565b6101a76102843660046108dd565b61056e565b61014b610831565b4290565b600160a060020a0381166000908152600660205260408120544210806102d35750600160a060020a03821660009081526007602052604090205460ff165b156102e0575060016102e4565b5060005b919050565b600160a060020a031660009081526007602052604090205460ff1690565b600154600160a060020a0316331461031e57600080fd5b6005805460ff1916911515919091179055565b600154600160a060020a0316331461034857600080fd5b6103558162015180610a9e565b60045550565b600154600160a060020a031633146103915760405160e560020a62461bcd028152600401610388906109d8565b60405180910390fd5b6000805473ffffffffffffffffffffffffffffffffffffffff1916600160a060020a0392909216919091179055565b600154600160a060020a031681565b60066020526000908152604090205481565b600154600160a060020a0316331461040e5760405160e560020a62461bcd028152600401610388906109d8565b600160a060020a03919091166000908152600760205260409020805460ff1916911515919091179055565b600054600160a060020a031681565b600154600160a060020a031633146104755760405160e560020a62461bcd028152600401610388906109d8565b61048781670de0b6b3a7640000610a9e565b60035550565b60076020526000908152604090205460ff1681565b600160a060020a03811660009081526006602052604081205442106104c9575060006102e4565b600160a060020a0382166000908152600660205260409020546104ed904290610abd565b90506102e4565b60045481565b600154600160a060020a031633146105275760405160e560020a62461bcd028152600401610388906109d8565b6002805473ffffffffffffffffffffffffffffffffffffffff1916600160a060020a0392909216919091179055565b60055460ff1681565b600254600160a060020a031681565b60055460ff1615156001146105985760405160e560020a62461bcd028152600401610388906109a1565b6004546105a4336104a2565b106105c45760405160e560020a62461bcd02815260040161038890610a0f565b6000816003546105d49190610a9e565b6000546040517fdd62ed3e0000000000000000000000000000000000000000000000000000000081529192508291600160a060020a039091169063dd62ed3e906106249033903090600401610921565b60206040518083038186803b15801561063c57600080fd5b505afa158015610650573d6000803e3d6000fd5b505050506040513d601f19601f8201168201806040525081019061067491906108f5565b116106945760405160e560020a62461bcd02815260040161038890610a46565b6000546040517f70a082310000000000000000000000000000000000000000000000000000000081528291600160a060020a0316906370a08231906106dd90339060040161090d565b60206040518083038186803b1580156106f557600080fd5b505afa158015610709573d6000803e3d6000fd5b505050506040513d601f19601f8201168201806040525081019061072d91906108f5565b101561074e5760405160e560020a62461bcd0281526004016103889061096a565b6000546002546040517f23b872dd000000000000000000000000000000000000000000000000000000008152600160a060020a03928316926323b872dd926107a092339290911690869060040161093b565b602060405180830381600087803b1580156107ba57600080fd5b505af11580156107ce573d6000803e3d6000fd5b505050506040513d601f19601f820116820180604052508101906107f291906108c1565b506108008262015180610a9e565b610809336104a2565b6108139042610a86565b61081d9190610a86565b336000908152600660205260409020555050565b60035481565b8035600160a060020a03811681146102e457600080fd5b60006020828403121561085f578081fd5b61086882610837565b9392505050565b60008060408385031215610881578081fd5b61088a83610837565b9150602083013561089a81610b03565b809150509250929050565b6000602082840312156108b6578081fd5b813561086881610b03565b6000602082840312156108d2578081fd5b815161086881610b03565b6000602082840312156108ee578081fd5b5035919050565b600060208284031215610906578081fd5b5051919050565b600160a060020a0391909116815260200190565b600160a060020a0392831681529116602082015260400190565b600160a060020a039384168152919092166020820152604081019190915260600190565b901515815260200190565b60208082526015908201527f466f6e646f7320696e737566696369656e7465732e0000000000000000000000604082015260600190565b6020808252601b908201527f4c612066756e63696f6e20657374612064657361637469766164610000000000604082015260600190565b60208082526010908201527f4e4f206572657320656c206f776e657200000000000000000000000000000000604082015260600190565b6020808252601b908201527f53757065726173746520656c206d6178696d6f20646520646961730000000000604082015260600190565b60208082526019908201527f4170726f766172206d61732075736f20646520746f6b656e7300000000000000604082015260600190565b90815260200190565b60008219821115610a9957610a99610ad4565b500190565b6000816000190483118215151615610ab857610ab8610ad4565b500290565b600082821015610acf57610acf610ad4565b500390565b7f4e487b7100000000000000000000000000000000000000000000000000000000600052601160045260246000fd5b8015158114610b1157600080fd5b5056fea2646970667358221220b20dbf42e15117a48c8d1eda9dfc0d928cd099425c1f7ca013f6dc8af8d61b2f64736f6c63430008000033",
  "immutableReferences": {},
  "source": "// SPDX-License-Identifier: MIT\r\npragma solidity >=0.7.0 <0.9.0;\r\n\r\nimport \"@openzeppelin/contracts/token/ERC20/IERC20.sol\";\r\n\r\ncontract EnergySistem {\r\n    IERC20 public buyToken;\r\n    address public owner;\r\n    address public feeWallet;\r\n    uint public pricePerDay;\r\n    uint public maxDayToBuy;\r\n    bool public funActive;\r\n\r\n    // Addres del (user => fecha en segudos donde se le termina la energia al user)\r\n    mapping (address=> uint256) public userEnergy;\r\n    \r\n    mapping (address => bool) public vipList;\r\n    //TODO> mapping add=>bool) ownersEnergyFuLL;\r\n\r\n    constructor (uint _price, address _feeWallet){\r\n        owner = msg.sender; \r\n        feeWallet = _feeWallet;\r\n        pricePerDay = _price * 1 ether;\r\n        vipList[msg.sender] = true;\r\n        maxDayToBuy = 3 days;\r\n        funActive = true;\r\n    }\r\n\r\n    modifier onlyOwner() {\r\n        require(msg.sender == owner);\r\n        _;\r\n    }\r\n    \r\n    function buyDay(uint _days) public {\r\n        require (funActive == true, \"La funcion esta desactivada\");\r\n        require (howTimeLeft(msg.sender) < maxDayToBuy, \"Superaste el maximo de dias\");        \r\n        uint _price = pricePerDay * _days;    \r\n        require(buyToken.allowance(msg.sender, address(this)) > _price, \"Aprovar mas uso de tokens\");\r\n        require(buyToken.balanceOf(msg.sender) >= _price, \"Fondos insuficientes.\");\r\n        buyToken.transferFrom(msg.sender,feeWallet, _price);        \r\n        userEnergy[msg.sender] = (block.timestamp + howTimeLeft(msg.sender)) + (_days * 1 days);        \r\n    }\r\n\r\n    function checkUser(address _user) public view returns(bool){\r\n        if((userEnergy[_user]> block.timestamp) || vipList[_user]){\r\n            return true;\r\n        }else {\r\n            return false;\r\n        } //todo: agregar la comprobacion de la lista de usuarios vips\r\n    }\r\n\r\n    function setBuyToken(address _buyToken) public {\r\n        require (msg.sender == owner , \"NO eres el owner\");\r\n        buyToken = IERC20(_buyToken);\r\n    }\r\n\r\n    //price in wai\r\n    function setPricePerDay (uint _pricePerDayInWai) public {\r\n        require (msg.sender == owner , \"NO eres el owner\");\r\n        pricePerDay = _pricePerDayInWai * 1 ether;\r\n    }\r\n\r\n    //Function: Regresar tiempo en segundos restantes de energia.\r\n    function howTimeLeft(address _user) public view returns(uint){\r\n        if(block.timestamp>=userEnergy[_user] ){\r\n            return 0;\r\n        }else {\r\n            return userEnergy[_user] - block.timestamp;\r\n        }\r\n    }\r\n\r\n    function addOrRemoveVIP(address _vipAddress, bool _bool) public {\r\n        require (msg.sender == owner , \"NO eres el owner\");\r\n        vipList[_vipAddress] = _bool;\r\n    }\r\n\r\n    function setWalletFee(address _wallet) public {\r\n        require (msg.sender == owner , \"NO eres el owner\");\r\n        feeWallet = _wallet;\r\n    }\r\n    \r\n    //1wei = 1 day\r\n    function setMaxDayToBuy(uint _maxDays) public onlyOwner{\r\n        maxDayToBuy = _maxDays * 1 days;\r\n\r\n    }\r\n\r\n    //active or desactive Function\r\n    function active(bool _value) public onlyOwner{\r\n        funActive = _value;\r\n    }\r\n \r\n        /* TODO:\r\n        * Fction: SetToken, SetPricem, checker (done)(tested)\r\n        * Fuctions: Para que generar una lista de vips free uso. (done)\r\n        * Function: Regresar tiempo en segundos restantes de energia. (done)\r\n        * Replantear: Comprar 2 veces seguidas y sumar el tiempo.(done)\r\n        * Generar que los de la lista siempre de true. (done)\r\n        * Function : SetWalletFee (done)\r\n        * buyDay Funtion : bool para activar desactivar, variable para maximo de dias.\r\n        */\r\n\r\n    // ---- GETTERS\r\n    function getVipChek(address _user) public view returns(bool){\r\n        return  vipList[_user];\r\n    }\r\n    function timeBLockChain() external view returns(uint){\r\n        return block.timestamp;\r\n    }\r\n    //hola\r\n}\r\n\r\n",
  "sourcePath": "C:\\Escritorio\\Estudio\\FaucetProyect\\contracts\\EnergySistem.sol",
  "compiler": {
    "name": "solc",
    "version": "0.8.0+commit.c7dfd78e.Emscripten.clang"
  },
  "schemaVersion": "3.4.3",
  "updatedAt": "2022-01-16T17:30:26.099Z",
  "devdoc": {
    "kind": "dev",
    "methods": {},
    "version": 1
  },
  "userdoc": {
    "kind": "user",
    "methods": {},
    "version": 1
  }
}