{
  "contractName": "energySistem",
  "abi": [
    {
      "inputs": [
        {
          "internalType": "uint256",
          "name": "_price",
          "type": "uint256"
        },
        {
          "internalType": "address",
          "name": "_feeWallet",
          "type": "address"
        }
      ],
      "stateMutability": "nonpayable",
      "type": "constructor"
    },
    {
      "inputs": [],
      "name": "buyToken",
      "outputs": [
        {
          "internalType": "contract IERC20",
          "name": "",
          "type": "address"
        }
      ],
      "stateMutability": "view",
      "type": "function"
    },
    {
      "inputs": [],
      "name": "feeWallet",
      "outputs": [
        {
          "internalType": "address",
          "name": "",
          "type": "address"
        }
      ],
      "stateMutability": "view",
      "type": "function"
    },
    {
      "inputs": [],
      "name": "owner",
      "outputs": [
        {
          "internalType": "address",
          "name": "",
          "type": "address"
        }
      ],
      "stateMutability": "view",
      "type": "function"
    },
    {
      "inputs": [],
      "name": "pricePerDay",
      "outputs": [
        {
          "internalType": "uint256",
          "name": "",
          "type": "uint256"
        }
      ],
      "stateMutability": "view",
      "type": "function"
    },
    {
      "inputs": [
        {
          "internalType": "address",
          "name": "",
          "type": "address"
        }
      ],
      "name": "userEnergy",
      "outputs": [
        {
          "internalType": "uint256",
          "name": "",
          "type": "uint256"
        }
      ],
      "stateMutability": "view",
      "type": "function"
    },
    {
      "inputs": [
        {
          "internalType": "uint256",
          "name": "_days",
          "type": "uint256"
        }
      ],
      "name": "buyDay",
      "outputs": [
        {
          "internalType": "uint256",
          "name": "",
          "type": "uint256"
        }
      ],
      "stateMutability": "nonpayable",
      "type": "function"
    },
    {
      "inputs": [
        {
          "internalType": "address",
          "name": "_user",
          "type": "address"
        }
      ],
      "name": "checkUser",
      "outputs": [
        {
          "internalType": "bool",
          "name": "",
          "type": "bool"
        }
      ],
      "stateMutability": "view",
      "type": "function"
    },
    {
      "inputs": [
        {
          "internalType": "address",
          "name": "_buyToken",
          "type": "address"
        }
      ],
      "name": "setBuyToken",
      "outputs": [],
      "stateMutability": "nonpayable",
      "type": "function"
    },
    {
      "inputs": [
        {
          "internalType": "uint256",
          "name": "_pricePerDay",
          "type": "uint256"
        }
      ],
      "name": "setPricePerDay",
      "outputs": [],
      "stateMutability": "nonpayable",
      "type": "function"
    }
  ],
  "bytecode": "0x608060405234801561001057600080fd5b5060405161077a38038061077a83398101604081905261002f91610075565b6001805433600160a060020a03199182161790915560028054909116600160a060020a03831617905561006a82670de0b6b3a76400006100b0565b600355506100f49050565b60008060408385031215610087578182fd5b82516020840151909250600160a060020a03811681146100a5578182fd5b809150509250929050565b60008160001904831182151516156100ef577f4e487b710000000000000000000000000000000000000000000000000000000081526011600452602481fd5b500290565b610677806101036000396000f3fe608060405234801561001057600080fd5b50600436106100b0576000357c010000000000000000000000000000000000000000000000000000000090048063a482171911610083578063a482171914610128578063a9e22da414610130578063f25f4b5614610143578063fcdfce8f1461014b578063fd2b9cf11461015e576100b0565b80631e9d48cf146100b55780638a1165b3146100de5780638da5cb5b146100f35780638f62b56e14610108575b600080fd5b6100c86100c336600461045c565b610166565b6040516100d5919061050b565b60405180910390f35b6100f16100ec36600461045c565b610197565b005b6100fb6101fc565b6040516100d591906104d3565b61011b61011636600461045c565b61020b565b6040516100d591906105bb565b6100fb61021d565b6100f161013e3660046104a3565b61022c565b6100fb610271565b61011b6101593660046104a3565b610280565b61011b610456565b600160a060020a03811660009081526004602052604081205442101561018e57506001610192565b5060005b919050565b600154600160a060020a031633146101cd5760405160e560020a62461bcd0281526004016101c49061054d565b60405180910390fd5b6000805473ffffffffffffffffffffffffffffffffffffffff1916600160a060020a0392909216919091179055565b600154600160a060020a031681565b60046020526000908152604090205481565b600054600160a060020a031681565b600154600160a060020a031633146102595760405160e560020a62461bcd0281526004016101c49061054d565b61026b81670de0b6b3a76400006105dc565b60035550565b600254600160a060020a031681565b6000808260035461029191906105dc565b905061029c33610166565b156102bc5760405160e560020a62461bcd0281526004016101c490610584565b6000546040517f70a082310000000000000000000000000000000000000000000000000000000081528291600160a060020a0316906370a08231906103059033906004016104d3565b60206040518083038186803b15801561031d57600080fd5b505afa158015610331573d6000803e3d6000fd5b505050506040513d601f19601f8201168201806040525081019061035591906104bb565b10156103765760405160e560020a62461bcd0281526004016101c490610516565b6000546002546040517f23b872dd000000000000000000000000000000000000000000000000000000008152600160a060020a03928316926323b872dd926103c89233929091169086906004016104e7565b602060405180830381600087803b1580156103e257600080fd5b505af11580156103f6573d6000803e3d6000fd5b505050506040513d601f19601f8201168201806040525081019061041a9190610483565b5061042883620151806105dc565b61043290426105c4565b33600090815260046020526040902081905561044f9042906105fb565b9392505050565b60035481565b60006020828403121561046d578081fd5b8135600160a060020a038116811461044f578182fd5b600060208284031215610494578081fd5b8151801515811461044f578182fd5b6000602082840312156104b4578081fd5b5035919050565b6000602082840312156104cc578081fd5b5051919050565b600160a060020a0391909116815260200190565b600160a060020a039384168152919092166020820152604081019190915260600190565b901515815260200190565b60208082526015908201527f466f6e646f7320696e737566696369656e7465732e0000000000000000000000604082015260600190565b60208082526010908201527f4e4f206572657320656c206f776e657200000000000000000000000000000000604082015260600190565b60208082526019908201527f5961207469656e65207469656d706f20636f6d707261646f2e00000000000000604082015260600190565b90815260200190565b600082198211156105d7576105d7610612565b500190565b60008160001904831182151516156105f6576105f6610612565b500290565b60008282101561060d5761060d610612565b500390565b7f4e487b7100000000000000000000000000000000000000000000000000000000600052601160045260246000fdfea2646970667358221220cf1bd7b9ecf68ab0d684eb39489d7ec1506d833631e75dba84b3323347a9ea8864736f6c63430008000033",
  "immutableReferences": {},
  "source": "pragma solidity >=0.7.0 <0.9.0;\r\n\r\nimport \"@openzeppelin/contracts/token/ERC20/IERC20.sol\";\r\n\r\ncontract energySistem {\r\n    IERC20 public buyToken;\r\n    address public owner;\r\n    address public feeWallet;\r\n    uint public pricePerDay;\r\n\r\n    // Addres del (user => fecha en segudos donde se le termina la energia al user)\r\n    mapping (address=> uint256) public userEnergy;\r\n\r\n    constructor (uint _price, address _feeWallet){\r\n        owner = msg.sender; \r\n        feeWallet = _feeWallet;\r\n        pricePerDay = _price * 1 ether;\r\n    }\r\n    \r\n    function buyDay(uint _days) public returns(uint){\r\n        uint _price = pricePerDay * _days; // Todo: -Bug si compra dos veces seguidas-\r\n        require(checkUser(msg.sender) == false, \"Ya tiene tiempo comprado.\" );\r\n        require(buyToken.balanceOf(msg.sender) >= _price, \"Fondos insuficientes.\");        \r\n        buyToken.transferFrom(msg.sender,feeWallet, _price);\r\n        userEnergy[msg.sender] = block.timestamp + _days * 1 days;\r\n        return (userEnergy[msg.sender] - block.timestamp);\r\n    }\r\n\r\n    function checkUser(address _user) public view returns(bool){\r\n        if(userEnergy[_user]> block.timestamp){\r\n            return true;\r\n        }else {\r\n            return false;\r\n        }\r\n    }\r\n\r\n    function setBuyToken(address _buyToken) public {\r\n        require (msg.sender == owner , \"NO eres el owner\");\r\n        buyToken = IERC20(_buyToken);\r\n    }\r\n\r\n    function setPricePerDay (uint _pricePerDay) public {\r\n        require (msg.sender == owner , \"NO eres el owner\");\r\n        pricePerDay = _pricePerDay * 1 ether;\r\n    }\r\n \r\n        /* TODO:\r\n        *\r\n        */\r\n}\r\n\r\n",
  "sourcePath": "C:\\Escritorio\\Estudio\\FaucetProyect\\contracts\\energy.sol",
  "compiler": {
    "name": "solc",
    "version": "0.8.0+commit.c7dfd78e.Emscripten.clang"
  },
  "schemaVersion": "3.4.3",
  "updatedAt": "2022-01-11T21:55:00.598Z",
  "devdoc": {
    "kind": "dev",
    "methods": {},
    "version": 1
  },
  "userdoc": {
    "kind": "user",
    "methods": {},
    "version": 1
  }
}