{
  "contractName": "EnergySistem",
  "abi": [
    {
      "inputs": [
        {
          "internalType": "uint256",
          "name": "_price",
          "type": "uint256"
        },
        {
          "internalType": "address",
          "name": "_feeWallet",
          "type": "address"
        }
      ],
      "stateMutability": "nonpayable",
      "type": "constructor"
    },
    {
      "inputs": [],
      "name": "buyToken",
      "outputs": [
        {
          "internalType": "contract IERC20",
          "name": "",
          "type": "address"
        }
      ],
      "stateMutability": "view",
      "type": "function",
      "constant": true
    },
    {
      "inputs": [],
      "name": "feeWallet",
      "outputs": [
        {
          "internalType": "address",
          "name": "",
          "type": "address"
        }
      ],
      "stateMutability": "view",
      "type": "function",
      "constant": true
    },
    {
      "inputs": [],
      "name": "owner",
      "outputs": [
        {
          "internalType": "address",
          "name": "",
          "type": "address"
        }
      ],
      "stateMutability": "view",
      "type": "function",
      "constant": true
    },
    {
      "inputs": [],
      "name": "pricePerDay",
      "outputs": [
        {
          "internalType": "uint256",
          "name": "",
          "type": "uint256"
        }
      ],
      "stateMutability": "view",
      "type": "function",
      "constant": true
    },
    {
      "inputs": [
        {
          "internalType": "address",
          "name": "",
          "type": "address"
        }
      ],
      "name": "userEnergy",
      "outputs": [
        {
          "internalType": "uint256",
          "name": "",
          "type": "uint256"
        }
      ],
      "stateMutability": "view",
      "type": "function",
      "constant": true
    },
    {
      "inputs": [
        {
          "internalType": "address",
          "name": "",
          "type": "address"
        }
      ],
      "name": "vipList",
      "outputs": [
        {
          "internalType": "bool",
          "name": "",
          "type": "bool"
        }
      ],
      "stateMutability": "view",
      "type": "function",
      "constant": true
    },
    {
      "inputs": [
        {
          "internalType": "uint256",
          "name": "_days",
          "type": "uint256"
        }
      ],
      "name": "buyDay",
      "outputs": [],
      "stateMutability": "nonpayable",
      "type": "function"
    },
    {
      "inputs": [
        {
          "internalType": "address",
          "name": "_user",
          "type": "address"
        }
      ],
      "name": "checkUser",
      "outputs": [
        {
          "internalType": "bool",
          "name": "",
          "type": "bool"
        }
      ],
      "stateMutability": "view",
      "type": "function",
      "constant": true
    },
    {
      "inputs": [
        {
          "internalType": "address",
          "name": "_buyToken",
          "type": "address"
        }
      ],
      "name": "setBuyToken",
      "outputs": [],
      "stateMutability": "nonpayable",
      "type": "function"
    },
    {
      "inputs": [
        {
          "internalType": "uint256",
          "name": "_pricePerDayInWai",
          "type": "uint256"
        }
      ],
      "name": "setPricePerDay",
      "outputs": [],
      "stateMutability": "nonpayable",
      "type": "function"
    },
    {
      "inputs": [
        {
          "internalType": "address",
          "name": "_user",
          "type": "address"
        }
      ],
      "name": "howTimeLeft",
      "outputs": [
        {
          "internalType": "uint256",
          "name": "",
          "type": "uint256"
        }
      ],
      "stateMutability": "view",
      "type": "function",
      "constant": true
    },
    {
      "inputs": [
        {
          "internalType": "address",
          "name": "_vipAddress",
          "type": "address"
        }
      ],
      "name": "addVIP",
      "outputs": [],
      "stateMutability": "nonpayable",
      "type": "function"
    },
    {
      "inputs": [
        {
          "internalType": "address",
          "name": "_wallet",
          "type": "address"
        }
      ],
      "name": "setWalletFee",
      "outputs": [],
      "stateMutability": "nonpayable",
      "type": "function"
    },
    {
      "inputs": [
        {
          "internalType": "address",
          "name": "_user",
          "type": "address"
        }
      ],
      "name": "getVipChek",
      "outputs": [
        {
          "internalType": "bool",
          "name": "",
          "type": "bool"
        }
      ],
      "stateMutability": "view",
      "type": "function",
      "constant": true
    }
  ],
  "bytecode": "0x608060405234801561001057600080fd5b50604051610a56380380610a5683398101604081905261002f9161008e565b6001805433600160a060020a03199182161790915560028054909116600160a060020a03831617905561006a82670de0b6b3a76400006100c9565b6003555050336000908152600560205260409020805460ff1916600117905561010d565b600080604083850312156100a0578182fd5b82516020840151909250600160a060020a03811681146100be578182fd5b809150509250929050565b6000816000190483118215151615610108577f4e487b710000000000000000000000000000000000000000000000000000000081526011600452602481fd5b500290565b61093a8061011c6000396000f3fe608060405234801561001057600080fd5b5060043610610107576000357c010000000000000000000000000000000000000000000000000000000090048063a9e22da4116100a9578063dade3fa011610083578063dade3fa0146101e6578063f25f4b56146101f9578063fcdfce8f14610201578063fd2b9cf11461021457610107565b8063a9e22da4146101ad578063aa168b47146101c0578063bda299ea146101d357610107565b80638a1165b3116100e55780638a1165b31461015d5780638da5cb5b146101705780638f62b56e14610185578063a4821719146101a557610107565b80631e9d48cf1461010c5780634192b344146101355780634f7d495114610148575b600080fd5b61011f61011a3660046106fe565b61021c565b60405161012c91906107ce565b60405180910390f35b61011f6101433660046106fe565b610270565b61015b6101563660046106fe565b61028e565b005b61015b61016b3660046106fe565b6102e8565b610178610344565b60405161012c919061077c565b6101986101933660046106fe565b610353565b60405161012c919061087e565b610178610365565b61015b6101bb36600461074c565b610374565b61011f6101ce3660046106fe565b6103b9565b6101986101e13660046106fe565b6103ce565b61015b6101f43660046106fe565b610420565b61017861047c565b61015b61020f36600461074c565b61048b565b6101986106f8565b600160a060020a03811660009081526004602052604081205442108061025a5750600160a060020a03821660009081526005602052604090205460ff165b156102675750600161026b565b5060005b919050565b600160a060020a031660009081526005602052604090205460ff1690565b600154600160a060020a031633146102c45760405160e560020a62461bcd0281526004016102bb90610810565b60405180910390fd5b600160a060020a03166000908152600560205260409020805460ff19166001179055565b600154600160a060020a031633146103155760405160e560020a62461bcd0281526004016102bb90610810565b6000805473ffffffffffffffffffffffffffffffffffffffff1916600160a060020a0392909216919091179055565b600154600160a060020a031681565b60046020526000908152604090205481565b600054600160a060020a031681565b600154600160a060020a031633146103a15760405160e560020a62461bcd0281526004016102bb90610810565b6103b381670de0b6b3a764000061089f565b60035550565b60056020526000908152604090205460ff1681565b600160a060020a0381166000908152600460205260408120544211156103f557504261026b565b600160a060020a0382166000908152600460205260409020546104199042906108be565b905061026b565b600154600160a060020a0316331461044d5760405160e560020a62461bcd0281526004016102bb90610810565b6002805473ffffffffffffffffffffffffffffffffffffffff1916600160a060020a0392909216919091179055565b600254600160a060020a031681565b60008160035461049b919061089f565b6000546040517f70a082310000000000000000000000000000000000000000000000000000000081529192508291600160a060020a03909116906370a08231906104e990339060040161077c565b60206040518083038186803b15801561050157600080fd5b505afa158015610515573d6000803e3d6000fd5b505050506040513d601f19601f820116820180604052508101906105399190610764565b101561055a5760405160e560020a62461bcd0281526004016102bb906107d9565b6000546040517fdd62ed3e0000000000000000000000000000000000000000000000000000000081528291600160a060020a03169063dd62ed3e906105a59033903090600401610790565b60206040518083038186803b1580156105bd57600080fd5b505afa1580156105d1573d6000803e3d6000fd5b505050506040513d601f19601f820116820180604052508101906105f59190610764565b116106155760405160e560020a62461bcd0281526004016102bb90610847565b6000546002546040517f23b872dd000000000000000000000000000000000000000000000000000000008152600160a060020a03928316926323b872dd926106679233929091169086906004016107aa565b602060405180830381600087803b15801561068157600080fd5b505af1158015610695573d6000803e3d6000fd5b505050506040513d601f19601f820116820180604052508101906106b9919061072c565b506106c7826201518061089f565b6106d0336103ce565b6106da9042610887565b6106e49190610887565b336000908152600460205260409020555050565b60035481565b60006020828403121561070f578081fd5b8135600160a060020a0381168114610725578182fd5b9392505050565b60006020828403121561073d578081fd5b81518015158114610725578182fd5b60006020828403121561075d578081fd5b5035919050565b600060208284031215610775578081fd5b5051919050565b600160a060020a0391909116815260200190565b600160a060020a0392831681529116602082015260400190565b600160a060020a039384168152919092166020820152604081019190915260600190565b901515815260200190565b60208082526015908201527f466f6e646f7320696e737566696369656e7465732e0000000000000000000000604082015260600190565b60208082526010908201527f4e4f206572657320656c206f776e657200000000000000000000000000000000604082015260600190565b60208082526019908201527f4170726f766172206d61732075736f20646520746f6b656e7300000000000000604082015260600190565b90815260200190565b6000821982111561089a5761089a6108d5565b500190565b60008160001904831182151516156108b9576108b96108d5565b500290565b6000828210156108d0576108d06108d5565b500390565b7f4e487b7100000000000000000000000000000000000000000000000000000000600052601160045260246000fdfea2646970667358221220cc14dee058088687b28fcf2dc27f16ea5b55d4ca26510d5df93a3c806879ad2d64736f6c63430008000033",
  "immutableReferences": {},
  "source": "// SPDX-License-Identifier: MIT\r\npragma solidity >=0.7.0 <0.9.0;\r\n\r\nimport \"@openzeppelin/contracts/token/ERC20/IERC20.sol\";\r\n\r\ncontract EnergySistem {\r\n    IERC20 public buyToken;\r\n    address public owner;\r\n    address public feeWallet;\r\n    uint public pricePerDay;\r\n\r\n    // Addres del (user => fecha en segudos donde se le termina la energia al user)\r\n    mapping (address=> uint256) public userEnergy;\r\n    \r\n    mapping (address => bool) public vipList;\r\n    //TODO> mapping add=>bool) ownersEnergyFuLL;\r\n\r\n    constructor (uint _price, address _feeWallet){\r\n        owner = msg.sender; \r\n        feeWallet = _feeWallet;\r\n        pricePerDay = _price * 1 ether;\r\n        vipList[msg.sender] = true;\r\n    }\r\n    \r\n    function buyDay(uint _days) public {\r\n        uint _price = pricePerDay * _days;\r\n        //require(checkUser(msg.sender) == false, \"Ya tiene tiempo comprado.\" );\r\n        require(buyToken.balanceOf(msg.sender) >= _price, \"Fondos insuficientes.\");\r\n        require(buyToken.allowance(msg.sender, address(this)) > _price, \"Aprovar mas uso de tokens\");\r\n        buyToken.transferFrom(msg.sender,feeWallet, _price);        \r\n        userEnergy[msg.sender] = (block.timestamp + howTimeLeft(msg.sender)) + (_days * 1 days);        \r\n    }\r\n\r\n    function checkUser(address _user) public view returns(bool){\r\n        if((userEnergy[_user]> block.timestamp) || vipList[_user]){\r\n            return true;\r\n        }else {\r\n            return false;\r\n        } //todo: agregar la comprobacion de la lista de usuarios vips\r\n    }\r\n\r\n    function setBuyToken(address _buyToken) public {\r\n        require (msg.sender == owner , \"NO eres el owner\");\r\n        buyToken = IERC20(_buyToken);\r\n    }\r\n\r\n    //price in wai\r\n    function setPricePerDay (uint _pricePerDayInWai) public {\r\n        require (msg.sender == owner , \"NO eres el owner\");\r\n        pricePerDay = _pricePerDayInWai * 1 ether;\r\n    }\r\n\r\n    //Function: Regresar tiempo en segundos restantes de energia.\r\n    function howTimeLeft(address _user) public view returns(uint){\r\n        if(block.timestamp>userEnergy[_user]  ){\r\n            return block.timestamp;\r\n        }else {\r\n            return userEnergy[_user] - block.timestamp;\r\n        }\r\n    }\r\n\r\n    function addVIP(address _vipAddress) public {\r\n        require (msg.sender == owner , \"NO eres el owner\");\r\n        vipList[_vipAddress] = true;\r\n    }\r\n\r\n    function setWalletFee(address _wallet) public {\r\n        require (msg.sender == owner , \"NO eres el owner\");\r\n        feeWallet = _wallet;\r\n    }\r\n \r\n        /* TODO:\r\n        * Fction: SetToken, SetPricem, checker (done)(tested)\r\n        * Fuctions: Para que generar una lista de vips free uso. (done)\r\n        * Function: Regresar tiempo en segundos restantes de energia. (done)\r\n        * Replantear: Comprar 2 veces seguidas y sumar el tiempo.(done)\r\n        * Generar que los de la lista siempre de true. (done)\r\n        * Function : SetWalletFee (done)\r\n        */\r\n\r\n    // ---- GETTERS\r\n    function getVipChek(address _user) public view returns(bool){\r\n        return  vipList[_user];\r\n    }\r\n\r\n}\r\n\r\n",
  "sourcePath": "C:\\Escritorio\\Estudio\\FaucetProyect\\contracts\\EnergySistem.sol",
  "compiler": {
    "name": "solc",
    "version": "0.8.0+commit.c7dfd78e.Emscripten.clang"
  },
  "schemaVersion": "3.4.3",
  "updatedAt": "2022-01-15T21:17:56.429Z",
  "networkType": "ethereum",
  "devdoc": {
    "kind": "dev",
    "methods": {},
    "version": 1
  },
  "userdoc": {
    "kind": "user",
    "methods": {},
    "version": 1
  }
}