{
  "contractName": "Faucet",
  "abi": [
    {
      "inputs": [
        {
          "internalType": "address",
          "name": "admin",
          "type": "address"
        },
        {
          "internalType": "address",
          "name": "tokenFaucet",
          "type": "address"
        }
      ],
      "stateMutability": "nonpayable",
      "type": "constructor"
    },
    {
      "anonymous": false,
      "inputs": [
        {
          "indexed": true,
          "internalType": "bytes32",
          "name": "role",
          "type": "bytes32"
        },
        {
          "indexed": true,
          "internalType": "bytes32",
          "name": "previousAdminRole",
          "type": "bytes32"
        },
        {
          "indexed": true,
          "internalType": "bytes32",
          "name": "newAdminRole",
          "type": "bytes32"
        }
      ],
      "name": "RoleAdminChanged",
      "type": "event"
    },
    {
      "anonymous": false,
      "inputs": [
        {
          "indexed": true,
          "internalType": "bytes32",
          "name": "role",
          "type": "bytes32"
        },
        {
          "indexed": true,
          "internalType": "address",
          "name": "account",
          "type": "address"
        },
        {
          "indexed": true,
          "internalType": "address",
          "name": "sender",
          "type": "address"
        }
      ],
      "name": "RoleGranted",
      "type": "event"
    },
    {
      "anonymous": false,
      "inputs": [
        {
          "indexed": true,
          "internalType": "bytes32",
          "name": "role",
          "type": "bytes32"
        },
        {
          "indexed": true,
          "internalType": "address",
          "name": "account",
          "type": "address"
        },
        {
          "indexed": true,
          "internalType": "address",
          "name": "sender",
          "type": "address"
        }
      ],
      "name": "RoleRevoked",
      "type": "event"
    },
    {
      "stateMutability": "payable",
      "type": "fallback"
    },
    {
      "inputs": [],
      "name": "DEFAULT_ADMIN_ROLE",
      "outputs": [
        {
          "internalType": "bytes32",
          "name": "",
          "type": "bytes32"
        }
      ],
      "stateMutability": "view",
      "type": "function"
    },
    {
      "inputs": [
        {
          "internalType": "bytes32",
          "name": "role",
          "type": "bytes32"
        }
      ],
      "name": "getRoleAdmin",
      "outputs": [
        {
          "internalType": "bytes32",
          "name": "",
          "type": "bytes32"
        }
      ],
      "stateMutability": "view",
      "type": "function"
    },
    {
      "inputs": [
        {
          "internalType": "bytes32",
          "name": "role",
          "type": "bytes32"
        },
        {
          "internalType": "uint256",
          "name": "index",
          "type": "uint256"
        }
      ],
      "name": "getRoleMember",
      "outputs": [
        {
          "internalType": "address",
          "name": "",
          "type": "address"
        }
      ],
      "stateMutability": "view",
      "type": "function"
    },
    {
      "inputs": [
        {
          "internalType": "bytes32",
          "name": "role",
          "type": "bytes32"
        }
      ],
      "name": "getRoleMemberCount",
      "outputs": [
        {
          "internalType": "uint256",
          "name": "",
          "type": "uint256"
        }
      ],
      "stateMutability": "view",
      "type": "function"
    },
    {
      "inputs": [
        {
          "internalType": "bytes32",
          "name": "role",
          "type": "bytes32"
        },
        {
          "internalType": "address",
          "name": "account",
          "type": "address"
        }
      ],
      "name": "grantRole",
      "outputs": [],
      "stateMutability": "nonpayable",
      "type": "function"
    },
    {
      "inputs": [
        {
          "internalType": "bytes32",
          "name": "role",
          "type": "bytes32"
        },
        {
          "internalType": "address",
          "name": "account",
          "type": "address"
        }
      ],
      "name": "hasRole",
      "outputs": [
        {
          "internalType": "bool",
          "name": "",
          "type": "bool"
        }
      ],
      "stateMutability": "view",
      "type": "function"
    },
    {
      "inputs": [
        {
          "internalType": "bytes32",
          "name": "role",
          "type": "bytes32"
        },
        {
          "internalType": "address",
          "name": "account",
          "type": "address"
        }
      ],
      "name": "renounceRole",
      "outputs": [],
      "stateMutability": "nonpayable",
      "type": "function"
    },
    {
      "inputs": [
        {
          "internalType": "bytes32",
          "name": "role",
          "type": "bytes32"
        },
        {
          "internalType": "address",
          "name": "account",
          "type": "address"
        }
      ],
      "name": "revokeRole",
      "outputs": [],
      "stateMutability": "nonpayable",
      "type": "function"
    },
    {
      "inputs": [],
      "name": "setActiveOn",
      "outputs": [
        {
          "internalType": "bool",
          "name": "",
          "type": "bool"
        }
      ],
      "stateMutability": "view",
      "type": "function"
    },
    {
      "inputs": [
        {
          "internalType": "bytes4",
          "name": "interfaceId",
          "type": "bytes4"
        }
      ],
      "name": "supportsInterface",
      "outputs": [
        {
          "internalType": "bool",
          "name": "",
          "type": "bool"
        }
      ],
      "stateMutability": "view",
      "type": "function"
    },
    {
      "stateMutability": "payable",
      "type": "receive"
    },
    {
      "inputs": [
        {
          "internalType": "address",
          "name": "newAdmin",
          "type": "address"
        }
      ],
      "name": "setAdmin",
      "outputs": [],
      "stateMutability": "nonpayable",
      "type": "function"
    },
    {
      "inputs": [
        {
          "internalType": "address",
          "name": "newAdmin",
          "type": "address"
        }
      ],
      "name": "unsetAdmin",
      "outputs": [],
      "stateMutability": "nonpayable",
      "type": "function"
    },
    {
      "inputs": [
        {
          "internalType": "address",
          "name": "token",
          "type": "address"
        }
      ],
      "name": "unsetOwner",
      "outputs": [],
      "stateMutability": "nonpayable",
      "type": "function"
    },
    {
      "inputs": [
        {
          "internalType": "address",
          "name": "token",
          "type": "address"
        },
        {
          "internalType": "uint256",
          "name": "amountForClaimers",
          "type": "uint256"
        },
        {
          "internalType": "uint256",
          "name": "_secs",
          "type": "uint256"
        }
      ],
      "name": "makeMeOwner",
      "outputs": [],
      "stateMutability": "payable",
      "type": "function"
    },
    {
      "inputs": [
        {
          "internalType": "address",
          "name": "token",
          "type": "address"
        }
      ],
      "name": "claim",
      "outputs": [],
      "stateMutability": "nonpayable",
      "type": "function"
    },
    {
      "inputs": [
        {
          "internalType": "address",
          "name": "token",
          "type": "address"
        },
        {
          "internalType": "uint256",
          "name": "_amount",
          "type": "uint256"
        },
        {
          "internalType": "uint256",
          "name": "_secs",
          "type": "uint256"
        }
      ],
      "name": "setUpToken",
      "outputs": [],
      "stateMutability": "nonpayable",
      "type": "function"
    },
    {
      "inputs": [
        {
          "internalType": "address",
          "name": "token",
          "type": "address"
        }
      ],
      "name": "vaciarFaucet",
      "outputs": [],
      "stateMutability": "nonpayable",
      "type": "function"
    },
    {
      "inputs": [],
      "name": "getEther",
      "outputs": [],
      "stateMutability": "nonpayable",
      "type": "function"
    },
    {
      "inputs": [
        {
          "internalType": "address",
          "name": "user",
          "type": "address"
        },
        {
          "internalType": "address",
          "name": "token",
          "type": "address"
        }
      ],
      "name": "getExpiryOf",
      "outputs": [
        {
          "internalType": "uint256",
          "name": "",
          "type": "uint256"
        }
      ],
      "stateMutability": "view",
      "type": "function"
    },
    {
      "inputs": [
        {
          "internalType": "address",
          "name": "token",
          "type": "address"
        }
      ],
      "name": "getOwnerOf",
      "outputs": [
        {
          "internalType": "address",
          "name": "",
          "type": "address"
        }
      ],
      "stateMutability": "view",
      "type": "function"
    },
    {
      "inputs": [
        {
          "internalType": "address",
          "name": "token",
          "type": "address"
        }
      ],
      "name": "getAmountOf",
      "outputs": [
        {
          "internalType": "uint256",
          "name": "",
          "type": "uint256"
        }
      ],
      "stateMutability": "view",
      "type": "function"
    },
    {
      "inputs": [
        {
          "internalType": "address",
          "name": "token",
          "type": "address"
        }
      ],
      "name": "getSecsOf",
      "outputs": [
        {
          "internalType": "uint256",
          "name": "",
          "type": "uint256"
        }
      ],
      "stateMutability": "view",
      "type": "function"
    },
    {
      "inputs": [],
      "name": "getEthBalance",
      "outputs": [
        {
          "internalType": "uint256",
          "name": "",
          "type": "uint256"
        }
      ],
      "stateMutability": "view",
      "type": "function"
    },
    {
      "inputs": [
        {
          "internalType": "bool",
          "name": "_setOnOFF",
          "type": "bool"
        }
      ],
      "name": "ActivateFaucet",
      "outputs": [],
      "stateMutability": "nonpayable",
      "type": "function"
    }
  ],
  "bytecode": "0x60806040526006805460ff191690553480156200001b57600080fd5b5060405162001a8738038062001a878339810160408190526200003e916200028a565b62000054600083640100000000620000ab810204565b600160a060020a0390811660009081526003602090815260408083208054600160a060020a031916959094169490941790925560048252828120620151809055600590915220670de0b6b3a76400009055620002c1565b620000c08282640100000000620000c4810204565b5050565b620000de828264010000000062000c1a6200010b82021704565b600082815260016020526040902062000106908264010000000062000c9f620001a782021704565b505050565b620001208282640100000000620001d0810204565b620000c057600082815260208181526040808320600160a060020a03851684529091529020805460ff1916600117905562000163640100000000620001f9810204565b600160a060020a031681600160a060020a0316837f2f8788117e7eff1d82e926ec794901d17c78024a50270940304540a733656f0d60405160405180910390a45050565b6000620001c783600160a060020a038416640100000000620001fd810204565b90505b92915050565b600091825260208281526040808420600160a060020a0393909316845291905290205460ff1690565b3390565b600062000214838364010000000062000255810204565b6200024c57508154600181810184556000848152602080822090930184905584548482528286019093526040902091909155620001ca565b506000620001ca565b60009081526001919091016020526040902054151590565b8051600160a060020a03811681146200028557600080fd5b919050565b600080604083850312156200029d578182fd5b620002a8836200026d565b9150620002b8602084016200026d565b90509250929050565b6117b680620002d16000396000f3fe6080604052600436106101535760003560e060020a9004806391d14854116100ba578063d547741f11610073578063d547741f1461039e578063d7704eeb146103be578063de0ff7c5146103de578063e8b2400c146103f3578063ee3c364014610413578063f7662f8e146104335761015a565b806391d14854146102e957806398710fac14610309578063a217fddf14610329578063a6312ab91461033e578063bd4972c31461035e578063ca15c8731461037e5761015a565b806349ce15f21161010c57806349ce15f21461023f5780634d253b5014610254578063704b6c021461027457806370ed0ada1461029457806379c1e119146102a95780639010d07c146102bc5761015a565b806301ffc9a71461015c5780631e83409a14610192578063248a9ca3146101b25780632f2ff15d146101df57806336568abe146101ff578063396c5e501461021f5761015a565b3661015a57005b005b34801561016857600080fd5b5061017c6101773660046113ea565b610453565b60405161018991906114d8565b60405180910390f35b34801561019e57600080fd5b5061015a6101ad3660046112d9565b610499565b3480156101be57600080fd5b506101d26101cd36600461138f565b6105ff565b60405161018991906114e3565b3480156101eb57600080fd5b5061015a6101fa3660046113a7565b610614565b34801561020b57600080fd5b5061015a61021a3660046113a7565b61063d565b34801561022b57600080fd5b506101d261023a3660046112f3565b61068f565b34801561024b57600080fd5b5061017c610701565b34801561026057600080fd5b5061015a61026f3660046112d9565b61070a565b34801561028057600080fd5b5061015a61028f3660046112d9565b610744565b3480156102a057600080fd5b506101d261077b565b61015a6102b7366004611325565b610780565b3480156102c857600080fd5b506102dc6102d73660046113c9565b61081c565b60405161018991906114ab565b3480156102f557600080fd5b5061017c6103043660046113a7565b61083b565b34801561031557600080fd5b506101d26103243660046112d9565b610864565b34801561033557600080fd5b506101d261087f565b34801561034a57600080fd5b5061015a6103593660046112d9565b610884565b34801561036a57600080fd5b506102dc6103793660046112d9565b610918565b34801561038a57600080fd5b506101d261039936600461138f565b610936565b3480156103aa57600080fd5b5061015a6103b93660046113a7565b61094d565b3480156103ca57600080fd5b5061015a6103d9366004611357565b61096c565b3480156103ea57600080fd5b5061015a6109ab565b3480156103ff57600080fd5b506101d261040e3660046112d9565b610a27565b34801561041f57600080fd5b5061015a61042e3660046112d9565b610a42565b34801561043f57600080fd5b5061015a61044e366004611325565b610ba7565b6000600160e060020a031982167f5a05180f000000000000000000000000000000000000000000000000000000001480610491575061049182610cb4565b90505b919050565b600160a060020a038116600090815260026020526040812042916104bb610cf2565b600160a060020a0316600160a060020a0316815260200190815260200160002054106104e657600080fd5b60065460ff1615156001146104fa57600080fd5b80600160a060020a031663a9059cbb610511610cf2565b600160a060020a0384166000908152600560205260409081902054905160e060020a63ffffffff851602815261054b9291906004016114bf565b602060405180830381600087803b15801561056557600080fd5b505af1158015610579573d6000803e3d6000fd5b505050506040513d601f19601f8201168201806040525081019061059d9190611373565b50600160a060020a0381166000908152600460205260409020546105c190426116c4565b600160a060020a0382166000908152600260205260408120906105e2610cf2565b600160a060020a0316815260208101919091526040016000205550565b60009081526020819052604090206001015490565b61061d826105ff565b61062e81610629610cf2565b610cf6565b6106388383610d5d565b505050565b610645610cf2565b600160a060020a031681600160a060020a0316146106815760405160e560020a62461bcd02815260040161067890611667565b60405180910390fd5b61068b8282610d7f565b5050565b600160a060020a038082166000908152600260209081526040808320938616835292905290812054429081106106c65760006106f7565b600160a060020a038084166000908152600260209081526040808320938816835292905220546106f79082906116fb565b9150505b92915050565b60065460ff1681565b6107176000610304610cf2565b6107365760405160e560020a62461bcd028152600401610678906115f9565b61074160008261094d565b50565b6107516000610304610cf2565b6107705760405160e560020a62461bcd028152600401610678906115f9565b610741600082610da1565b303190565b600160a060020a03808416600090815260036020526040902054849116156107bd5760405160e560020a62461bcd028152600401610678906115c2565b6107c5610cf2565b600160a060020a039485166000908152600360209081526040808320805473ffffffffffffffffffffffffffffffffffffffff19169490981693909317909655600586528181209490945560049094525091902055565b60008281526001602052604081206108349083610dab565b9392505050565b600091825260208281526040808420600160a060020a0393909316845291905290205460ff1690565b600160a060020a031660009081526004602052604090205490565b600081565b6108916000610304610cf2565b806108c55750600160a060020a03808216600090815260036020526040902054166108ba610cf2565b600160a060020a0316145b6108e45760405160e560020a62461bcd0281526004016106789061158b565b600160a060020a03166000908152600360205260409020805473ffffffffffffffffffffffffffffffffffffffff19169055565b600160a060020a039081166000908152600360205260409020541690565b600081815260016020526040812061049190610db7565b610956826105ff565b61096281610629610cf2565b6106388383610d7f565b6109796000610304610cf2565b6109985760405160e560020a62461bcd028152600401610678906115f9565b6006805460ff1916911515919091179055565b6109b86000610304610cf2565b6109d75760405160e560020a62461bcd028152600401610678906115f9565b6109df610cf2565b604051600160a060020a039190911690303180156108fc02916000818181858888f19350505050610a255760405160e560020a62461bcd02815260040161067890611630565b565b600160a060020a031660009081526005602052604090205490565b80610a4b610cf2565b600160a060020a038281166000908152600360205260409020548116911614610a895760405160e560020a62461bcd02815260040161067890611554565b81600160a060020a031663a9059cbb610aa0610cf2565b6040517f70a08231000000000000000000000000000000000000000000000000000000008152600160a060020a038616906370a0823190610ae59030906004016114ab565b60206040518083038186803b158015610afd57600080fd5b505afa158015610b11573d6000803e3d6000fd5b505050506040513d601f19601f82011682018060405250810190610b359190611412565b6040518363ffffffff1660e060020a028152600401610b559291906114bf565b602060405180830381600087803b158015610b6f57600080fd5b505af1158015610b83573d6000803e3d6000fd5b505050506040513d601f19601f820116820180604052508101906106389190611373565b82610bb0610cf2565b600160a060020a038281166000908152600360205260409020548116911614610bee5760405160e560020a62461bcd02815260040161067890611554565b50600160a060020a03909216600090815260046020908152604080832094909455600590529190912055565b610c24828261083b565b61068b57600082815260208181526040808320600160a060020a03851684529091529020805460ff19166001179055610c5b610cf2565b600160a060020a031681600160a060020a0316837f2f8788117e7eff1d82e926ec794901d17c78024a50270940304540a733656f0d60405160405180910390a45050565b600061083483600160a060020a038416610dc2565b6000600160e060020a031982167f7965db0b000000000000000000000000000000000000000000000000000000001480610491575061049182610e0c565b3390565b610d00828261083b565b61068b57610d1881600160a060020a03166014610e3e565b610d23836020610e3e565b604051602001610d3492919061142a565b60408051601f198184030181529082905260e560020a62461bcd028252610678916004016114ec565b610d678282610c1a565b60008281526001602052604090206106389082610c9f565b610d8982826110ad565b60008281526001602052604090206106389082611130565b61068b8282610d5d565b60006108348383611145565b600061049182611180565b6000610dce8383611184565b610e04575081546001818101845560008481526020808220909301849055845484825282860190935260409020919091556106fb565b5060006106fb565b600160e060020a031981167f01ffc9a70000000000000000000000000000000000000000000000000000000014919050565b60606000610e4d8360026116dc565b610e589060026116c4565b67ffffffffffffffff811115610e815760e060020a634e487b7102600052604160045260246000fd5b6040519080825280601f01601f191660200182016040528015610eab576020820181803683370190505b5090507f300000000000000000000000000000000000000000000000000000000000000081600081518110610ef35760e060020a634e487b7102600052603260045260246000fd5b60200101907effffffffffffffffffffffffffffffffffffffffffffffffffffffffffffff1916908160001a9053507f780000000000000000000000000000000000000000000000000000000000000081600181518110610f675760e060020a634e487b7102600052603260045260246000fd5b60200101907effffffffffffffffffffffffffffffffffffffffffffffffffffffffffffff1916908160001a9053506000610fa38460026116dc565b610fae9060016116c4565b90505b600181111561108b577f303132333435363738396162636465660000000000000000000000000000000085600f16601081106110005760e060020a634e487b7102600052603260045260246000fd5b1a7f0100000000000000000000000000000000000000000000000000000000000000028282815181106110465760e060020a634e487b7102600052603260045260246000fd5b60200101907effffffffffffffffffffffffffffffffffffffffffffffffffffffffffffff1916908160001a90535060109094049361108481611742565b9050610fb1565b5083156108345760405160e560020a62461bcd0281526004016106789061151f565b6110b7828261083b565b1561068b57600082815260208181526040808320600160a060020a03851684529091529020805460ff191690556110ec610cf2565b600160a060020a031681600160a060020a0316837ff6391f5c32d9c69d2a47ea670b442974b53935d1edc7fd64eb21e047a839171b60405160405180910390a45050565b600061083483600160a060020a03841661119c565b600082600001828154811061116d5760e060020a634e487b7102600052603260045260246000fd5b9060005260206000200154905092915050565b5490565b60009081526001919091016020526040902054151590565b600081815260018301602052604081205480156112b85760006111c06001836116fb565b85549091506000906111d4906001906116fb565b905081811461125b5760008660000182815481106112055760e060020a634e487b7102600052603260045260246000fd5b90600052602060002001549050808760000184815481106112395760e060020a634e487b7102600052603260045260246000fd5b6000918252602080832090910192909255918252600188019052604090208390555b855486908061127d5760e060020a634e487b7102600052603160045260246000fd5b6001900381819060005260206000200160009055905585600101600086815260200190815260200160002060009055600193505050506106fb565b60009150506106fb565b8035600160a060020a038116811461049457600080fd5b6000602082840312156112ea578081fd5b610834826112c2565b60008060408385031215611305578081fd5b61130e836112c2565b915061131c602084016112c2565b90509250929050565b600080600060608486031215611339578081fd5b611342846112c2565b95602085013595506040909401359392505050565b600060208284031215611368578081fd5b813561083481611772565b600060208284031215611384578081fd5b815161083481611772565b6000602082840312156113a0578081fd5b5035919050565b600080604083850312156113b9578182fd5b8235915061131c602084016112c2565b600080604083850312156113db578182fd5b50508035926020909101359150565b6000602082840312156113fb578081fd5b8135600160e060020a031981168114610834578182fd5b600060208284031215611423578081fd5b5051919050565b60007f416363657373436f6e74726f6c3a206163636f756e742000000000000000000082528351611462816017850160208801611712565b7f206973206d697373696e6720726f6c6520000000000000000000000000000000601791840191820152835161149f816028840160208801611712565b01602801949350505050565b600160a060020a0391909116815260200190565b600160a060020a03929092168252602082015260400190565b901515815260200190565b90815260200190565b600060208252825180602084015261150b816040850160208701611712565b601f01601f19169190910160400192915050565b6020808252818101527f537472696e67733a20686578206c656e67746820696e73756666696369656e74604082015260600190565b60208082526012908201527f6f6e6c794f776e65722066756e6374696f6e0000000000000000000000000000604082015260600190565b60208082526013908201527f4e6f742061646d696e206e6f72206f776e657200000000000000000000000000604082015260600190565b60208082526011908201527f6e6f204f776e65722066756e6374696f6e000000000000000000000000000000604082015260600190565b60208082526012908201527f6f6e6c7941646d696e2066756e6374696f6e0000000000000000000000000000604082015260600190565b60208082526014908201527f4661696c656420746f2073656e64206574686572000000000000000000000000604082015260600190565b6020808252602f908201527f416363657373436f6e74726f6c3a2063616e206f6e6c792072656e6f756e636560408201527f20726f6c657320666f722073656c660000000000000000000000000000000000606082015260800190565b600082198211156116d7576116d7611759565b500190565b60008160001904831182151516156116f6576116f6611759565b500290565b60008282101561170d5761170d611759565b500390565b60005b8381101561172d578181015183820152602001611715565b8381111561173c576000848401525b50505050565b60008161175157611751611759565b506000190190565b60e060020a634e487b7102600052601160045260246000fd5b801515811461074157600080fdfea26469706673582212207b071c962d2f451245407f40bdf1c2d91ff801295d2d11f2e49a308449f5859e64736f6c63430008000033",
  "immutableReferences": {},
  "source": "// SPDX-License-Identifier: MIT\r\npragma solidity >=0.4.22 <0.9.0;\r\n\r\nimport \"@openzeppelin/contracts/token/ERC20/IERC20.sol\";\r\nimport \"@openzeppelin/contracts/access/AccessControlEnumerable.sol\";\r\n\r\ncontract Faucet is AccessControlEnumerable{\r\n  \r\n  mapping(address=>mapping(address=>uint)) expiryOf;\r\n  mapping(address=>address) owner;\r\n  mapping(address=>uint) secs;\r\n  mapping(address=>uint) amounts;\r\n  bool public setActiveOn = false; //for activate in launch.\r\n\r\n  constructor(address admin, address tokenFaucet) {\r\n    _setupRole(DEFAULT_ADMIN_ROLE, admin);\r\n    owner[tokenFaucet] = admin;\r\n    secs[tokenFaucet] = 86400;\r\n    amounts[tokenFaucet] = 1 ether; \r\n  }\r\n\r\n  modifier onlyAdmin(){\r\n    require(hasRole(DEFAULT_ADMIN_ROLE, _msgSender()), \"onlyAdmin function\");\r\n    _;\r\n  }\r\n  modifier onlyOwner(address token){\r\n    require(owner[token] == _msgSender(), \"onlyOwner function\");\r\n    _;\r\n  }\r\n  modifier noOwner(address token){\r\n    require(owner[token] == address(0), \"no Owner function\");\r\n    _;\r\n  }\r\n  \r\n  function setAdmin(address newAdmin) external onlyAdmin{\r\n    _setupRole(DEFAULT_ADMIN_ROLE, newAdmin);    //me da out of gas\r\n  }\r\n  function unsetAdmin(address newAdmin) external onlyAdmin{\r\n    revokeRole(DEFAULT_ADMIN_ROLE, newAdmin);\r\n  }\r\n  function unsetOwner(address token) external {\r\n    require(hasRole(DEFAULT_ADMIN_ROLE, _msgSender()) || _msgSender() == owner[token], \"Not admin nor owner\");\r\n    owner[token] = address(0);\r\n  }\r\n\r\n\r\n  function makeMeOwner(address token, uint amountForClaimers, uint _secs) external payable noOwner(token){\r\n    owner[token] = _msgSender();\r\n    amounts[token] = amountForClaimers;\r\n    secs[token] = _secs;\r\n  }\r\n\r\n  function claim(address token) external{\r\n    require(expiryOf[token][_msgSender()] < block.timestamp);\r\n    require(setActiveOn == true);\r\n\r\n    IERC20(token).transfer(_msgSender(), amounts[token]);\r\n\r\n    expiryOf[token][_msgSender()] = block.timestamp + secs[token];\r\n  }\r\n\r\n  function setUpToken(address token, uint _amount, uint _secs) external onlyOwner(token){\r\n    secs[token] = _secs;\r\n    amounts[token] = _amount;\r\n  }\r\n\r\n  function vaciarFaucet(address token) external onlyOwner(token){\r\n    //Require time block retiro\r\n    IERC20(token).transfer(_msgSender(), IERC20(token).balanceOf(address(this)));\r\n  }\r\n\r\n  receive() external payable{}\r\n  fallback() external payable{}\r\n  function getEther() external onlyAdmin{\r\n    require(payable(_msgSender()).send(address(this).balance),  \"Failed to send ether\");\r\n  }\r\n  \r\n\r\n  function getExpiryOf(address user, address token) external view returns(uint){\r\n    uint nowTime = block.timestamp;\r\n    return  expiryOf[token][user] > nowTime ? expiryOf[token][user] - nowTime : 0 ;\r\n  }\r\n\r\n  function getOwnerOf(address token) external view returns(address){\r\n    return owner[token];\r\n  }\r\n  function getAmountOf(address token) external view returns(uint){\r\n    return amounts[token];\r\n  }\r\n  function getSecsOf(address token) external view returns(uint){\r\n    return secs[token];\r\n  }\r\n  function getEthBalance() external view returns(uint){\r\n    return address(this).balance;\r\n  }\r\n  function ActivateFaucet(bool _setOnOFF) public onlyAdmin{\r\n    setActiveOn = _setOnOFF;\r\n  }\r\n\r\n}\r\n",
  "sourcePath": "C:\\Escritorio\\Estudio\\FaucetProyect\\contracts\\Faucet.sol",
  "compiler": {
    "name": "solc",
    "version": "0.8.0+commit.c7dfd78e.Emscripten.clang"
  },
  "schemaVersion": "3.4.3",
  "updatedAt": "2021-12-06T19:51:11.566Z",
  "devdoc": {
    "kind": "dev",
    "methods": {
      "getRoleAdmin(bytes32)": {
        "details": "Returns the admin role that controls `role`. See {grantRole} and {revokeRole}. To change a role's admin, use {_setRoleAdmin}."
      },
      "getRoleMember(bytes32,uint256)": {
        "details": "Returns one of the accounts that have `role`. `index` must be a value between 0 and {getRoleMemberCount}, non-inclusive. Role bearers are not sorted in any particular way, and their ordering may change at any point. WARNING: When using {getRoleMember} and {getRoleMemberCount}, make sure you perform all queries on the same block. See the following https://forum.openzeppelin.com/t/iterating-over-elements-on-enumerableset-in-openzeppelin-contracts/2296[forum post] for more information."
      },
      "getRoleMemberCount(bytes32)": {
        "details": "Returns the number of accounts that have `role`. Can be used together with {getRoleMember} to enumerate all bearers of a role."
      },
      "grantRole(bytes32,address)": {
        "details": "Grants `role` to `account`. If `account` had not been already granted `role`, emits a {RoleGranted} event. Requirements: - the caller must have ``role``'s admin role."
      },
      "hasRole(bytes32,address)": {
        "details": "Returns `true` if `account` has been granted `role`."
      },
      "renounceRole(bytes32,address)": {
        "details": "Revokes `role` from the calling account. Roles are often managed via {grantRole} and {revokeRole}: this function's purpose is to provide a mechanism for accounts to lose their privileges if they are compromised (such as when a trusted device is misplaced). If the calling account had been revoked `role`, emits a {RoleRevoked} event. Requirements: - the caller must be `account`."
      },
      "revokeRole(bytes32,address)": {
        "details": "Revokes `role` from `account`. If `account` had been granted `role`, emits a {RoleRevoked} event. Requirements: - the caller must have ``role``'s admin role."
      },
      "supportsInterface(bytes4)": {
        "details": "See {IERC165-supportsInterface}."
      }
    },
    "version": 1
  },
  "userdoc": {
    "kind": "user",
    "methods": {},
    "version": 1
  }
}