{
  "contractName": "Faucet",
  "abi": [
    {
      "inputs": [
        {
          "internalType": "address",
          "name": "admin",
          "type": "address"
        },
        {
          "internalType": "address",
          "name": "tokenFaucet",
          "type": "address"
        }
      ],
      "stateMutability": "nonpayable",
      "type": "constructor"
    },
    {
      "anonymous": false,
      "inputs": [
        {
          "indexed": true,
          "internalType": "bytes32",
          "name": "role",
          "type": "bytes32"
        },
        {
          "indexed": true,
          "internalType": "bytes32",
          "name": "previousAdminRole",
          "type": "bytes32"
        },
        {
          "indexed": true,
          "internalType": "bytes32",
          "name": "newAdminRole",
          "type": "bytes32"
        }
      ],
      "name": "RoleAdminChanged",
      "type": "event"
    },
    {
      "anonymous": false,
      "inputs": [
        {
          "indexed": true,
          "internalType": "bytes32",
          "name": "role",
          "type": "bytes32"
        },
        {
          "indexed": true,
          "internalType": "address",
          "name": "account",
          "type": "address"
        },
        {
          "indexed": true,
          "internalType": "address",
          "name": "sender",
          "type": "address"
        }
      ],
      "name": "RoleGranted",
      "type": "event"
    },
    {
      "anonymous": false,
      "inputs": [
        {
          "indexed": true,
          "internalType": "bytes32",
          "name": "role",
          "type": "bytes32"
        },
        {
          "indexed": true,
          "internalType": "address",
          "name": "account",
          "type": "address"
        },
        {
          "indexed": true,
          "internalType": "address",
          "name": "sender",
          "type": "address"
        }
      ],
      "name": "RoleRevoked",
      "type": "event"
    },
    {
      "stateMutability": "payable",
      "type": "fallback"
    },
    {
      "inputs": [],
      "name": "DEFAULT_ADMIN_ROLE",
      "outputs": [
        {
          "internalType": "bytes32",
          "name": "",
          "type": "bytes32"
        }
      ],
      "stateMutability": "view",
      "type": "function"
    },
    {
      "inputs": [
        {
          "internalType": "bytes32",
          "name": "role",
          "type": "bytes32"
        }
      ],
      "name": "getRoleAdmin",
      "outputs": [
        {
          "internalType": "bytes32",
          "name": "",
          "type": "bytes32"
        }
      ],
      "stateMutability": "view",
      "type": "function"
    },
    {
      "inputs": [
        {
          "internalType": "bytes32",
          "name": "role",
          "type": "bytes32"
        },
        {
          "internalType": "uint256",
          "name": "index",
          "type": "uint256"
        }
      ],
      "name": "getRoleMember",
      "outputs": [
        {
          "internalType": "address",
          "name": "",
          "type": "address"
        }
      ],
      "stateMutability": "view",
      "type": "function"
    },
    {
      "inputs": [
        {
          "internalType": "bytes32",
          "name": "role",
          "type": "bytes32"
        }
      ],
      "name": "getRoleMemberCount",
      "outputs": [
        {
          "internalType": "uint256",
          "name": "",
          "type": "uint256"
        }
      ],
      "stateMutability": "view",
      "type": "function"
    },
    {
      "inputs": [
        {
          "internalType": "bytes32",
          "name": "role",
          "type": "bytes32"
        },
        {
          "internalType": "address",
          "name": "account",
          "type": "address"
        }
      ],
      "name": "grantRole",
      "outputs": [],
      "stateMutability": "nonpayable",
      "type": "function"
    },
    {
      "inputs": [
        {
          "internalType": "bytes32",
          "name": "role",
          "type": "bytes32"
        },
        {
          "internalType": "address",
          "name": "account",
          "type": "address"
        }
      ],
      "name": "hasRole",
      "outputs": [
        {
          "internalType": "bool",
          "name": "",
          "type": "bool"
        }
      ],
      "stateMutability": "view",
      "type": "function"
    },
    {
      "inputs": [
        {
          "internalType": "bytes32",
          "name": "role",
          "type": "bytes32"
        },
        {
          "internalType": "address",
          "name": "account",
          "type": "address"
        }
      ],
      "name": "renounceRole",
      "outputs": [],
      "stateMutability": "nonpayable",
      "type": "function"
    },
    {
      "inputs": [
        {
          "internalType": "bytes32",
          "name": "role",
          "type": "bytes32"
        },
        {
          "internalType": "address",
          "name": "account",
          "type": "address"
        }
      ],
      "name": "revokeRole",
      "outputs": [],
      "stateMutability": "nonpayable",
      "type": "function"
    },
    {
      "inputs": [],
      "name": "setActiveOn",
      "outputs": [
        {
          "internalType": "bool",
          "name": "",
          "type": "bool"
        }
      ],
      "stateMutability": "view",
      "type": "function"
    },
    {
      "inputs": [
        {
          "internalType": "bytes4",
          "name": "interfaceId",
          "type": "bytes4"
        }
      ],
      "name": "supportsInterface",
      "outputs": [
        {
          "internalType": "bool",
          "name": "",
          "type": "bool"
        }
      ],
      "stateMutability": "view",
      "type": "function"
    },
    {
      "stateMutability": "payable",
      "type": "receive"
    },
    {
      "inputs": [
        {
          "internalType": "address",
          "name": "newAdmin",
          "type": "address"
        }
      ],
      "name": "setAdmin",
      "outputs": [],
      "stateMutability": "nonpayable",
      "type": "function"
    },
    {
      "inputs": [
        {
          "internalType": "address",
          "name": "newAdmin",
          "type": "address"
        }
      ],
      "name": "unsetAdmin",
      "outputs": [],
      "stateMutability": "nonpayable",
      "type": "function"
    },
    {
      "inputs": [
        {
          "internalType": "address",
          "name": "token",
          "type": "address"
        }
      ],
      "name": "unsetOwner",
      "outputs": [],
      "stateMutability": "nonpayable",
      "type": "function"
    },
    {
      "inputs": [
        {
          "internalType": "address",
          "name": "token",
          "type": "address"
        },
        {
          "internalType": "uint256",
          "name": "amountForClaimers",
          "type": "uint256"
        },
        {
          "internalType": "uint256",
          "name": "_secs",
          "type": "uint256"
        }
      ],
      "name": "makeMeOwner",
      "outputs": [],
      "stateMutability": "payable",
      "type": "function"
    },
    {
      "inputs": [
        {
          "internalType": "address",
          "name": "token",
          "type": "address"
        }
      ],
      "name": "claim",
      "outputs": [],
      "stateMutability": "nonpayable",
      "type": "function"
    },
    {
      "inputs": [
        {
          "internalType": "address",
          "name": "token",
          "type": "address"
        },
        {
          "internalType": "uint256",
          "name": "_amount",
          "type": "uint256"
        },
        {
          "internalType": "uint256",
          "name": "_secs",
          "type": "uint256"
        }
      ],
      "name": "setUpToken",
      "outputs": [],
      "stateMutability": "nonpayable",
      "type": "function"
    },
    {
      "inputs": [
        {
          "internalType": "address",
          "name": "token",
          "type": "address"
        }
      ],
      "name": "vaciarFaucet",
      "outputs": [],
      "stateMutability": "nonpayable",
      "type": "function"
    },
    {
      "inputs": [],
      "name": "getEther",
      "outputs": [],
      "stateMutability": "nonpayable",
      "type": "function"
    },
    {
      "inputs": [
        {
          "internalType": "address",
          "name": "user",
          "type": "address"
        },
        {
          "internalType": "address",
          "name": "token",
          "type": "address"
        }
      ],
      "name": "getExpiryOf",
      "outputs": [
        {
          "internalType": "uint256",
          "name": "",
          "type": "uint256"
        }
      ],
      "stateMutability": "view",
      "type": "function"
    },
    {
      "inputs": [
        {
          "internalType": "address",
          "name": "token",
          "type": "address"
        }
      ],
      "name": "getOwnerOf",
      "outputs": [
        {
          "internalType": "address",
          "name": "",
          "type": "address"
        }
      ],
      "stateMutability": "view",
      "type": "function"
    },
    {
      "inputs": [
        {
          "internalType": "address",
          "name": "token",
          "type": "address"
        }
      ],
      "name": "getAmountOf",
      "outputs": [
        {
          "internalType": "uint256",
          "name": "",
          "type": "uint256"
        }
      ],
      "stateMutability": "view",
      "type": "function"
    },
    {
      "inputs": [
        {
          "internalType": "address",
          "name": "token",
          "type": "address"
        }
      ],
      "name": "getSecsOf",
      "outputs": [
        {
          "internalType": "uint256",
          "name": "",
          "type": "uint256"
        }
      ],
      "stateMutability": "view",
      "type": "function"
    },
    {
      "inputs": [],
      "name": "getEthBalance",
      "outputs": [
        {
          "internalType": "uint256",
          "name": "",
          "type": "uint256"
        }
      ],
      "stateMutability": "view",
      "type": "function"
    },
    {
      "inputs": [],
      "name": "ActivateFaucet",
      "outputs": [],
      "stateMutability": "nonpayable",
      "type": "function"
    }
  ],
  "bytecode": "0x60806040526006805460ff191690553480156200001b57600080fd5b5060405162001a5238038062001a528339810160408190526200003e916200028a565b62000054600083640100000000620000ab810204565b600160a060020a0390811660009081526003602090815260408083208054600160a060020a031916959094169490941790925560048252828120620151809055600590915220670de0b6b3a76400009055620002c1565b620000c08282640100000000620000c4810204565b5050565b620000de828264010000000062000c0b6200010b82021704565b600082815260016020526040902062000106908264010000000062000c90620001a782021704565b505050565b620001208282640100000000620001d0810204565b620000c057600082815260208181526040808320600160a060020a03851684529091529020805460ff1916600117905562000163640100000000620001f9810204565b600160a060020a031681600160a060020a0316837f2f8788117e7eff1d82e926ec794901d17c78024a50270940304540a733656f0d60405160405180910390a45050565b6000620001c783600160a060020a038416640100000000620001fd810204565b90505b92915050565b600091825260208281526040808420600160a060020a0393909316845291905290205460ff1690565b3390565b600062000214838364010000000062000255810204565b6200024c57508154600181810184556000848152602080822090930184905584548482528286019093526040902091909155620001ca565b506000620001ca565b60009081526001919091016020526040902054151590565b8051600160a060020a03811681146200028557600080fd5b919050565b600080604083850312156200029d578182fd5b620002a8836200026d565b9150620002b8602084016200026d565b90509250929050565b61178180620002d16000396000f3fe6080604052600436106101535760003560e060020a900480639010d07c116100ba578063ca15c87311610073578063ca15c87314610393578063d547741f146103b3578063de0ff7c5146103d3578063e8b2400c146103e8578063ee3c364014610408578063f7662f8e146104285761015a565b80639010d07c146102d157806391d14854146102fe57806398710fac1461031e578063a217fddf1461033e578063a6312ab914610353578063bd4972c3146103735761015a565b806349ce15f21161010c57806349ce15f21461023f5780634d253b50146102545780636a57e51114610274578063704b6c021461028957806370ed0ada146102a957806379c1e119146102be5761015a565b806301ffc9a71461015c5780631e83409a14610192578063248a9ca3146101b25780632f2ff15d146101df57806336568abe146101ff578063396c5e501461021f5761015a565b3661015a57005b005b34801561016857600080fd5b5061017c6101773660046113c3565b610448565b60405161018991906114b1565b60405180910390f35b34801561019e57600080fd5b5061015a6101ad3660046112ca565b61048e565b3480156101be57600080fd5b506101d26101cd366004611368565b6105f4565b60405161018991906114bc565b3480156101eb57600080fd5b5061015a6101fa366004611380565b610609565b34801561020b57600080fd5b5061015a61021a366004611380565b610632565b34801561022b57600080fd5b506101d261023a3660046112e4565b610684565b34801561024b57600080fd5b5061017c6106f6565b34801561026057600080fd5b5061015a61026f3660046112ca565b6106ff565b34801561028057600080fd5b5061015a610739565b34801561029557600080fd5b5061015a6102a43660046112ca565b610774565b3480156102b557600080fd5b506101d26107ab565b61015a6102cc366004611316565b6107b0565b3480156102dd57600080fd5b506102f16102ec3660046113a2565b61084c565b6040516101899190611484565b34801561030a57600080fd5b5061017c610319366004611380565b61086b565b34801561032a57600080fd5b506101d26103393660046112ca565b610894565b34801561034a57600080fd5b506101d26108af565b34801561035f57600080fd5b5061015a61036e3660046112ca565b6108b4565b34801561037f57600080fd5b506102f161038e3660046112ca565b610948565b34801561039f57600080fd5b506101d26103ae366004611368565b610966565b3480156103bf57600080fd5b5061015a6103ce366004611380565b61097d565b3480156103df57600080fd5b5061015a61099c565b3480156103f457600080fd5b506101d26104033660046112ca565b610a18565b34801561041457600080fd5b5061015a6104233660046112ca565b610a33565b34801561043457600080fd5b5061015a610443366004611316565b610b98565b6000600160e060020a031982167f5a05180f000000000000000000000000000000000000000000000000000000001480610486575061048682610ca5565b90505b919050565b600160a060020a038116600090815260026020526040812042916104b0610ce3565b600160a060020a0316600160a060020a0316815260200190815260200160002054106104db57600080fd5b60065460ff1615156001146104ef57600080fd5b80600160a060020a031663a9059cbb610506610ce3565b600160a060020a0384166000908152600560205260409081902054905160e060020a63ffffffff8516028152610540929190600401611498565b602060405180830381600087803b15801561055a57600080fd5b505af115801561056e573d6000803e3d6000fd5b505050506040513d601f19601f820116820180604052508101906105929190611348565b50600160a060020a0381166000908152600460205260409020546105b6904261169d565b600160a060020a0382166000908152600260205260408120906105d7610ce3565b600160a060020a0316815260208101919091526040016000205550565b60009081526020819052604090206001015490565b610612826105f4565b6106238161061e610ce3565b610ce7565b61062d8383610d4e565b505050565b61063a610ce3565b600160a060020a031681600160a060020a0316146106765760405160e560020a62461bcd02815260040161066d90611640565b60405180910390fd5b6106808282610d70565b5050565b600160a060020a038082166000908152600260209081526040808320938616835292905290812054429081106106bb5760006106ec565b600160a060020a038084166000908152600260209081526040808320938816835292905220546106ec9082906116d4565b9150505b92915050565b60065460ff1681565b61070c6000610319610ce3565b61072b5760405160e560020a62461bcd02815260040161066d906115d2565b61073660008261097d565b50565b6107466000610319610ce3565b6107655760405160e560020a62461bcd02815260040161066d906115d2565b6006805460ff19166001179055565b6107816000610319610ce3565b6107a05760405160e560020a62461bcd02815260040161066d906115d2565b610736600082610d92565b303190565b600160a060020a03808416600090815260036020526040902054849116156107ed5760405160e560020a62461bcd02815260040161066d9061159b565b6107f5610ce3565b600160a060020a039485166000908152600360209081526040808320805473ffffffffffffffffffffffffffffffffffffffff19169490981693909317909655600586528181209490945560049094525091902055565b60008281526001602052604081206108649083610d9c565b9392505050565b600091825260208281526040808420600160a060020a0393909316845291905290205460ff1690565b600160a060020a031660009081526004602052604090205490565b600081565b6108c16000610319610ce3565b806108f55750600160a060020a03808216600090815260036020526040902054166108ea610ce3565b600160a060020a0316145b6109145760405160e560020a62461bcd02815260040161066d90611564565b600160a060020a03166000908152600360205260409020805473ffffffffffffffffffffffffffffffffffffffff19169055565b600160a060020a039081166000908152600360205260409020541690565b600081815260016020526040812061048690610da8565b610986826105f4565b6109928161061e610ce3565b61062d8383610d70565b6109a96000610319610ce3565b6109c85760405160e560020a62461bcd02815260040161066d906115d2565b6109d0610ce3565b604051600160a060020a039190911690303180156108fc02916000818181858888f19350505050610a165760405160e560020a62461bcd02815260040161066d90611609565b565b600160a060020a031660009081526005602052604090205490565b80610a3c610ce3565b600160a060020a038281166000908152600360205260409020548116911614610a7a5760405160e560020a62461bcd02815260040161066d9061152d565b81600160a060020a031663a9059cbb610a91610ce3565b6040517f70a08231000000000000000000000000000000000000000000000000000000008152600160a060020a038616906370a0823190610ad6903090600401611484565b60206040518083038186803b158015610aee57600080fd5b505afa158015610b02573d6000803e3d6000fd5b505050506040513d601f19601f82011682018060405250810190610b2691906113eb565b6040518363ffffffff1660e060020a028152600401610b46929190611498565b602060405180830381600087803b158015610b6057600080fd5b505af1158015610b74573d6000803e3d6000fd5b505050506040513d601f19601f8201168201806040525081019061062d9190611348565b82610ba1610ce3565b600160a060020a038281166000908152600360205260409020548116911614610bdf5760405160e560020a62461bcd02815260040161066d9061152d565b50600160a060020a03909216600090815260046020908152604080832094909455600590529190912055565b610c15828261086b565b61068057600082815260208181526040808320600160a060020a03851684529091529020805460ff19166001179055610c4c610ce3565b600160a060020a031681600160a060020a0316837f2f8788117e7eff1d82e926ec794901d17c78024a50270940304540a733656f0d60405160405180910390a45050565b600061086483600160a060020a038416610db3565b6000600160e060020a031982167f7965db0b000000000000000000000000000000000000000000000000000000001480610486575061048682610dfd565b3390565b610cf1828261086b565b61068057610d0981600160a060020a03166014610e2f565b610d14836020610e2f565b604051602001610d25929190611403565b60408051601f198184030181529082905260e560020a62461bcd02825261066d916004016114c5565b610d588282610c0b565b600082815260016020526040902061062d9082610c90565b610d7a828261109e565b600082815260016020526040902061062d9082611121565b6106808282610d4e565b60006108648383611136565b600061048682611171565b6000610dbf8383611175565b610df5575081546001818101845560008481526020808220909301849055845484825282860190935260409020919091556106f0565b5060006106f0565b600160e060020a031981167f01ffc9a70000000000000000000000000000000000000000000000000000000014919050565b60606000610e3e8360026116b5565b610e4990600261169d565b67ffffffffffffffff811115610e725760e060020a634e487b7102600052604160045260246000fd5b6040519080825280601f01601f191660200182016040528015610e9c576020820181803683370190505b5090507f300000000000000000000000000000000000000000000000000000000000000081600081518110610ee45760e060020a634e487b7102600052603260045260246000fd5b60200101907effffffffffffffffffffffffffffffffffffffffffffffffffffffffffffff1916908160001a9053507f780000000000000000000000000000000000000000000000000000000000000081600181518110610f585760e060020a634e487b7102600052603260045260246000fd5b60200101907effffffffffffffffffffffffffffffffffffffffffffffffffffffffffffff1916908160001a9053506000610f948460026116b5565b610f9f90600161169d565b90505b600181111561107c577f303132333435363738396162636465660000000000000000000000000000000085600f1660108110610ff15760e060020a634e487b7102600052603260045260246000fd5b1a7f0100000000000000000000000000000000000000000000000000000000000000028282815181106110375760e060020a634e487b7102600052603260045260246000fd5b60200101907effffffffffffffffffffffffffffffffffffffffffffffffffffffffffffff1916908160001a9053506010909404936110758161171b565b9050610fa2565b5083156108645760405160e560020a62461bcd02815260040161066d906114f8565b6110a8828261086b565b1561068057600082815260208181526040808320600160a060020a03851684529091529020805460ff191690556110dd610ce3565b600160a060020a031681600160a060020a0316837ff6391f5c32d9c69d2a47ea670b442974b53935d1edc7fd64eb21e047a839171b60405160405180910390a45050565b600061086483600160a060020a03841661118d565b600082600001828154811061115e5760e060020a634e487b7102600052603260045260246000fd5b9060005260206000200154905092915050565b5490565b60009081526001919091016020526040902054151590565b600081815260018301602052604081205480156112a95760006111b16001836116d4565b85549091506000906111c5906001906116d4565b905081811461124c5760008660000182815481106111f65760e060020a634e487b7102600052603260045260246000fd5b906000526020600020015490508087600001848154811061122a5760e060020a634e487b7102600052603260045260246000fd5b6000918252602080832090910192909255918252600188019052604090208390555b855486908061126e5760e060020a634e487b7102600052603160045260246000fd5b6001900381819060005260206000200160009055905585600101600086815260200190815260200160002060009055600193505050506106f0565b60009150506106f0565b8035600160a060020a038116811461048957600080fd5b6000602082840312156112db578081fd5b610864826112b3565b600080604083850312156112f6578081fd5b6112ff836112b3565b915061130d602084016112b3565b90509250929050565b60008060006060848603121561132a578081fd5b611333846112b3565b95602085013595506040909401359392505050565b600060208284031215611359578081fd5b81518015158114610864578182fd5b600060208284031215611379578081fd5b5035919050565b60008060408385031215611392578182fd5b8235915061130d602084016112b3565b600080604083850312156113b4578182fd5b50508035926020909101359150565b6000602082840312156113d4578081fd5b8135600160e060020a031981168114610864578182fd5b6000602082840312156113fc578081fd5b5051919050565b60007f416363657373436f6e74726f6c3a206163636f756e74200000000000000000008252835161143b8160178501602088016116eb565b7f206973206d697373696e6720726f6c652000000000000000000000000000000060179184019182015283516114788160288401602088016116eb565b01602801949350505050565b600160a060020a0391909116815260200190565b600160a060020a03929092168252602082015260400190565b901515815260200190565b90815260200190565b60006020825282518060208401526114e48160408501602087016116eb565b601f01601f19169190910160400192915050565b6020808252818101527f537472696e67733a20686578206c656e67746820696e73756666696369656e74604082015260600190565b60208082526012908201527f6f6e6c794f776e65722066756e6374696f6e0000000000000000000000000000604082015260600190565b60208082526013908201527f4e6f742061646d696e206e6f72206f776e657200000000000000000000000000604082015260600190565b60208082526011908201527f6e6f204f776e65722066756e6374696f6e000000000000000000000000000000604082015260600190565b60208082526012908201527f6f6e6c7941646d696e2066756e6374696f6e0000000000000000000000000000604082015260600190565b60208082526014908201527f4661696c656420746f2073656e64206574686572000000000000000000000000604082015260600190565b6020808252602f908201527f416363657373436f6e74726f6c3a2063616e206f6e6c792072656e6f756e636560408201527f20726f6c657320666f722073656c660000000000000000000000000000000000606082015260800190565b600082198211156116b0576116b0611732565b500190565b60008160001904831182151516156116cf576116cf611732565b500290565b6000828210156116e6576116e6611732565b500390565b60005b838110156117065781810151838201526020016116ee565b83811115611715576000848401525b50505050565b60008161172a5761172a611732565b506000190190565b60e060020a634e487b7102600052601160045260246000fdfea2646970667358221220f2f3ee1046fa6c25c46ddd62ea15d1f9b7a4b4e6dee544b35af9f6839e06be3c64736f6c63430008000033",
  "immutableReferences": {},
  "source": "// SPDX-License-Identifier: MIT\r\npragma solidity >=0.4.22 <0.9.0;\r\n\r\nimport \"@openzeppelin/contracts/token/ERC20/IERC20.sol\";\r\nimport \"@openzeppelin/contracts/access/AccessControlEnumerable.sol\";\r\n\r\ncontract Faucet is AccessControlEnumerable{\r\n  \r\n  mapping(address=>mapping(address=>uint)) expiryOf;\r\n  mapping(address=>address) owner;\r\n  mapping(address=>uint) secs;\r\n  mapping(address=>uint) amounts;\r\n  bool public setActiveOn = false; //for activate in launch.\r\n\r\n  constructor(address admin, address tokenFaucet) {\r\n    _setupRole(DEFAULT_ADMIN_ROLE, admin);\r\n    owner[tokenFaucet] = admin;\r\n    secs[tokenFaucet] = 86400;\r\n    amounts[tokenFaucet] = 1 ether; \r\n  }\r\n\r\n  modifier onlyAdmin(){\r\n    require(hasRole(DEFAULT_ADMIN_ROLE, _msgSender()), \"onlyAdmin function\");\r\n    _;\r\n  }\r\n  modifier onlyOwner(address token){\r\n    require(owner[token] == _msgSender(), \"onlyOwner function\");\r\n    _;\r\n  }\r\n  modifier noOwner(address token){\r\n    require(owner[token] == address(0), \"no Owner function\");\r\n    _;\r\n  }\r\n  \r\n  function setAdmin(address newAdmin) external onlyAdmin{\r\n    _setupRole(DEFAULT_ADMIN_ROLE, newAdmin);    //me da out of gas\r\n  }\r\n  function unsetAdmin(address newAdmin) external onlyAdmin{\r\n    revokeRole(DEFAULT_ADMIN_ROLE, newAdmin);\r\n  }\r\n  function unsetOwner(address token) external {\r\n    require(hasRole(DEFAULT_ADMIN_ROLE, _msgSender()) || _msgSender() == owner[token], \"Not admin nor owner\");\r\n    owner[token] = address(0);\r\n  }\r\n\r\n\r\n  function makeMeOwner(address token, uint amountForClaimers, uint _secs) external payable noOwner(token){\r\n    owner[token] = _msgSender();\r\n    amounts[token] = amountForClaimers;\r\n    secs[token] = _secs;\r\n  }\r\n\r\n  function claim(address token) external{\r\n    require(expiryOf[token][_msgSender()] < block.timestamp);\r\n    require(setActiveOn == true);\r\n\r\n    IERC20(token).transfer(_msgSender(), amounts[token]);\r\n\r\n    expiryOf[token][_msgSender()] = block.timestamp + secs[token];\r\n  }\r\n\r\n  function setUpToken(address token, uint _amount, uint _secs) external onlyOwner(token){\r\n    secs[token] = _secs;\r\n    amounts[token] = _amount;\r\n  }\r\n\r\n  function vaciarFaucet(address token) external onlyOwner(token){\r\n    //Require time block retiro\r\n    IERC20(token).transfer(_msgSender(), IERC20(token).balanceOf(address(this)));\r\n  }\r\n\r\n  receive() external payable{}\r\n  fallback() external payable{}\r\n  function getEther() external onlyAdmin{\r\n    require(payable(_msgSender()).send(address(this).balance),  \"Failed to send ether\");\r\n  }\r\n  \r\n\r\n  function getExpiryOf(address user, address token) external view returns(uint){\r\n    uint nowTime = block.timestamp;\r\n    return  expiryOf[token][user] > nowTime ? expiryOf[token][user] - nowTime : 0 ;\r\n  }\r\n\r\n  function getOwnerOf(address token) external view returns(address){\r\n    return owner[token];\r\n  }\r\n  function getAmountOf(address token) external view returns(uint){\r\n    return amounts[token];\r\n  }\r\n  function getSecsOf(address token) external view returns(uint){\r\n    return secs[token];\r\n  }\r\n  function getEthBalance() external view returns(uint){\r\n    return address(this).balance;\r\n  }\r\n  function ActivateFaucet() public onlyAdmin{\r\n    setActiveOn = true;    \r\n  }\r\n\r\n}\r\n",
  "sourcePath": "C:\\Escritorio\\Estudio\\FaucetProyect\\contracts\\Faucet.sol",
  "compiler": {
    "name": "solc",
    "version": "0.8.0+commit.c7dfd78e.Emscripten.clang"
  },
  "schemaVersion": "3.4.3",
  "updatedAt": "2021-12-05T23:47:59.348Z",
  "devdoc": {
    "kind": "dev",
    "methods": {
      "getRoleAdmin(bytes32)": {
        "details": "Returns the admin role that controls `role`. See {grantRole} and {revokeRole}. To change a role's admin, use {_setRoleAdmin}."
      },
      "getRoleMember(bytes32,uint256)": {
        "details": "Returns one of the accounts that have `role`. `index` must be a value between 0 and {getRoleMemberCount}, non-inclusive. Role bearers are not sorted in any particular way, and their ordering may change at any point. WARNING: When using {getRoleMember} and {getRoleMemberCount}, make sure you perform all queries on the same block. See the following https://forum.openzeppelin.com/t/iterating-over-elements-on-enumerableset-in-openzeppelin-contracts/2296[forum post] for more information."
      },
      "getRoleMemberCount(bytes32)": {
        "details": "Returns the number of accounts that have `role`. Can be used together with {getRoleMember} to enumerate all bearers of a role."
      },
      "grantRole(bytes32,address)": {
        "details": "Grants `role` to `account`. If `account` had not been already granted `role`, emits a {RoleGranted} event. Requirements: - the caller must have ``role``'s admin role."
      },
      "hasRole(bytes32,address)": {
        "details": "Returns `true` if `account` has been granted `role`."
      },
      "renounceRole(bytes32,address)": {
        "details": "Revokes `role` from the calling account. Roles are often managed via {grantRole} and {revokeRole}: this function's purpose is to provide a mechanism for accounts to lose their privileges if they are compromised (such as when a trusted device is misplaced). If the calling account had been revoked `role`, emits a {RoleRevoked} event. Requirements: - the caller must be `account`."
      },
      "revokeRole(bytes32,address)": {
        "details": "Revokes `role` from `account`. If `account` had been granted `role`, emits a {RoleRevoked} event. Requirements: - the caller must have ``role``'s admin role."
      },
      "supportsInterface(bytes4)": {
        "details": "See {IERC165-supportsInterface}."
      }
    },
    "version": 1
  },
  "userdoc": {
    "kind": "user",
    "methods": {},
    "version": 1
  }
}