{
  "contractName": "Herreria",
  "abi": [
    {
      "inputs": [],
      "stateMutability": "nonpayable",
      "type": "constructor"
    },
    {
      "anonymous": false,
      "inputs": [
        {
          "indexed": true,
          "internalType": "address",
          "name": "owner",
          "type": "address"
        },
        {
          "indexed": true,
          "internalType": "address",
          "name": "approved",
          "type": "address"
        },
        {
          "indexed": true,
          "internalType": "uint256",
          "name": "tokenId",
          "type": "uint256"
        }
      ],
      "name": "Approval",
      "type": "event"
    },
    {
      "anonymous": false,
      "inputs": [
        {
          "indexed": true,
          "internalType": "address",
          "name": "owner",
          "type": "address"
        },
        {
          "indexed": true,
          "internalType": "address",
          "name": "operator",
          "type": "address"
        },
        {
          "indexed": false,
          "internalType": "bool",
          "name": "approved",
          "type": "bool"
        }
      ],
      "name": "ApprovalForAll",
      "type": "event"
    },
    {
      "anonymous": false,
      "inputs": [
        {
          "indexed": true,
          "internalType": "address",
          "name": "owner",
          "type": "address"
        },
        {
          "indexed": false,
          "internalType": "uint256",
          "name": "id",
          "type": "uint256"
        },
        {
          "indexed": false,
          "internalType": "uint256",
          "name": "dna",
          "type": "uint256"
        }
      ],
      "name": "NewSmithy",
      "type": "event"
    },
    {
      "anonymous": false,
      "inputs": [
        {
          "indexed": true,
          "internalType": "address",
          "name": "previousOwner",
          "type": "address"
        },
        {
          "indexed": true,
          "internalType": "address",
          "name": "newOwner",
          "type": "address"
        }
      ],
      "name": "OwnershipTransferred",
      "type": "event"
    },
    {
      "anonymous": false,
      "inputs": [
        {
          "indexed": true,
          "internalType": "address",
          "name": "from",
          "type": "address"
        },
        {
          "indexed": true,
          "internalType": "address",
          "name": "to",
          "type": "address"
        },
        {
          "indexed": true,
          "internalType": "uint256",
          "name": "tokenId",
          "type": "uint256"
        }
      ],
      "name": "Transfer",
      "type": "event"
    },
    {
      "anonymous": false,
      "inputs": [
        {
          "indexed": false,
          "internalType": "uint256",
          "name": "id",
          "type": "uint256"
        },
        {
          "indexed": false,
          "internalType": "uint256",
          "name": "lvl",
          "type": "uint256"
        }
      ],
      "name": "levelUp",
      "type": "event"
    },
    {
      "inputs": [
        {
          "internalType": "string",
          "name": "_randomString",
          "type": "string"
        }
      ],
      "name": "NewBaseSeed",
      "outputs": [
        {
          "internalType": "uint256",
          "name": "",
          "type": "uint256"
        }
      ],
      "stateMutability": "nonpayable",
      "type": "function"
    },
    {
      "inputs": [
        {
          "internalType": "address",
          "name": "to",
          "type": "address"
        },
        {
          "internalType": "uint256",
          "name": "tokenId",
          "type": "uint256"
        }
      ],
      "name": "approve",
      "outputs": [],
      "stateMutability": "nonpayable",
      "type": "function"
    },
    {
      "inputs": [
        {
          "internalType": "address",
          "name": "owner",
          "type": "address"
        }
      ],
      "name": "balanceOf",
      "outputs": [
        {
          "internalType": "uint256",
          "name": "",
          "type": "uint256"
        }
      ],
      "stateMutability": "view",
      "type": "function"
    },
    {
      "inputs": [],
      "name": "blockNum",
      "outputs": [
        {
          "internalType": "uint256",
          "name": "",
          "type": "uint256"
        }
      ],
      "stateMutability": "view",
      "type": "function"
    },
    {
      "inputs": [],
      "name": "blockTime",
      "outputs": [
        {
          "internalType": "uint256",
          "name": "",
          "type": "uint256"
        }
      ],
      "stateMutability": "view",
      "type": "function"
    },
    {
      "inputs": [
        {
          "internalType": "uint256",
          "name": "tokenId",
          "type": "uint256"
        }
      ],
      "name": "getApproved",
      "outputs": [
        {
          "internalType": "address",
          "name": "",
          "type": "address"
        }
      ],
      "stateMutability": "view",
      "type": "function"
    },
    {
      "inputs": [
        {
          "internalType": "address",
          "name": "owner",
          "type": "address"
        },
        {
          "internalType": "address",
          "name": "operator",
          "type": "address"
        }
      ],
      "name": "isApprovedForAll",
      "outputs": [
        {
          "internalType": "bool",
          "name": "",
          "type": "bool"
        }
      ],
      "stateMutability": "view",
      "type": "function"
    },
    {
      "inputs": [],
      "name": "name",
      "outputs": [
        {
          "internalType": "string",
          "name": "",
          "type": "string"
        }
      ],
      "stateMutability": "view",
      "type": "function"
    },
    {
      "inputs": [],
      "name": "owner",
      "outputs": [
        {
          "internalType": "address",
          "name": "",
          "type": "address"
        }
      ],
      "stateMutability": "view",
      "type": "function"
    },
    {
      "inputs": [
        {
          "internalType": "uint256",
          "name": "tokenId",
          "type": "uint256"
        }
      ],
      "name": "ownerOf",
      "outputs": [
        {
          "internalType": "address",
          "name": "",
          "type": "address"
        }
      ],
      "stateMutability": "view",
      "type": "function"
    },
    {
      "inputs": [],
      "name": "rand",
      "outputs": [
        {
          "internalType": "uint256",
          "name": "",
          "type": "uint256"
        }
      ],
      "stateMutability": "view",
      "type": "function"
    },
    {
      "inputs": [
        {
          "internalType": "uint256",
          "name": "a",
          "type": "uint256"
        },
        {
          "internalType": "uint256",
          "name": "b",
          "type": "uint256"
        }
      ],
      "name": "randrange",
      "outputs": [
        {
          "internalType": "uint256",
          "name": "",
          "type": "uint256"
        }
      ],
      "stateMutability": "view",
      "type": "function"
    },
    {
      "inputs": [],
      "name": "renounceOwnership",
      "outputs": [],
      "stateMutability": "nonpayable",
      "type": "function"
    },
    {
      "inputs": [
        {
          "internalType": "address",
          "name": "from",
          "type": "address"
        },
        {
          "internalType": "address",
          "name": "to",
          "type": "address"
        },
        {
          "internalType": "uint256",
          "name": "tokenId",
          "type": "uint256"
        }
      ],
      "name": "safeTransferFrom",
      "outputs": [],
      "stateMutability": "nonpayable",
      "type": "function"
    },
    {
      "inputs": [
        {
          "internalType": "address",
          "name": "from",
          "type": "address"
        },
        {
          "internalType": "address",
          "name": "to",
          "type": "address"
        },
        {
          "internalType": "uint256",
          "name": "tokenId",
          "type": "uint256"
        },
        {
          "internalType": "bytes",
          "name": "_data",
          "type": "bytes"
        }
      ],
      "name": "safeTransferFrom",
      "outputs": [],
      "stateMutability": "nonpayable",
      "type": "function"
    },
    {
      "inputs": [
        {
          "internalType": "address",
          "name": "operator",
          "type": "address"
        },
        {
          "internalType": "bool",
          "name": "approved",
          "type": "bool"
        }
      ],
      "name": "setApprovalForAll",
      "outputs": [],
      "stateMutability": "nonpayable",
      "type": "function"
    },
    {
      "inputs": [],
      "name": "smithyLenght",
      "outputs": [
        {
          "internalType": "uint256",
          "name": "",
          "type": "uint256"
        }
      ],
      "stateMutability": "view",
      "type": "function"
    },
    {
      "inputs": [
        {
          "internalType": "uint256",
          "name": "",
          "type": "uint256"
        }
      ],
      "name": "smithys",
      "outputs": [
        {
          "internalType": "string",
          "name": "name",
          "type": "string"
        },
        {
          "internalType": "uint256",
          "name": "id",
          "type": "uint256"
        },
        {
          "internalType": "uint256",
          "name": "dna",
          "type": "uint256"
        },
        {
          "internalType": "uint256",
          "name": "serie",
          "type": "uint256"
        },
        {
          "internalType": "uint256",
          "name": "maxEnergy",
          "type": "uint256"
        },
        {
          "internalType": "uint256",
          "name": "actEnergy",
          "type": "uint256"
        },
        {
          "internalType": "uint256",
          "name": "efficiency",
          "type": "uint256"
        },
        {
          "internalType": "uint256",
          "name": "level",
          "type": "uint256"
        },
        {
          "internalType": "uint256",
          "name": "stars",
          "type": "uint256"
        }
      ],
      "stateMutability": "view",
      "type": "function"
    },
    {
      "inputs": [],
      "name": "symbol",
      "outputs": [
        {
          "internalType": "string",
          "name": "",
          "type": "string"
        }
      ],
      "stateMutability": "view",
      "type": "function"
    },
    {
      "inputs": [
        {
          "internalType": "uint256",
          "name": "index",
          "type": "uint256"
        }
      ],
      "name": "tokenByIndex",
      "outputs": [
        {
          "internalType": "uint256",
          "name": "",
          "type": "uint256"
        }
      ],
      "stateMutability": "view",
      "type": "function"
    },
    {
      "inputs": [
        {
          "internalType": "address",
          "name": "owner",
          "type": "address"
        },
        {
          "internalType": "uint256",
          "name": "index",
          "type": "uint256"
        }
      ],
      "name": "tokenOfOwnerByIndex",
      "outputs": [
        {
          "internalType": "uint256",
          "name": "",
          "type": "uint256"
        }
      ],
      "stateMutability": "view",
      "type": "function"
    },
    {
      "inputs": [
        {
          "internalType": "uint256",
          "name": "tokenId",
          "type": "uint256"
        }
      ],
      "name": "tokenURI",
      "outputs": [
        {
          "internalType": "string",
          "name": "",
          "type": "string"
        }
      ],
      "stateMutability": "view",
      "type": "function"
    },
    {
      "inputs": [],
      "name": "tokensUpgrade",
      "outputs": [
        {
          "internalType": "contract IERC20",
          "name": "levelUPToken",
          "type": "address"
        },
        {
          "internalType": "contract IERC20",
          "name": "starsUpToken",
          "type": "address"
        },
        {
          "internalType": "contract IERC20",
          "name": "energyRecharge",
          "type": "address"
        }
      ],
      "stateMutability": "view",
      "type": "function"
    },
    {
      "inputs": [],
      "name": "totalSupply",
      "outputs": [
        {
          "internalType": "uint256",
          "name": "",
          "type": "uint256"
        }
      ],
      "stateMutability": "view",
      "type": "function"
    },
    {
      "inputs": [
        {
          "internalType": "address",
          "name": "from",
          "type": "address"
        },
        {
          "internalType": "address",
          "name": "to",
          "type": "address"
        },
        {
          "internalType": "uint256",
          "name": "tokenId",
          "type": "uint256"
        }
      ],
      "name": "transferFrom",
      "outputs": [],
      "stateMutability": "nonpayable",
      "type": "function"
    },
    {
      "inputs": [
        {
          "internalType": "address",
          "name": "newOwner",
          "type": "address"
        }
      ],
      "name": "transferOwnership",
      "outputs": [],
      "stateMutability": "nonpayable",
      "type": "function"
    },
    {
      "inputs": [
        {
          "internalType": "uint256",
          "name": "_fee",
          "type": "uint256"
        }
      ],
      "name": "updateFee",
      "outputs": [],
      "stateMutability": "nonpayable",
      "type": "function"
    },
    {
      "inputs": [
        {
          "internalType": "string",
          "name": "_name",
          "type": "string"
        }
      ],
      "name": "createRandomSmithy",
      "outputs": [],
      "stateMutability": "payable",
      "type": "function"
    },
    {
      "inputs": [],
      "name": "getSmithy",
      "outputs": [
        {
          "components": [
            {
              "internalType": "string",
              "name": "name",
              "type": "string"
            },
            {
              "internalType": "uint256",
              "name": "id",
              "type": "uint256"
            },
            {
              "internalType": "uint256",
              "name": "dna",
              "type": "uint256"
            },
            {
              "internalType": "uint256",
              "name": "serie",
              "type": "uint256"
            },
            {
              "internalType": "uint256",
              "name": "maxEnergy",
              "type": "uint256"
            },
            {
              "internalType": "uint256",
              "name": "actEnergy",
              "type": "uint256"
            },
            {
              "internalType": "uint256",
              "name": "efficiency",
              "type": "uint256"
            },
            {
              "internalType": "uint256",
              "name": "level",
              "type": "uint256"
            },
            {
              "internalType": "uint256",
              "name": "stars",
              "type": "uint256"
            }
          ],
          "internalType": "struct Herreria.smithy[]",
          "name": "",
          "type": "tuple[]"
        }
      ],
      "stateMutability": "view",
      "type": "function"
    },
    {
      "inputs": [
        {
          "internalType": "uint256",
          "name": "_id",
          "type": "uint256"
        }
      ],
      "name": "getActEnergyByID",
      "outputs": [
        {
          "internalType": "uint256",
          "name": "",
          "type": "uint256"
        }
      ],
      "stateMutability": "view",
      "type": "function"
    },
    {
      "inputs": [
        {
          "internalType": "address",
          "name": "_newFeeWallet",
          "type": "address"
        }
      ],
      "name": "setFeeWallet",
      "outputs": [],
      "stateMutability": "nonpayable",
      "type": "function"
    },
    {
      "inputs": [
        {
          "internalType": "uint256",
          "name": "_newCostMint",
          "type": "uint256"
        }
      ],
      "name": "setCostMintNFT",
      "outputs": [],
      "stateMutability": "nonpayable",
      "type": "function"
    },
    {
      "inputs": [
        {
          "internalType": "contract IERC20",
          "name": "_buyTokenMinter",
          "type": "address"
        }
      ],
      "name": "setTokenMinter",
      "outputs": [],
      "stateMutability": "nonpayable",
      "type": "function"
    },
    {
      "inputs": [
        {
          "internalType": "address",
          "name": "_user",
          "type": "address"
        },
        {
          "internalType": "uint256",
          "name": "_id",
          "type": "uint256"
        }
      ],
      "name": "upgradeLevel",
      "outputs": [
        {
          "internalType": "bool",
          "name": "",
          "type": "bool"
        }
      ],
      "stateMutability": "nonpayable",
      "type": "function"
    },
    {
      "inputs": [
        {
          "internalType": "uint256",
          "name": "_level",
          "type": "uint256"
        }
      ],
      "name": "costLevelUp",
      "outputs": [
        {
          "internalType": "uint256",
          "name": "",
          "type": "uint256"
        }
      ],
      "stateMutability": "pure",
      "type": "function"
    },
    {
      "inputs": [
        {
          "internalType": "address",
          "name": "_user",
          "type": "address"
        },
        {
          "internalType": "uint256",
          "name": "_id",
          "type": "uint256"
        }
      ],
      "name": "rechargeEnergy",
      "outputs": [
        {
          "internalType": "bool",
          "name": "",
          "type": "bool"
        }
      ],
      "stateMutability": "nonpayable",
      "type": "function"
    },
    {
      "inputs": [
        {
          "internalType": "address",
          "name": "_user",
          "type": "address"
        },
        {
          "internalType": "uint256",
          "name": "_id",
          "type": "uint256"
        }
      ],
      "name": "upgradeEnergy",
      "outputs": [],
      "stateMutability": "nonpayable",
      "type": "function"
    },
    {
      "inputs": [
        {
          "internalType": "uint256",
          "name": "_id",
          "type": "uint256"
        },
        {
          "internalType": "uint256",
          "name": "_value",
          "type": "uint256"
        }
      ],
      "name": "redEnergy",
      "outputs": [],
      "stateMutability": "nonpayable",
      "type": "function"
    },
    {
      "inputs": [
        {
          "internalType": "uint256",
          "name": "_level",
          "type": "uint256"
        },
        {
          "internalType": "uint256",
          "name": "_DifEnergy",
          "type": "uint256"
        }
      ],
      "name": "costOfRechargeEnergy",
      "outputs": [
        {
          "internalType": "uint256",
          "name": "",
          "type": "uint256"
        }
      ],
      "stateMutability": "pure",
      "type": "function"
    },
    {
      "inputs": [],
      "name": "costOfUpgradeEnergy",
      "outputs": [
        {
          "internalType": "uint256",
          "name": "",
          "type": "uint256"
        }
      ],
      "stateMutability": "pure",
      "type": "function"
    },
    {
      "inputs": [
        {
          "internalType": "address",
          "name": "_user",
          "type": "address"
        },
        {
          "internalType": "uint256",
          "name": "_id",
          "type": "uint256"
        }
      ],
      "name": "upgradeStars",
      "outputs": [],
      "stateMutability": "nonpayable",
      "type": "function"
    },
    {
      "inputs": [
        {
          "internalType": "uint256",
          "name": "_level",
          "type": "uint256"
        },
        {
          "internalType": "uint256",
          "name": "_stars",
          "type": "uint256"
        }
      ],
      "name": "costOfUpgradeStars",
      "outputs": [
        {
          "internalType": "uint256",
          "name": "",
          "type": "uint256"
        }
      ],
      "stateMutability": "pure",
      "type": "function"
    },
    {
      "inputs": [
        {
          "internalType": "bytes4",
          "name": "interfaceId",
          "type": "bytes4"
        }
      ],
      "name": "supportsInterface",
      "outputs": [
        {
          "internalType": "bool",
          "name": "",
          "type": "bool"
        }
      ],
      "stateMutability": "view",
      "type": "function"
    }
  ],
  "bytecode": "0x60c0604052600f60808190527f4e6f54655175656d65735061746f21000000000000000000000000000000000060a09081526200004091600b9190620001d0565b506001600d55670de0b6b3a7640000600e556802b5e3af16b1880000600f553480156200006c57600080fd5b50604080518082018252600681527f534d49544859000000000000000000000000000000000000000000000000000060208083019182528351808501909452600484527f534d545900000000000000000000000000000000000000000000000000000000908401528151919291620000e791600091620001d0565b508051620000fd906001906020840190620001d0565b5050506200012c6200011d6200017a640100000000026401000000009004565b6401000000006200017e810204565b620001394260646200037a565b600b6040516020016200014d919062000276565b60408051601f19818403018152919052805160209091012062000171919062000340565b600c5562000415565b3390565b600a8054600160a060020a03838116600160a060020a0319831681179093556040519116919082907f8be0079c531659141344cd1fd0a4f28419497f9722a3daafe3b4186f6b6457e090600090a35050565b828054620001de90620003bf565b90600052602060002090601f0160209004810192826200020257600085556200024d565b82601f106200021d57805160ff19168380011785556200024d565b828001600101855582156200024d579182015b828111156200024d57825182559160200191906001019062000230565b506200025b9291506200025f565b5090565b5b808211156200025b576000815560010162000260565b81546000908190600281046001808316806200029357607f831692505b6020808410821415620002cd577f4e487b710000000000000000000000000000000000000000000000000000000087526022600452602487fd5b818015620002e45760018114620002f65762000326565b60ff1986168952848901965062000326565b620003018a62000334565b885b868110156200031e5781548b82015290850190830162000303565b505084890196505b509498975050505050505050565b60009081526020902090565b60008262000375577f4e487b710000000000000000000000000000000000000000000000000000000081526012600452602481fd5b500490565b6000816000190483118215151615620003ba577f4e487b710000000000000000000000000000000000000000000000000000000081526011600452602481fd5b500290565b600281046001821680620003d457607f821691505b602082108114156200040f577f4e487b7100000000000000000000000000000000000000000000000000000000600052602260045260246000fd5b50919050565b61420480620004256000396000f3fe608060405260043610610279576000357c010000000000000000000000000000000000000000000000000000000090048063715018a611610161578063b88d4fde116100d3578063d0edbe6e11610097578063d0edbe6e14610715578063d7403aef14610735578063e1e2eb6a1461074a578063e985e9c51461075d578063f2fde38b1461077d578063f490edf51461079d57610279565b8063b88d4fde14610673578063c2131ccb14610693578063c87b56dd146106b5578063c945ee13146106d5578063cd37d3d9146106f557610279565b80638da5cb5b116101255780638da5cb5b146105c95780639012c4a8146105de57806390d49b9d146105fe57806395d89b411461061e578063a22cb46514610633578063a8cd7b9d1461065357610279565b8063715018a61461052a5780637340f3e51461053f57806378533e901461055f578063813396441461057f5780638ae63d6d146105b457610279565b80632f745c59116101fa57806342842e0e116101be57806342842e0e1461047557806348b15166146104955780634f6ccce7146104aa57806356e597fd146104ca5780636352211e146104ea57806370a082311461050a57610279565b80632f745c59146103eb57806333bd02031461040b57806337dcbdfc1461042b5780633b3dca761461044b5780633edffad21461046057610279565b806315d867901161024157806315d86790146103525780631740128d1461037657806318160ddd1461039657806323b872dd146103ab578063279d175d146103cb57610279565b806301ffc9a71461027e57806306fdde03146102b4578063081812fc146102d6578063095ea7b31461030357806314484e3714610325575b600080fd5b34801561028a57600080fd5b5061029e6102993660046133e6565b6107bd565b6040516102ab9190613729565b60405180910390f35b3480156102c057600080fd5b506102c96107d0565b6040516102ab9190613757565b3480156102e257600080fd5b506102f66102f1366004613464565b610862565b6040516102ab91906135f9565b34801561030f57600080fd5b5061032361031e36600461339f565b6108b1565b005b34801561033157600080fd5b50610345610340366004613464565b61094f565b6040516102ab91906135ca565b34801561035e57600080fd5b506103676109e3565b6040516102ab93929190613734565b34801561038257600080fd5b50610345610391366004613464565b610a00565b3480156103a257600080fd5b50610345610a22565b3480156103b757600080fd5b506103236103c63660046132b5565b610a28565b3480156103d757600080fd5b5061029e6103e636600461339f565b610a63565b3480156103f757600080fd5b5061034561040636600461339f565b61102b565b34801561041757600080fd5b50610323610426366004613464565b611080565b34801561043757600080fd5b5061032361044636600461339f565b6110c7565b34801561045757600080fd5b5061034561134d565b34801561046c57600080fd5b506103456113c8565b34801561048157600080fd5b506103236104903660046132b5565b6113cd565b3480156104a157600080fd5b506103456113e8565b3480156104b657600080fd5b506103456104c5366004613464565b6113ec565b3480156104d657600080fd5b506103456104e5366004613494565b61144d565b3480156104f657600080fd5b506102f6610505366004613464565b611460565b34801561051657600080fd5b50610345610525366004613261565b611498565b34801561053657600080fd5b506103236114df565b34801561054b57600080fd5b5061034561055a366004613494565b61152d565b34801561056b57600080fd5b5061032361057a366004613261565b611544565b34801561058b57600080fd5b5061059f61059a366004613464565b6115b5565b6040516102ab9998979695949392919061376a565b3480156105c057600080fd5b5061034561169b565b3480156105d557600080fd5b506102f661169f565b3480156105ea57600080fd5b506103236105f9366004613464565b6116ae565b34801561060a57600080fd5b50610323610619366004613261565b6116f5565b34801561062a57600080fd5b506102c9611766565b34801561063f57600080fd5b5061032361064e366004613372565b611775565b34801561065f57600080fd5b5061034561066e366004613494565b61178b565b34801561067f57600080fd5b5061032361068e3660046132f5565b6117aa565b34801561069f57600080fd5b506106a86117ec565b6040516102ab919061366d565b3480156106c157600080fd5b506102c96106d0366004613464565b61192e565b3480156106e157600080fd5b506103236106f036600461339f565b6119b3565b34801561070157600080fd5b5061029e61071036600461339f565b611d1a565b34801561072157600080fd5b5061034561073036600461341e565b6120b1565b34801561074157600080fd5b50610345612185565b61032361075836600461341e565b61218b565b34801561076957600080fd5b5061029e61077836600461327d565b6121a1565b34801561078957600080fd5b50610323610798366004613261565b6121cf565b3480156107a957600080fd5b506103236107b8366004613494565b612246565b60006107c8826123d7565b90505b919050565b6060600080546107df906140dd565b80601f016020809104026020016040519081016040528092919081815260200182805461080b906140dd565b80156108585780601f1061082d57610100808354040283529160200191610858565b820191906000526020600020905b81548152906001019060200180831161083b57829003601f168201915b5050505050905090565b600061086d82612415565b6108955760405160e560020a62461bcd02815260040161088c90613c5c565b60405180910390fd5b50600090815260046020526040902054600160a060020a031690565b60006108bc82611460565b905080600160a060020a031683600160a060020a031614156108f35760405160e560020a62461bcd02815260040161088c90613da8565b80600160a060020a0316610905612432565b600160a060020a03161480610921575061092181610778612432565b6109405760405160e560020a62461bcd02815260040161088c90613aa2565b61094a8383612436565b505050565b600081601261095f60018361409a565b815481106109805760e060020a634e487b7102600052603260045260246000fd5b9060005260206000209060090201600101541461099c57600080fd5b60126109a960018461409a565b815481106109ca5760e060020a634e487b7102600052603260045260246000fd5b9060005260206000209060090201600501549050919050565b601454601554601654600160a060020a0392831692918216911683565b6000610a0d600683613faa565b610a1883600161407b565b6107c89190613f36565b60085490565b610a39610a33612432565b826124b1565b610a585760405160e560020a62461bcd02815260040161088c90613e62565b61094a838383612539565b6000806012610a7360018561409a565b81548110610a945760e060020a634e487b7102600052603260045260246000fd5b906000526020600020906009020160405180610120016040529081600082018054610abe906140dd565b80601f0160208091040260200160405190810160405280929190818152602001828054610aea906140dd565b8015610b375780601f10610b0c57610100808354040283529160200191610b37565b820191906000526020600020905b815481529060010190602001808311610b1a57829003601f168201915b5050505050815260200160018201548152602001600282015481526020016003820154815260200160048201548152602001600582015481526020016006820154815260200160078201548152602001600882015481525050905082816020015114610bb85760405160e560020a62461bcd02815260040161088c90613e05565b610bc183611460565b600160a060020a031684600160a060020a031614610bf45760405160e560020a62461bcd02815260040161088c90613c25565b6000610c3e6012610c0660018761409a565b81548110610c275760e060020a634e487b7102600052603260045260246000fd5b906000526020600020906009020160070154610a00565b6014546040517f70a082310000000000000000000000000000000000000000000000000000000081529192508291600160a060020a03909116906370a0823190610c8c9089906004016135f9565b60206040518083038186803b158015610ca457600080fd5b505afa158015610cb8573d6000803e3d6000fd5b505050506040513d601f19601f82011682018060405250810190610cdc919061347c565b1015610cfd5760405160e560020a62461bcd02815260040161088c9061397a565b600060648361010001516014610d13919061407b565b610d1d9190613f4e565b60e0840151610d2d90600561407b565b610d37919061407b565b60e0840151610d4790600561407b565b610d51919061409a565b9050610d5f6001606461178b565b81111561101d5760145460105460405160e060020a6323b872dd028152600160a060020a03928316926323b872dd92610da2928b9290911690879060040161360d565b602060405180830381600087803b158015610dbc57600080fd5b505af1158015610dd0573d6000803e3d6000fd5b505050506040513d601f19601f82011682018060405250810190610df491906133ca565b506012610e0260018761409a565b81548110610e235760e060020a634e487b7102600052603260045260246000fd5b600091825260208220600760099092020101805491610e418361411b565b9091555060129050610e5460018761409a565b81548110610e755760e060020a634e487b7102600052603260045260246000fd5b9060005260206000209060090201600401546012600187610e96919061409a565b81548110610eb75760e060020a634e487b7102600052603260045260246000fd5b600091825260208220600560099092020101919091556012610eda60018861409a565b81548110610efb5760e060020a634e487b7102600052603260045260246000fd5b6000918252602090912060086009909202010155610f576012610f1f60018861409a565b81548110610f405760e060020a634e487b7102600052603260045260246000fd5b906000526020600020906009020160070154612679565b6012610f6460018861409a565b81548110610f855760e060020a634e487b7102600052603260045260246000fd5b60009182526020909120600660099092020101557f5226dc93e23cf0c9544b273c54a40394c171b04f887c3c2b6cfde807043fd1e7856012610fc860018361409a565b81548110610fe95760e060020a634e487b7102600052603260045260246000fd5b906000526020600020906009020160070154604051611009929190613f1c565b60405180910390a160019350505050611025565b600093505050505b92915050565b600061103683611498565b82106110575760405160e560020a62461bcd02815260040161088c9061382c565b50600160a060020a03919091166000908152600660209081526040808320938352929052205490565b611088612432565b600160a060020a031661109961169f565b600160a060020a0316146110c25760405160e560020a62461bcd02815260040161088c90613cb9565b600f55565b600060126110d660018461409a565b815481106110f75760e060020a634e487b7102600052603260045260246000fd5b906000526020600020906009020160405180610120016040529081600082018054611121906140dd565b80601f016020809104026020016040519081016040528092919081815260200182805461114d906140dd565b801561119a5780601f1061116f5761010080835404028352916020019161119a565b820191906000526020600020905b81548152906001019060200180831161117d57829003601f168201915b505050505081526020016001820154815260200160028201548152602001600382015481526020016004820154815260200160058201548152602001600682015481526020016007820154815260200160088201548152505090508181602001511461121b5760405160e560020a62461bcd02815260040161088c90613e05565b61122482611460565b600160a060020a031683600160a060020a0316146112575760405160e560020a62461bcd02815260040161088c90613c25565b60006112616113c8565b60145460105460405160e060020a6323b872dd028152929350600160a060020a03918216926323b872dd9261129f928992911690869060040161360d565b602060405180830381600087803b1580156112b957600080fd5b505af11580156112cd573d6000803e3d6000fd5b505050506040513d601f19601f820116820180604052508101906112f191906133ca565b50600a601261130160018661409a565b815481106113225760e060020a634e487b7102600052603260045260246000fd5b906000526020600020906009020160040160008282546113429190613f36565b909155505050505050565b60008043600c5460405160200161136491906135ca565b60408051601f1981840301815291905280516020909101206113869190613f36565b6113904442613f36565b61139a9190613f36565b6040516020016113aa91906135ca565b60408051601f19818403018152919052805160209091012091505090565b600690565b61094a838383604051806020016040528060008152506117aa565b4290565b60006113f6610a22565b82106114175760405160e560020a62461bcd02815260040161088c90613ebf565b6008828154811061143b5760e060020a634e487b7102600052603260045260246000fd5b90600052602060002001549050919050565b60006114598383613f36565b9392505050565b600081815260026020526040812054600160a060020a0316806107c85760405160e560020a62461bcd02815260040161088c90613b5c565b6000600160a060020a0382166114c35760405160e560020a62461bcd02815260040161088c90613aff565b50600160a060020a031660009081526003602052604090205490565b6114e7612432565b600160a060020a03166114f861169f565b600160a060020a0316146115215760405160e560020a62461bcd02815260040161088c90613cb9565b61152b6000612686565b565b60006115398284613f36565b61145990600261407b565b61154c612432565b600160a060020a031661155d61169f565b600160a060020a0316146115865760405160e560020a62461bcd02815260040161088c90613cb9565b6011805473ffffffffffffffffffffffffffffffffffffffff1916600160a060020a0392909216919091179055565b601281815481106115c557600080fd5b90600052602060002090600902016000915090508060000180546115e8906140dd565b80601f0160208091040260200160405190810160405280929190818152602001828054611614906140dd565b80156116615780601f1061163657610100808354040283529160200191611661565b820191906000526020600020905b81548152906001019060200180831161164457829003601f168201915b5050505050908060010154908060020154908060030154908060040154908060050154908060060154908060070154908060080154905089565b4390565b600a54600160a060020a031690565b6116b6612432565b600160a060020a03166116c761169f565b600160a060020a0316146116f05760405160e560020a62461bcd02815260040161088c90613cb9565b600e55565b6116fd612432565b600160a060020a031661170e61169f565b600160a060020a0316146117375760405160e560020a62461bcd02815260040161088c90613cb9565b6010805473ffffffffffffffffffffffffffffffffffffffff1916600160a060020a0392909216919091179055565b6060600180546107df906140dd565b611787611780612432565b83836126e5565b5050565b60008161179661134d565b6117a09190614136565b6114599084613f36565b6117bb6117b5612432565b836124b1565b6117da5760405160e560020a62461bcd02815260040161088c90613e62565b6117e68484848461278b565b50505050565b60606012805480602002602001604051908101604052809291908181526020016000905b82821015611925578382906000526020600020906009020160405180610120016040529081600082018054611844906140dd565b80601f0160208091040260200160405190810160405280929190818152602001828054611870906140dd565b80156118bd5780601f10611892576101008083540402835291602001916118bd565b820191906000526020600020905b8154815290600101906020018083116118a057829003601f168201915b505050505081526020016001820154815260200160028201548152602001600382015481526020016004820154815260200160058201548152602001600682015481526020016007820154815260200160088201548152505081526020019060010190611810565b50505050905090565b606061193982612415565b6119585760405160e560020a62461bcd02815260040161088c90613d4b565b60006119626127c1565b905060008151116119825760405180602001604052806000815250611459565b8061198c846127d3565b60405160200161199d9291906134fd565b6040516020818303038152906040529392505050565b600060126119c260018461409a565b815481106119e35760e060020a634e487b7102600052603260045260246000fd5b906000526020600020906009020160405180610120016040529081600082018054611a0d906140dd565b80601f0160208091040260200160405190810160405280929190818152602001828054611a39906140dd565b8015611a865780601f10611a5b57610100808354040283529160200191611a86565b820191906000526020600020905b815481529060010190602001808311611a6957829003601f168201915b5050505050815260200160018201548152602001600282015481526020016003820154815260200160048201548152602001600582015481526020016006820154815260200160078201548152602001600882015481525050905081816020015114611b075760405160e560020a62461bcd02815260040161088c90613e05565b611b1082611460565b600160a060020a031683600160a060020a031614611b435760405160e560020a62461bcd02815260040161088c90613c25565b60056012611b5260018561409a565b81548110611b735760e060020a634e487b7102600052603260045260246000fd5b9060005260206000209060090201600801541115611ba65760405160e560020a62461bcd02815260040161088c906137f5565b6000611c326012611bb860018661409a565b81548110611bd95760e060020a634e487b7102600052603260045260246000fd5b9060005260206000209060090201600701546012600186611bfa919061409a565b81548110611c1b5760e060020a634e487b7102600052603260045260246000fd5b90600052602060002090600902016008015461152d565b60155460105460405160e060020a6323b872dd028152929350600160a060020a03918216926323b872dd92611c70928992911690869060040161360d565b602060405180830381600087803b158015611c8a57600080fd5b505af1158015611c9e573d6000803e3d6000fd5b505050506040513d601f19601f82011682018060405250810190611cc291906133ca565b506012611cd060018561409a565b81548110611cf15760e060020a634e487b7102600052603260045260246000fd5b600091825260208220600860099092020101805491611d0f8361411b565b919050555050505050565b6000806012611d2a60018561409a565b81548110611d4b5760e060020a634e487b7102600052603260045260246000fd5b906000526020600020906009020160405180610120016040529081600082018054611d75906140dd565b80601f0160208091040260200160405190810160405280929190818152602001828054611da1906140dd565b8015611dee5780601f10611dc357610100808354040283529160200191611dee565b820191906000526020600020905b815481529060010190602001808311611dd157829003601f168201915b5050505050815260200160018201548152602001600282015481526020016003820154815260200160048201548152602001600582015481526020016006820154815260200160078201548152602001600882015481525050905082816020015114611e6f5760405160e560020a62461bcd02815260040161088c90613e05565b611e7883611460565b600160a060020a031684600160a060020a031614611eab5760405160e560020a62461bcd02815260040161088c90613c25565b60008160a001518260800151611ec1919061409a565b90506000611ed38360e001518361144d565b6016546040517f70a082310000000000000000000000000000000000000000000000000000000081529192508291600160a060020a03909116906370a0823190611f21908a906004016135f9565b60206040518083038186803b158015611f3957600080fd5b505afa158015611f4d573d6000803e3d6000fd5b505050506040513d601f19601f82011682018060405250810190611f71919061347c565b1015611f925760405160e560020a62461bcd02815260040161088c90613bb9565b60165460105460405160e060020a6323b872dd028152600160a060020a03928316926323b872dd92611fce928b9290911690869060040161360d565b602060405180830381600087803b158015611fe857600080fd5b505af1158015611ffc573d6000803e3d6000fd5b505050506040513d601f19601f8201168201806040525081019061202091906133ca565b50601261202e60018761409a565b8154811061204f5760e060020a634e487b7102600052603260045260246000fd5b9060005260206000209060090201600401546012600187612070919061409a565b815481106120915760e060020a634e487b7102600052603260045260246000fd5b600091825260209091206005600990920201015550600195945050505050565b6000804342846040516020016120c791906134e1565b60408051601f1981840301815291905280516020909101206120e99190613f4e565b4542600b6040516020016120fd919061352c565b60408051601f19818403018152919052805160209091012061211f9190613f4e565b6121294442613f36565b6121339190613f36565b61213d9190613f36565b6121479190613f36565b6121519190613f36565b60405160200161216191906135ca565b60408051808303601f190181529190528051602090910120600c8190559392505050565b60135481565b6000612195612947565b905061178782826129e9565b600160a060020a03918216600090815260056020908152604080832093909416825291909152205460ff1690565b6121d7612432565b600160a060020a03166121e861169f565b600160a060020a0316146122115760405160e560020a62461bcd02815260040161088c90613cb9565b600160a060020a03811661223a5760405160e560020a62461bcd02815260040161088c906138e6565b61224381612686565b50565b61224e612432565b600160a060020a031661225f61169f565b600160a060020a0316146122885760405160e560020a62461bcd02815260040161088c90613cb9565b600081601261229860018661409a565b815481106122b95760e060020a634e487b7102600052603260045260246000fd5b9060005260206000209060090201600501546122d5919061409a565b10156122f65760405160e560020a62461bcd02815260040161088c906137be565b80612345576000601261230a60018561409a565b8154811061232b5760e060020a634e487b7102600052603260045260246000fd5b906000526020600020906009020160050181905550611787565b80601261235360018561409a565b815481106123745760e060020a634e487b7102600052603260045260246000fd5b906000526020600020906009020160050154612390919061409a565b601261239d60018561409a565b815481106123be5760e060020a634e487b7102600052603260045260246000fd5b9060005260206000209060090201600501819055505050565b6000600160e060020a031982167f780e9d630000000000000000000000000000000000000000000000000000000014806107c857506107c882612b44565b600090815260026020526040902054600160a060020a0316151590565b3390565b6000818152600460205260409020805473ffffffffffffffffffffffffffffffffffffffff1916600160a060020a038416908117909155819061247882611460565b600160a060020a03167f8c5be1e5ebec7d5bd14f71427d1e84f3dd0314c0f7b2291e5b200ac8c7c3b92560405160405180910390a45050565b60006124bc82612415565b6124db5760405160e560020a62461bcd02815260040161088c90613a45565b60006124e683611460565b905080600160a060020a031684600160a060020a03161480612521575083600160a060020a031661251684610862565b600160a060020a0316145b80612531575061253181856121a1565b949350505050565b82600160a060020a031661254c82611460565b600160a060020a0316146125755760405160e560020a62461bcd02815260040161088c90613cee565b600160a060020a03821661259e5760405160e560020a62461bcd02815260040161088c906139b1565b6125a9838383612bb6565b6125b4600082612436565b600160a060020a03831660009081526003602052604081208054600192906125dd90849061409a565b9091555050600160a060020a038216600090815260036020526040812080546001929061260b908490613f36565b9091555050600081815260026020526040808220805473ffffffffffffffffffffffffffffffffffffffff1916600160a060020a0386811691821790925591518493918716917fddf252ad1be2c89b69c2b068fc378daa952ba7f163c4a11628f55a4df523b3ef91a4505050565b60006107c882600a61407b565b600a8054600160a060020a0383811673ffffffffffffffffffffffffffffffffffffffff19831681179093556040519116919082907f8be0079c531659141344cd1fd0a4f28419497f9722a3daafe3b4186f6b6457e090600090a35050565b81600160a060020a031683600160a060020a0316141561271a5760405160e560020a62461bcd02815260040161088c90613a0e565b600160a060020a0383811660008181526005602090815260408083209487168084529490915290819020805460ff1916851515179055517f17307eab39ab6107e8899845ad3d59bd9653f200f220920489ca2b5937696c319061277e908590613729565b60405180910390a3505050565b612796848484612539565b6127a284848484612bc1565b6117e65760405160e560020a62461bcd02815260040161088c90613889565b60408051602081019091526000815290565b606081612814575060408051808201909152600181527f300000000000000000000000000000000000000000000000000000000000000060208201526107cb565b8160005b811561283e57806128288161411b565b91506128379050600a83613f4e565b9150612818565b60008167ffffffffffffffff81111561286a5760e060020a634e487b7102600052604160045260246000fd5b6040519080825280601f01601f191660200182016040528015612894576020820181803683370190505b5090505b8415612531576128a960018361409a565b91506128b6600a86614136565b6128c1906030613f36565b7f0100000000000000000000000000000000000000000000000000000000000000028183815181106129065760e060020a634e487b7102600052603260045260246000fd5b60200101907effffffffffffffffffffffffffffffffffffffffffffffffffffffffffffff1916908160001a905350612940600a86613f4e565b9450612898565b6000806064600d541015612959575060005b6063600d5411801561296e57506103e8600d54105b15612977575060015b6103e7600d5411801561298d5750612710600d54105b15612996575060025b61270f600d541180156129ac5750614e20600d54105b156129b5575060035b614e1f600d541180156129cb575061c350600d54105b156129d4575060045b61c34f600d5411156129e4575060055b905090565b60006129f560a0612d14565b6040805161012081018252858152600d546020808301919091529181018390526060810185905260646080820181905260a0820152600a60c0820152600160e082018190526101008201819052601280549182018155600052815180519495509193849360099092027fbb8a6a4669ba250d26cd7a459eca9d215f8307e33aebe50379bc5a3617ec34440192612a8f928492910190613158565b506020820151816001015560408201518160020155606082015181600301556080820151816004015560a0820151816005015560c0820151816006015560e0820151816007015561010082015181600801555050612aef33600d54612d4e565b33600160a060020a03167ff16512f8236ad4018d34648c393cf8c58e46280a820faffe7cb3d23796958000600d5484604051612b2c929190613f1c565b60405180910390a2600d8054906000611d0f8361411b565b6000600160e060020a031982167f80ac58cd000000000000000000000000000000000000000000000000000000001480612ba75750600160e060020a031982167f5b5e139f00000000000000000000000000000000000000000000000000000000145b806107c857506107c882612d68565b61094a838383612d9a565b6000612bd584600160a060020a0316612e23565b15612d095783600160a060020a031663150b7a02612bf1612432565b8786866040518563ffffffff167c0100000000000000000000000000000000000000000000000000000000028152600401612c2f9493929190613631565b602060405180830381600087803b158015612c4957600080fd5b505af1925050508015612c79575060408051601f3d908101601f19168201909252612c7691810190613402565b60015b612cd6573d808015612ca7576040519150601f19603f3d011682016040523d82523d6000602084013e612cac565b606091505b508051612cce5760405160e560020a62461bcd02815260040161088c90613889565b805181602001fd5b600160e060020a0319167f150b7a0200000000000000000000000000000000000000000000000000000000149050612531565b506001949350505050565b6000804233604051602001612d2a9291906135d3565b60408051601f19818403018152919052805160209091012090506114598382614136565b611787828260405180602001604052806000815250612e29565b600160e060020a031981167f01ffc9a70000000000000000000000000000000000000000000000000000000014919050565b612da583838361094a565b600160a060020a038316612dc157612dbc81612e5f565b612de4565b81600160a060020a031683600160a060020a031614612de457612de48382612ea3565b600160a060020a038216612e0057612dfb81612f40565b61094a565b82600160a060020a031682600160a060020a03161461094a5761094a8282613022565b3b151590565b612e338383613066565b612e406000848484612bc1565b61094a5760405160e560020a62461bcd02815260040161088c90613889565b600880546000838152600960205260408120829055600182018355919091527ff3f7a9fe364faab93b216da50a3214154f22a0a2b415b23a84c8169e8b636ee30155565b60006001612eb084611498565b612eba919061409a565b600083815260076020526040902054909150808214612f0d57600160a060020a03841660009081526006602090815260408083208584528252808320548484528184208190558352600790915290208190555b506000918252600760209081526040808420849055600160a060020a039094168352600681528383209183525290812055565b600854600090612f529060019061409a565b60008381526009602052604081205460088054939450909284908110612f8b5760e060020a634e487b7102600052603260045260246000fd5b906000526020600020015490508060088381548110612fbd5760e060020a634e487b7102600052603260045260246000fd5b60009182526020808320909101929092558281526009909152604080822084905585825281205560088054806130065760e060020a634e487b7102600052603160045260246000fd5b6001900381819060005260206000200160009055905550505050565b600061302d83611498565b600160a060020a039093166000908152600660209081526040808320868452825280832085905593825260079052919091209190915550565b600160a060020a03821661308f5760405160e560020a62461bcd02815260040161088c90613bf0565b61309881612415565b156130b85760405160e560020a62461bcd02815260040161088c90613943565b6130c460008383612bb6565b600160a060020a03821660009081526003602052604081208054600192906130ed908490613f36565b9091555050600081815260026020526040808220805473ffffffffffffffffffffffffffffffffffffffff1916600160a060020a03861690811790915590518392907fddf252ad1be2c89b69c2b068fc378daa952ba7f163c4a11628f55a4df523b3ef908290a45050565b828054613164906140dd565b90600052602060002090601f01602090048101928261318657600085556131cc565b82601f1061319f57805160ff19168380011785556131cc565b828001600101855582156131cc579182015b828111156131cc5782518255916020019190600101906131b1565b506131d89291506131dc565b5090565b5b808211156131d857600081556001016131dd565b600067ffffffffffffffff8084111561320c5761320c61417c565b604051601f8501601f1916810160200182811182821017156132305761323061417c565b60405284815291508183850186101561324857600080fd5b8484602083013760006020868301015250509392505050565b600060208284031215613272578081fd5b813561145981614195565b6000806040838503121561328f578081fd5b823561329a81614195565b915060208301356132aa81614195565b809150509250929050565b6000806000606084860312156132c9578081fd5b83356132d481614195565b925060208401356132e481614195565b929592945050506040919091013590565b6000806000806080858703121561330a578081fd5b843561331581614195565b9350602085013561332581614195565b925060408501359150606085013567ffffffffffffffff811115613347578182fd5b8501601f81018713613357578182fd5b613366878235602084016131f1565b91505092959194509250565b60008060408385031215613384578182fd5b823561338f81614195565b915060208301356132aa816141aa565b600080604083850312156133b1578182fd5b82356133bc81614195565b946020939093013593505050565b6000602082840312156133db578081fd5b8151611459816141aa565b6000602082840312156133f7578081fd5b8135611459816141b8565b600060208284031215613413578081fd5b8151611459816141b8565b60006020828403121561342f578081fd5b813567ffffffffffffffff811115613445578182fd5b8201601f81018413613455578182fd5b612531848235602084016131f1565b600060208284031215613475578081fd5b5035919050565b60006020828403121561348d578081fd5b5051919050565b600080604083850312156134a6578182fd5b50508035926020909101359150565b600081518084526134cd8160208601602086016140b1565b601f01601f19169290920160200192915050565b600082516134f38184602087016140b1565b9190910192915050565b6000835161350f8184602088016140b1565b8351908301906135238183602088016140b1565b01949350505050565b815460009081906002810460018083168061354857607f831692505b602080841082141561356b5760e060020a634e487b710287526022600452602487fd5b81801561357f5760018114613590576135bc565b60ff198616895284890196506135bc565b6135998a613f2a565b885b868110156135b45781548b82015290850190830161359b565b505084890196505b509498975050505050505050565b90815260200190565b918252600160a060020a03166c0100000000000000000000000002602082015260340190565b600160a060020a0391909116815260200190565b600160a060020a039384168152919092166020820152604081019190915260600190565b6000600160a060020a0380871683528086166020840152508360408301526080606083015261366360808301846134b5565b9695505050505050565b60208082528251828201819052600091906040908185019080840286018301878501865b8381101561371b57603f19898403018552815161012081518186526136b8828701826134b5565b838b0151878c0152898401518a880152606080850151908801526080808501519088015260a0808501519088015260c0808501519088015260e0808501519088015261010093840151939096019290925250509386019390860190600101613691565b509098975050505050505050565b901515815260200190565b600160a060020a0393841681529183166020830152909116604082015260600190565b60006020825261145960208301846134b5565b600061012080835261377e8184018d6134b5565b602084019b909b52505060408101979097526060870195909552608086019390935260a085019190915260c084015260e083015261010090910152919050565b6020808252601a908201527f6572726f7220656e206469736d696e75697220656e6572676961000000000000604082015260600190565b60208082526019908201527f5961207469656e6573206d6178696d6f20646520737461727300000000000000604082015260600190565b6020808252602b908201527f455243373231456e756d657261626c653a206f776e657220696e646578206f7560408201527f74206f6620626f756e6473000000000000000000000000000000000000000000606082015260800190565b60208082526032908201527f4552433732313a207472616e7366657220746f206e6f6e20455243373231526560408201527f63656976657220696d706c656d656e7465720000000000000000000000000000606082015260800190565b60208082526026908201527f4f776e61626c653a206e6577206f776e657220697320746865207a65726f206160408201527f6464726573730000000000000000000000000000000000000000000000000000606082015260800190565b6020808252601c908201527f4552433732313a20746f6b656e20616c7265616479206d696e74656400000000604082015260600190565b6020808252601b908201527f4e6f207469656e6520666f6e646f7320737566696369656e7465730000000000604082015260600190565b60208082526024908201527f4552433732313a207472616e7366657220746f20746865207a65726f2061646460408201527f7265737300000000000000000000000000000000000000000000000000000000606082015260800190565b60208082526019908201527f4552433732313a20617070726f766520746f2063616c6c657200000000000000604082015260600190565b6020808252602c908201527f4552433732313a206f70657261746f7220717565727920666f72206e6f6e657860408201527f697374656e7420746f6b656e0000000000000000000000000000000000000000606082015260800190565b60208082526038908201527f4552433732313a20617070726f76652063616c6c6572206973206e6f74206f7760408201527f6e6572206e6f7220617070726f76656420666f7220616c6c0000000000000000606082015260800190565b6020808252602a908201527f4552433732313a2062616c616e636520717565727920666f7220746865207a6560408201527f726f206164647265737300000000000000000000000000000000000000000000606082015260800190565b60208082526029908201527f4552433732313a206f776e657220717565727920666f72206e6f6e657869737460408201527f656e7420746f6b656e0000000000000000000000000000000000000000000000606082015260800190565b6020808252601b908201527f6e6f207469656e6520666f6e646f7320737566696369656e7465730000000000604082015260600190565b6020808252818101527f4552433732313a206d696e7420746f20746865207a65726f2061646472657373604082015260600190565b6020808252601d908201527f517569656e206c6c616d61206e6f207469656e652065737465206e6674000000604082015260600190565b6020808252602c908201527f4552433732313a20617070726f76656420717565727920666f72206e6f6e657860408201527f697374656e7420746f6b656e0000000000000000000000000000000000000000606082015260800190565b6020808252818101527f4f776e61626c653a2063616c6c6572206973206e6f7420746865206f776e6572604082015260600190565b60208082526029908201527f4552433732313a207472616e73666572206f6620746f6b656e2074686174206960408201527f73206e6f74206f776e0000000000000000000000000000000000000000000000606082015260800190565b6020808252602f908201527f4552433732314d657461646174613a2055524920717565727920666f72206e6f60408201527f6e6578697374656e7420746f6b656e0000000000000000000000000000000000606082015260800190565b60208082526021908201527f4552433732313a20617070726f76616c20746f2063757272656e74206f776e6560408201527f7200000000000000000000000000000000000000000000000000000000000000606082015260800190565b60208082526032908201527f6572726f726520616c20656e636f6e7472617220656c206e667420696e67726560408201527f7361646f20706f7220706172616d6574726f0000000000000000000000000000606082015260800190565b60208082526031908201527f4552433732313a207472616e736665722063616c6c6572206973206e6f74206f60408201527f776e6572206e6f7220617070726f766564000000000000000000000000000000606082015260800190565b6020808252602c908201527f455243373231456e756d657261626c653a20676c6f62616c20696e646578206f60408201527f7574206f6620626f756e64730000000000000000000000000000000000000000606082015260800190565b918252602082015260400190565b60009081526020902090565b60008219821115613f4957613f4961414a565b500190565b600082613f5d57613f5d614163565b500490565b80825b6001808611613f745750613fa1565b818704821115613f8657613f8661414a565b80861615613f9357918102915b506002909404938002613f65565b94509492505050565b600061145960001960ff851684600082613fc657506001611459565b81613fd357506000611459565b8160018114613fe95760028114613ff357614020565b6001915050611459565b60ff8411156140045761400461414a565b8360020a91508482111561401a5761401a61414a565b50611459565b5060208310610133831016604e8410600b8410161715614053575081810a8381111561404e5761404e61414a565b611459565b6140608484846001613f62565b8086048211156140725761407261414a565b02949350505050565b60008160001904831182151516156140955761409561414a565b500290565b6000828210156140ac576140ac61414a565b500390565b60005b838110156140cc5781810151838201526020016140b4565b838111156117e65750506000910152565b6002810460018216806140f157607f821691505b602082108114156141155760e060020a634e487b7102600052602260045260246000fd5b50919050565b600060001982141561412f5761412f61414a565b5060010190565b60008261414557614145614163565b500690565b60e060020a634e487b7102600052601160045260246000fd5b60e060020a634e487b7102600052601260045260246000fd5b60e060020a634e487b7102600052604160045260246000fd5b600160a060020a038116811461224357600080fd5b801515811461224357600080fd5b600160e060020a03198116811461224357600080fdfea2646970667358221220f2efc61e26967526ce17c80aec6bd163dcaa182c8c5311b1ac952326740a3a4a64736f6c63430008000033",
  "immutableReferences": {},
  "source": "// SPDX-License-Identifier: GPL-3.0\r\n\r\npragma solidity >=0.7.0 <0.9.0;\r\n\r\nimport \"@openzeppelin/contracts/token/ERC721/ERC721.sol\";\r\nimport \"@openzeppelin/contracts/token/ERC721/extensions/ERC721Enumerable.sol\"; \r\nimport \"@openzeppelin/contracts/access/Ownable.sol\";\r\nimport \"@openzeppelin/contracts/token/ERC20/ERC20.sol\";\r\nimport \"@openzeppelin/contracts/token/ERC20/utils/SafeERC20.sol\";\r\nimport \"./Random.sol\";\r\n\r\n\r\n//import \"@openzeppelin/contracts/token/ERC20/ERC20.sol\";\r\n\r\ncontract Herreria is  ERC721, ERC721Enumerable, Ownable, Random{\r\n\r\n    //using SafeERC20 for IERC20;\r\n    uint256 COUNTER = 1;\r\n    uint256 fee = 1 ether;\r\n    uint256 costMint = 50 ether; \r\n    address feeWallet;\r\n    IERC20 buyTokenMinter;//Address del token que paga el user por hacer mint\r\n    \r\n\r\n    struct smithy{\r\n        string name; //delete this var\r\n        uint256 id; //\r\n        uint256 dna; //delete this var\r\n        uint256 serie; \r\n        uint256 maxEnergy; // Energia maxima del nft, se puede mejorar.\r\n        uint256 actEnergy; // Energia acutal del nft, se puede recargar a maxEnergy.\r\n        uint256 efficiency; // Esta var es para mantener la produccion del staking.\r\n        uint256 level;\r\n        uint256 stars; // This var is for more chance to upgrade your level\r\n        \r\n    }\r\n    //Info of token need to update stats.\r\n    struct smithyTokenInfo{\r\n        IERC20 levelUPToken; //Addres to level up smithy\r\n        IERC20 starsUpToken; //Address to stars up smithy\r\n        IERC20 energyRecharge; //Address to energy recharge   \r\n        // efficincy token      \r\n    }\r\n\r\n    smithy[] public smithys;\r\n    uint256 public smithyLenght;\r\n    smithyTokenInfo public tokensUpgrade; // Info of token need to update stats.\r\n\r\n    constructor(\r\n        //string memory _name, \r\n        //string memory _symbol,\r\n        //address _feeWallet,\r\n        //IERC20 _levelUPToken,\r\n        //IERC20 _starsUpToken,\r\n        //IERC20 _energyRecharge,\r\n        //IERC20 _buyTokenMinter\r\n    )ERC721(\"SMITHY\",\"SMTY\")\r\n    {\r\n        //setUp tokens needs\r\n        //feeWallet = _feeWallet;\r\n        //tokensUpgrade.levelUPToken = _levelUPToken;\r\n        //tokensUpgrade.starsUpToken = _starsUpToken;\r\n        //tokensUpgrade.energyRecharge = _energyRecharge;\r\n        //buyTokenMinter = _buyTokenMinter;\r\n        //eficiency token\r\n    }\r\n\r\n    event NewSmithy ( address indexed owner, uint256 id, uint256 dna);\r\n    event levelUp (uint256 id, uint lvl);\r\n\r\n    //Helpers\r\n    //FUNCTION TU SETTER TOKENS.\r\n        \r\n    \r\n    function _createRandomNum(uint256 _mod) internal view returns(uint256){\r\n        uint randomNum = uint256(keccak256(abi.encodePacked(block.timestamp, msg.sender)));\r\n        return randomNum % _mod;\r\n    }\r\n\r\n    //regresa el numero de serie 0-5 (no escalable :/).\r\n    function _getSerie() internal view returns(uint256){\r\n        uint256 s;\r\n        if(COUNTER < 100) {\r\n            s = 0;\r\n        }\r\n        if((COUNTER > 99) && (COUNTER < 1000)) {\r\n            s = 1;\r\n        }\r\n        if((COUNTER > 999) && (COUNTER < 10000)) {\r\n            s = 2;\r\n        }\r\n        if((COUNTER > 9999) && (COUNTER < 20000)) {\r\n            s = 3;\r\n        }\r\n        if((COUNTER > 19999) && (COUNTER < 50000)) {\r\n            s = 4;\r\n        }\r\n        if(COUNTER > 49999) {\r\n            s = 5;\r\n        }\r\n\r\n        return s;\r\n    }\r\n\r\n    function updateFee(uint256 _fee) external onlyOwner() {\r\n        fee = _fee;\r\n    }\r\n    \r\n    //creation\r\n    function _createSmithy(string memory _name, uint256 _serie) internal {\r\n        uint256 randDna =  _createRandomNum(10*16);\r\n        smithy memory newSmithy = smithy (_name, COUNTER, randDna, _serie, 100, 100, 10, 1, 1);\r\n        smithys.push(newSmithy);\r\n        _safeMint(msg.sender, COUNTER);        //erc721 standar func\r\n        emit NewSmithy(msg.sender, COUNTER, randDna);\r\n        COUNTER++;\r\n    }\r\n    \r\n    function createRandomSmithy (string memory _name) public payable {        \r\n        //require(buyTokenMinter.balanceOf(msg.sender) >= costMint, \"not founds for this buy\" );\r\n        //buyTokenMinter.transferFrom(address(msg.sender), address(feeWallet), costMint);\r\n        uint256 serie = _getSerie();\r\n        _createSmithy(_name, serie);\r\n    }\r\n\r\n    //---------GETTERS --------------- \r\n    function getSmithy() public  view returns(smithy[] memory){\r\n        return smithys;\r\n    }\r\n    function getActEnergyByID(uint _id) public  view returns(uint256){\r\n        require(smithys[_id-1].id == _id);\r\n        return smithys[_id-1].actEnergy;\r\n    }\r\n\r\n    /* Creaar funciones getter para obtener la energia y obtener el \"poder de minado\" .*/\r\n\r\n    \r\n    //------------------ SETTERS ---------\r\n    //fee to go tokens of CreateRandomSmithy function\r\n    function setFeeWallet(address _newFeeWallet)public onlyOwner{\r\n        feeWallet = _newFeeWallet;\r\n    }\r\n    function setCostMintNFT(uint _newCostMint) public onlyOwner {\r\n        costMint = _newCostMint;        \r\n    }    \r\n    function setTokenMinter(IERC20 _buyTokenMinter)public onlyOwner{\r\n        buyTokenMinter = _buyTokenMinter;\r\n    }\r\n\r\n    //--------------------FUNCTIONS TO UPDATE SMITHY STATS.---------------------------\r\n    //---- smithys.level  functions\r\n\r\n    //upgrade level\r\n    function upgradeLevel(address _user,uint _id) public returns(bool){\r\n        smithy memory _smiti = smithys[_id-1];\r\n        require(_smiti.id == _id, \"errore al encontrar el nft ingresado por parametro\");\r\n        require(_user == ownerOf(_id), \"Quien llama no tiene este nft\" );\r\n        uint cost = costLevelUp(smithys[_id-1].level);\r\n        require(tokensUpgrade.levelUPToken.balanceOf(_user) >= cost, \"No tiene fondos suficientes\");\r\n        //agregar prov de fallo.\r\n        uint probUpgrade = (_smiti.level*5)-(_smiti.level*5)*((_smiti.stars*20)/100);\r\n        if(probUpgrade > randrange(1,100)){// cuidado, siempre false, modificar 10 por random (0-100)\r\n            tokensUpgrade.levelUPToken.transferFrom(_user, address(feeWallet), cost);\r\n            smithys[_id-1].level++;\r\n            smithys[_id-1].actEnergy = smithys[_id-1].maxEnergy;\r\n            smithys[_id-1].stars = 0;\r\n            smithys[_id-1].efficiency = getEfficiencyPerLvl(smithys[_id-1].level);            \r\n            emit levelUp(_id,smithys[_id-1].level);\r\n        return true;        \r\n        }\r\n        return false;    \r\n    }\r\n    //Tokens que se requieren para subir 1 nivel\r\n    function costLevelUp(uint256 _level) public pure returns(uint256){\r\n        return 1*_level+_level**6;\r\n    }\r\n\r\n\r\n    //---- smithy.energy functions ----\r\n\r\n    //Recharge energy\r\n    function rechargeEnergy(address _user,uint _id) public returns(bool){\r\n        smithy memory _smiti = smithys[_id-1];\r\n        require(_smiti.id == _id, \"errore al encontrar el nft ingresado por parametro\");\r\n        require(_user == ownerOf(_id), \"Quien llama no tiene este nft\" );\r\n        uint difOfEnergy =  _smiti.maxEnergy- _smiti.actEnergy;\r\n        uint cost= costOfRechargeEnergy(_smiti.level, difOfEnergy);\r\n        require(tokensUpgrade.energyRecharge.balanceOf(_user) >= cost, \"no tiene fondos suficientes\");\r\n        tokensUpgrade.energyRecharge.transferFrom(_user, address(feeWallet), cost); //$gems\r\n        smithys[_id-1].actEnergy = smithys[_id-1].maxEnergy; \r\n        return true;\r\n    }\r\n    //Aumenta la estadistica de energia maxima\r\n    function upgradeEnergy(address _user,uint _id)public {\r\n        smithy memory _smiti = smithys[_id-1];\r\n        require(_smiti.id == _id, \"errore al encontrar el nft ingresado por parametro\");\r\n        require(_user == ownerOf(_id), \"Quien llama no tiene este nft\" );\r\n        uint cost = costOfUpgradeEnergy();\r\n        tokensUpgrade.levelUPToken.transferFrom(_user, address(feeWallet), cost);// $wood o $gold\r\n        smithys[_id-1].maxEnergy +=10;\r\n\r\n        //emit \r\n    }\r\n    //Reducir Energia, usada por el stake.\r\n    //-----------------------------------Modificar onlyOwner a onlyStake.\r\n    function redEnergy(uint _id, uint _value) external onlyOwner{\r\n        require(smithys[_id-1].actEnergy - _value >= 0, \"error en disminuir energia\");\r\n        if(_value == 0){\r\n            smithys[_id-1].actEnergy = 0;\r\n        }else{\r\n            smithys[_id-1].actEnergy = smithys[_id-1].actEnergy - _value;\r\n        }\r\n    }\r\n    \r\n    //Cantidad de tokens que se requiere para RECARGAR energia\r\n    function costOfRechargeEnergy(uint _level, uint _DifEnergy) public pure returns(uint256){\r\n        return _DifEnergy+_level; //editar cuando se tengan numeros de produccion / dia.\r\n    }\r\n    //Cantidad de tokens que requiere MEJORAR la energia.\r\n    function costOfUpgradeEnergy() public pure returns(uint256) {\r\n        return 6;//editar cuando se tengan numeros de produccion / dia.\r\n    }\r\n    \r\n\r\n    //---- smithy.stars functions ----\r\n    /** \r\n     * Strellas: Variable de 0 - 5, se usa para medir la probabilidad de fallo al mejorar o reparar\r\n     * (5 estrellas = 0% de fallo).  Si se mejora herrera, la variable regresa a 0. se usa $Gems para mejorar\r\n     */\r\n    function upgradeStars(address _user,uint _id)public {\r\n        smithy memory _smiti = smithys[_id-1];\r\n        require(_smiti.id == _id, \"errore al encontrar el nft ingresado por parametro\");\r\n        require(_user == ownerOf(_id), \"Quien llama no tiene este nft\" );\r\n        require(smithys[_id-1].stars <= 5, \"Ya tienes maximo de stars\");\r\n        uint cost =costOfUpgradeStars(smithys[_id-1].level, smithys[_id-1].stars);\r\n        tokensUpgrade.starsUpToken.transferFrom(_user, address(feeWallet), cost);\r\n        smithys[_id-1].stars++;\r\n    }\r\n    //costo para mejorar las stars\r\n    function costOfUpgradeStars(uint _level, uint _stars) public pure returns(uint){\r\n        return (_level+_stars)*2; //editar cuando se tenga economics\r\n    }\r\n\r\n    // --------- smithy.eficciency ----\r\n    /**\r\n     * Afecta a la durabilidad de las hachas, desbloquea reparaciones,\r\n     * disminulle en cada interaccion. \r\n    */\r\n    /*\r\n    function rechargeEfficiency(address _user, uint _id) public returns(uint){\r\n        smithy memory _smiti = smithys[_id-1];\r\n        require(_smiti.id == _id, \"errore al encontrar el nft ingresado por parametro\");\r\n        require(_user == ownerOf(_id), \"Quien llama no tiene este nft\" );\r\n        \r\n        uint cost= costOfRechargeEnergy(_smiti.level, difOfEnergy);\r\n        require(tokensUpgrade.energyRecharge.balanceOf(_user) >= cost, \"no tiene fondos suficientes\");\r\n        tokensUpgrade.energyRecharge.transferFrom(_user, address(feeWallet), cost); //$gems\r\n    }\r\n    */\r\n    //retorna el valor que debe tener maximo de eficiencia.\r\n    function getEfficiencyPerLvl(uint _level) internal pure returns(uint) {\r\n        return _level*10;\r\n    }    \r\n    /*/todo :\r\n    * getters para todos los campos del struc smithy.\r\n    */\r\n    // funciones para evitar conflictos erc721 standar con erc721enumerable standar.\r\n    function _beforeTokenTransfer(address from, address to, uint256 tokenId)\r\n        internal\r\n        override(ERC721, ERC721Enumerable)\r\n    {\r\n        super._beforeTokenTransfer(from, to, tokenId);\r\n    }\r\n\r\n    function supportsInterface(bytes4 interfaceId)\r\n        public\r\n        view\r\n        override(ERC721, ERC721Enumerable)\r\n        returns (bool)\r\n    {\r\n        return super.supportsInterface(interfaceId);\r\n    }\r\n\r\n}\r\n",
  "sourcePath": "C:\\Escritorio\\Estudio\\FaucetProyect\\contracts\\nfts\\Herreria.sol",
  "compiler": {
    "name": "solc",
    "version": "0.8.0+commit.c7dfd78e.Emscripten.clang"
  },
  "schemaVersion": "3.4.3",
  "updatedAt": "2022-01-11T21:55:00.715Z",
  "devdoc": {
    "kind": "dev",
    "methods": {
      "approve(address,uint256)": {
        "details": "See {IERC721-approve}."
      },
      "balanceOf(address)": {
        "details": "See {IERC721-balanceOf}."
      },
      "getApproved(uint256)": {
        "details": "See {IERC721-getApproved}."
      },
      "isApprovedForAll(address,address)": {
        "details": "See {IERC721-isApprovedForAll}."
      },
      "name()": {
        "details": "See {IERC721Metadata-name}."
      },
      "owner()": {
        "details": "Returns the address of the current owner."
      },
      "ownerOf(uint256)": {
        "details": "See {IERC721-ownerOf}."
      },
      "randrange(uint256,uint256)": {
        "details": "Generate random uint in range [a, b]",
        "returns": {
          "_0": "uint"
        }
      },
      "renounceOwnership()": {
        "details": "Leaves the contract without owner. It will not be possible to call `onlyOwner` functions anymore. Can only be called by the current owner. NOTE: Renouncing ownership will leave the contract without an owner, thereby removing any functionality that is only available to the owner."
      },
      "safeTransferFrom(address,address,uint256)": {
        "details": "See {IERC721-safeTransferFrom}."
      },
      "safeTransferFrom(address,address,uint256,bytes)": {
        "details": "See {IERC721-safeTransferFrom}."
      },
      "setApprovalForAll(address,bool)": {
        "details": "See {IERC721-setApprovalForAll}."
      },
      "symbol()": {
        "details": "See {IERC721Metadata-symbol}."
      },
      "tokenByIndex(uint256)": {
        "details": "See {IERC721Enumerable-tokenByIndex}."
      },
      "tokenOfOwnerByIndex(address,uint256)": {
        "details": "See {IERC721Enumerable-tokenOfOwnerByIndex}."
      },
      "tokenURI(uint256)": {
        "details": "See {IERC721Metadata-tokenURI}."
      },
      "totalSupply()": {
        "details": "See {IERC721Enumerable-totalSupply}."
      },
      "transferFrom(address,address,uint256)": {
        "details": "See {IERC721-transferFrom}."
      },
      "transferOwnership(address)": {
        "details": "Transfers ownership of the contract to a new account (`newOwner`). Can only be called by the current owner."
      }
    },
    "version": 1
  },
  "userdoc": {
    "kind": "user",
    "methods": {
      "upgradeStars(address,uint256)": {
        "notice": "Strellas: Variable de 0 - 5, se usa para medir la probabilidad de fallo al mejorar o reparar (5 estrellas = 0% de fallo).  Si se mejora herrera, la variable regresa a 0. se usa $Gems para mejorar"
      }
    },
    "version": 1
  }
}