{
  "contractName": "Migrations",
  "abi": [
    {
      "inputs": [],
      "name": "last_completed_migration",
      "outputs": [
        {
          "internalType": "uint256",
          "name": "",
          "type": "uint256"
        }
      ],
      "stateMutability": "view",
      "type": "function",
      "constant": true
    },
    {
      "inputs": [],
      "name": "owner",
      "outputs": [
        {
          "internalType": "address",
          "name": "",
          "type": "address"
        }
      ],
      "stateMutability": "view",
      "type": "function",
      "constant": true
    },
    {
      "inputs": [
        {
          "internalType": "uint256",
          "name": "completed",
          "type": "uint256"
        }
      ],
      "name": "setCompleted",
      "outputs": [],
      "stateMutability": "nonpayable",
      "type": "function"
    }
  ],
  "bytecode": "0x608060405260008054600160a060020a0319163317905534801561002257600080fd5b50610200806100326000396000f3fe608060405234801561001057600080fd5b506004361061005d577c01000000000000000000000000000000000000000000000000000000006000350463445df0ac81146100625780638da5cb5b14610080578063fdacd57614610095575b600080fd5b61006a6100aa565b60405161007791906101c1565b60405180910390f35b6100886100b0565b6040516100779190610143565b6100a86100a336600461012b565b6100cc565b005b60015481565b60005473ffffffffffffffffffffffffffffffffffffffff1681565b60005473ffffffffffffffffffffffffffffffffffffffff163314610126576040517f08c379a000000000000000000000000000000000000000000000000000000000815260040161011d90610164565b60405180910390fd5b600155565b60006020828403121561013c578081fd5b5035919050565b73ffffffffffffffffffffffffffffffffffffffff91909116815260200190565b60208082526033908201527f546869732066756e6374696f6e206973207265737472696374656420746f207460408201527f686520636f6e74726163742773206f776e657200000000000000000000000000606082015260800190565b9081526020019056fea2646970667358221220d810025969321ebe2c4f4bfe4a5844964845cac2851a07890bf7a4e943284b9264736f6c63430008000033",
  "immutableReferences": {},
  "source": "// SPDX-License-Identifier: MIT\r\npragma solidity >=0.4.22 <0.9.0;\r\n\r\ncontract Migrations {\r\n  address public owner = msg.sender;\r\n  uint public last_completed_migration;\r\n\r\n  modifier restricted() {\r\n    require(\r\n      msg.sender == owner,\r\n      \"This function is restricted to the contract's owner\"\r\n    );\r\n    _;\r\n  }\r\n\r\n  function setCompleted(uint completed) public restricted {\r\n    last_completed_migration = completed;\r\n  }\r\n}\r\n",
  "sourcePath": "C:\\Escritorio\\Estudio\\FaucetProyect\\contracts\\Migrations.sol",
  "compiler": {
    "name": "solc",
    "version": "0.8.0+commit.c7dfd78e.Emscripten.clang"
  },
  "schemaVersion": "3.4.3",
  "updatedAt": "2022-01-15T21:17:56.435Z",
  "networkType": "ethereum",
  "devdoc": {
    "kind": "dev",
    "methods": {},
    "version": 1
  },
  "userdoc": {
    "kind": "user",
    "methods": {},
    "version": 1
  }
}