{
  "contractName": "Random",
  "abi": [
    {
      "inputs": [],
      "stateMutability": "nonpayable",
      "type": "constructor"
    },
    {
      "inputs": [
        {
          "internalType": "string",
          "name": "_randomString",
          "type": "string"
        }
      ],
      "name": "NewBaseSeed",
      "outputs": [
        {
          "internalType": "uint256",
          "name": "",
          "type": "uint256"
        }
      ],
      "stateMutability": "nonpayable",
      "type": "function"
    },
    {
      "inputs": [],
      "name": "rand",
      "outputs": [
        {
          "internalType": "uint256",
          "name": "",
          "type": "uint256"
        }
      ],
      "stateMutability": "view",
      "type": "function"
    },
    {
      "inputs": [
        {
          "internalType": "uint256",
          "name": "a",
          "type": "uint256"
        },
        {
          "internalType": "uint256",
          "name": "b",
          "type": "uint256"
        }
      ],
      "name": "randrange",
      "outputs": [
        {
          "internalType": "uint256",
          "name": "",
          "type": "uint256"
        }
      ],
      "stateMutability": "view",
      "type": "function"
    },
    {
      "inputs": [],
      "name": "blockTime",
      "outputs": [
        {
          "internalType": "uint256",
          "name": "",
          "type": "uint256"
        }
      ],
      "stateMutability": "view",
      "type": "function"
    },
    {
      "inputs": [],
      "name": "blockNum",
      "outputs": [
        {
          "internalType": "uint256",
          "name": "",
          "type": "uint256"
        }
      ],
      "stateMutability": "view",
      "type": "function"
    }
  ],
  "bytecode": "0x60c0604052600f60808190527f4e6f54655175656d65735061746f21000000000000000000000000000000000060a090815261003e9160009190610093565b5034801561004b57600080fd5b50610057426064610225565b6000604051602001610069919061012c565b60408051601f19818403018152919052805160209091012061008b91906101ec565b6001556102bd565b82805461009f90610269565b90600052602060002090601f0160209004810192826100c15760008555610107565b82601f106100da57805160ff1916838001178555610107565b82800160010185558215610107579182015b828111156101075782518255916020019190600101906100ec565b50610113929150610117565b5090565b5b808211156101135760008155600101610118565b815460009081906002810460018083168061014857607f831692505b6020808410821415610181577f4e487b710000000000000000000000000000000000000000000000000000000087526022600452602487fd5b81801561019557600181146101a6576101d2565b60ff198616895284890196506101d2565b6101af8a6101e0565b885b868110156101ca5781548b8201529085019083016101b1565b505084890196505b509498975050505050505050565b60009081526020902090565b600082610220577f4e487b710000000000000000000000000000000000000000000000000000000081526012600452602481fd5b500490565b6000816000190483118215151615610264577f4e487b710000000000000000000000000000000000000000000000000000000081526011600452602481fd5b500290565b60028104600182168061027d57607f821691505b602082108114156102b7577f4e487b7100000000000000000000000000000000000000000000000000000000600052602260045260246000fd5b50919050565b6104ae806102cc6000396000f3fe608060405234801561001057600080fd5b5060043610610073577c010000000000000000000000000000000000000000000000000000000060003504633b3dca76811461007857806348b15166146100965780638ae63d6d1461009e578063a8cd7b9d146100a6578063d0edbe6e146100b9575b600080fd5b6100806100cc565b60405161008d91906103e2565b60405180910390f35b610080610147565b61008061014b565b6100806100b43660046102ea565b61014f565b6100806100c7366004610249565b610175565b600080436001546040516020016100e391906103e2565b60408051601f19818403018152919052805160209091012061010591906103f7565b61010f44426103f7565b61011991906103f7565b60405160200161012991906103e2565b60408051601f19818403018152919052805160209091012091505090565b4290565b4390565b60008161015a6100cc565b6101649190610432565b61016e90846103f7565b9392505050565b60008043428460405160200161018b919061030b565b60408051601f1981840301815291905280516020909101206101ad919061041e565b454260006040516020016101c19190610344565b60408051601f1981840301815291905280516020909101206101e3919061041e565b6101ed44426103f7565b6101f791906103f7565b61020191906103f7565b61020b91906103f7565b61021591906103f7565b60405160200161022591906103e2565b60408051808303601f19018152919052805160209091012060018190559392505050565b6000602080838503121561025b578182fd5b823567ffffffffffffffff80821115610272578384fd5b818501915085601f830112610285578384fd5b8135818111156102975761029761045f565b604051601f8201601f19168101850183811182821017156102ba576102ba61045f565b60405281815283820185018810156102d0578586fd5b818585018683013790810190930193909352509392505050565b600080604083850312156102fc578081fd5b50508035926020909101359150565b60008251815b8181101561032b5760208186018101518583015201610311565b818111156103395782828501525b509190910192915050565b815460009081906002810460018083168061036057607f831692505b60208084108214156103835760e060020a634e487b710287526022600452602487fd5b81801561039757600181146103a8576103d4565b60ff198616895284890196506103d4565b6103b18a6103eb565b885b868110156103cc5781548b8201529085019083016103b3565b505084890196505b509498975050505050505050565b90815260200190565b60009081526020902090565b600082198211156104195760e060020a634e487b710281526011600452602481fd5b500190565b60008261042d5761042d610446565b500490565b60008261044157610441610446565b500690565b60e060020a634e487b7102600052601260045260246000fd5b60e060020a634e487b7102600052604160045260246000fdfea2646970667358221220125099162484410e7d88b37bfb5db36088751911358f08074cfead5c35f0106364736f6c63430008000033",
  "immutableReferences": {},
  "source": "// SPDX-License-Identifier: GPL-3.0\r\npragma solidity >=0.7.0 <0.9.0;\r\n\r\n/*\r\n*/\r\n\r\n\r\ncontract Random {\r\n    string originSeed = \"NoTeQuemesPato!\";\r\n    uint256  baseSeed;\r\n\r\n    constructor(){\r\n        baseSeed =(uint256(keccak256(abi.encodePacked(originSeed))))/(block.timestamp*100);\r\n    }\r\n\r\n    function NewBaseSeed(string memory _randomString)\r\n        public                \r\n        returns(uint256)\r\n    {\r\n    uint256 seed = uint256(keccak256(abi.encodePacked(\r\n        block.timestamp + block.difficulty +\r\n        ((uint256(keccak256(abi.encodePacked(originSeed)))) / (block.timestamp)) +\r\n        block.gaslimit + \r\n        ((uint256(keccak256(abi.encodePacked(_randomString)))) / (block.timestamp)) +\r\n        block.number\r\n    )));\r\n        baseSeed = seed;\r\n        return seed;\r\n    }\r\n   \r\n    function rand() public view returns(uint256) {\r\n        uint256 seed = uint256(keccak256(abi.encodePacked(block.timestamp + block.difficulty +         \r\n                              ((uint256(keccak256(abi.encodePacked(baseSeed)))) +\r\n                                block.number))));        \r\n        return seed;\r\n    }   \r\n\r\n    \r\n    /**\r\n     * @dev Generate random uint in range [a, b]\r\n     * @return uint\r\n     */\r\n    function randrange(uint a, uint b) public view returns(uint) {\r\n        return a + (rand() % b);\r\n    }\r\n    function blockTime()public view returns(uint){\r\n        return block.timestamp;\r\n    }\r\n    function blockNum()public view returns(uint){\r\n        return block.number;\r\n    }\r\n    \r\n}",
  "sourcePath": "C:\\Escritorio\\Estudio\\FaucetProyect\\contracts\\nfts\\Random.sol",
  "compiler": {
    "name": "solc",
    "version": "0.8.0+commit.c7dfd78e.Emscripten.clang"
  },
  "schemaVersion": "3.4.3",
  "updatedAt": "2022-01-11T21:55:00.780Z",
  "devdoc": {
    "kind": "dev",
    "methods": {
      "randrange(uint256,uint256)": {
        "details": "Generate random uint in range [a, b]",
        "returns": {
          "_0": "uint"
        }
      }
    },
    "version": 1
  },
  "userdoc": {
    "kind": "user",
    "methods": {},
    "version": 1
  }
}