{
  "contractName": "Silver",
  "abi": [
    {
      "inputs": [
        {
          "internalType": "address",
          "name": "masterChef",
          "type": "address"
        }
      ],
      "stateMutability": "nonpayable",
      "type": "constructor"
    },
    {
      "anonymous": false,
      "inputs": [
        {
          "indexed": true,
          "internalType": "address",
          "name": "owner",
          "type": "address"
        },
        {
          "indexed": true,
          "internalType": "address",
          "name": "spender",
          "type": "address"
        },
        {
          "indexed": false,
          "internalType": "uint256",
          "name": "value",
          "type": "uint256"
        }
      ],
      "name": "Approval",
      "type": "event"
    },
    {
      "anonymous": false,
      "inputs": [
        {
          "indexed": true,
          "internalType": "address",
          "name": "from",
          "type": "address"
        },
        {
          "indexed": true,
          "internalType": "address",
          "name": "to",
          "type": "address"
        },
        {
          "indexed": false,
          "internalType": "uint256",
          "name": "value",
          "type": "uint256"
        }
      ],
      "name": "Transfer",
      "type": "event"
    },
    {
      "inputs": [
        {
          "internalType": "address",
          "name": "owner",
          "type": "address"
        },
        {
          "internalType": "address",
          "name": "spender",
          "type": "address"
        }
      ],
      "name": "allowance",
      "outputs": [
        {
          "internalType": "uint256",
          "name": "",
          "type": "uint256"
        }
      ],
      "stateMutability": "view",
      "type": "function"
    },
    {
      "inputs": [
        {
          "internalType": "address",
          "name": "spender",
          "type": "address"
        },
        {
          "internalType": "uint256",
          "name": "amount",
          "type": "uint256"
        }
      ],
      "name": "approve",
      "outputs": [
        {
          "internalType": "bool",
          "name": "",
          "type": "bool"
        }
      ],
      "stateMutability": "nonpayable",
      "type": "function"
    },
    {
      "inputs": [
        {
          "internalType": "address",
          "name": "account",
          "type": "address"
        }
      ],
      "name": "balanceOf",
      "outputs": [
        {
          "internalType": "uint256",
          "name": "",
          "type": "uint256"
        }
      ],
      "stateMutability": "view",
      "type": "function"
    },
    {
      "inputs": [],
      "name": "decimals",
      "outputs": [
        {
          "internalType": "uint8",
          "name": "",
          "type": "uint8"
        }
      ],
      "stateMutability": "view",
      "type": "function"
    },
    {
      "inputs": [
        {
          "internalType": "address",
          "name": "spender",
          "type": "address"
        },
        {
          "internalType": "uint256",
          "name": "subtractedValue",
          "type": "uint256"
        }
      ],
      "name": "decreaseAllowance",
      "outputs": [
        {
          "internalType": "bool",
          "name": "",
          "type": "bool"
        }
      ],
      "stateMutability": "nonpayable",
      "type": "function"
    },
    {
      "inputs": [
        {
          "internalType": "address",
          "name": "spender",
          "type": "address"
        },
        {
          "internalType": "uint256",
          "name": "addedValue",
          "type": "uint256"
        }
      ],
      "name": "increaseAllowance",
      "outputs": [
        {
          "internalType": "bool",
          "name": "",
          "type": "bool"
        }
      ],
      "stateMutability": "nonpayable",
      "type": "function"
    },
    {
      "inputs": [],
      "name": "minter",
      "outputs": [
        {
          "internalType": "address",
          "name": "",
          "type": "address"
        }
      ],
      "stateMutability": "view",
      "type": "function"
    },
    {
      "inputs": [],
      "name": "name",
      "outputs": [
        {
          "internalType": "string",
          "name": "",
          "type": "string"
        }
      ],
      "stateMutability": "view",
      "type": "function"
    },
    {
      "inputs": [],
      "name": "owner",
      "outputs": [
        {
          "internalType": "address",
          "name": "",
          "type": "address"
        }
      ],
      "stateMutability": "view",
      "type": "function"
    },
    {
      "inputs": [],
      "name": "supply",
      "outputs": [
        {
          "internalType": "uint256",
          "name": "",
          "type": "uint256"
        }
      ],
      "stateMutability": "view",
      "type": "function"
    },
    {
      "inputs": [],
      "name": "symbol",
      "outputs": [
        {
          "internalType": "string",
          "name": "",
          "type": "string"
        }
      ],
      "stateMutability": "view",
      "type": "function"
    },
    {
      "inputs": [],
      "name": "totalSupply",
      "outputs": [
        {
          "internalType": "uint256",
          "name": "",
          "type": "uint256"
        }
      ],
      "stateMutability": "view",
      "type": "function"
    },
    {
      "inputs": [
        {
          "internalType": "address",
          "name": "recipient",
          "type": "address"
        },
        {
          "internalType": "uint256",
          "name": "amount",
          "type": "uint256"
        }
      ],
      "name": "transfer",
      "outputs": [
        {
          "internalType": "bool",
          "name": "",
          "type": "bool"
        }
      ],
      "stateMutability": "nonpayable",
      "type": "function"
    },
    {
      "inputs": [
        {
          "internalType": "address",
          "name": "sender",
          "type": "address"
        },
        {
          "internalType": "address",
          "name": "recipient",
          "type": "address"
        },
        {
          "internalType": "uint256",
          "name": "amount",
          "type": "uint256"
        }
      ],
      "name": "transferFrom",
      "outputs": [
        {
          "internalType": "bool",
          "name": "",
          "type": "bool"
        }
      ],
      "stateMutability": "nonpayable",
      "type": "function"
    },
    {
      "inputs": [
        {
          "internalType": "address",
          "name": "to",
          "type": "address"
        },
        {
          "internalType": "uint256",
          "name": "amount",
          "type": "uint256"
        }
      ],
      "name": "mint",
      "outputs": [],
      "stateMutability": "nonpayable",
      "type": "function"
    },
    {
      "inputs": [
        {
          "internalType": "address",
          "name": "_newMinter",
          "type": "address"
        }
      ],
      "name": "setMinter",
      "outputs": [],
      "stateMutability": "nonpayable",
      "type": "function"
    }
  ],
  "bytecode": "0x608060405260006007553480156200001657600080fd5b5060405162001024380380620010248339810160408190526200003991620001ad565b6040518060400160405280600681526020017f53696c76657200000000000000000000000000000000000000000000000000008152506040518060400160405280600381526020017f50565000000000000000000000000000000000000000000000000000000000008152508160039080519060200190620000bd92919062000107565b508051620000d390600490602084019062000107565b505060058054600160a060020a03909316600160a060020a0319938416811790915560068054909316179091555062000233565b8280546200011590620001dd565b90600052602060002090601f01602090048101928262000139576000855562000184565b82601f106200015457805160ff191683800117855562000184565b8280016001018555821562000184579182015b828111156200018457825182559160200191906001019062000167565b506200019292915062000196565b5090565b5b8082111562000192576000815560010162000197565b600060208284031215620001bf578081fd5b8151600160a060020a0381168114620001d6578182fd5b9392505050565b600281046001821680620001f257607f821691505b602082108114156200022d577f4e487b7100000000000000000000000000000000000000000000000000000000600052602260045260246000fd5b50919050565b610de180620002436000396000f3fe608060405234801561001057600080fd5b506004361061011d576000357c01000000000000000000000000000000000000000000000000000000009004806340c10f19116100b4578063a457c2d711610083578063a457c2d714610205578063a9059cbb14610218578063dd62ed3e1461022b578063fca3b5aa1461023e5761011d565b806340c10f19146101cd57806370a08231146101e25780638da5cb5b146101f557806395d89b41146101fd5761011d565b806318160ddd116100f057806318160ddd1461018a57806323b872dd14610192578063313ce567146101a557806339509351146101ba5761011d565b8063047fc9aa1461012257806306fdde03146101405780630754617214610155578063095ea7b31461016a575b600080fd5b61012a610251565b6040516101379190610d03565b60405180910390f35b610148610257565b604051610137919061095a565b61015d6102e9565b604051610137919061093b565b61017d610178366004610912565b6102f8565b604051610137919061094f565b61012a610315565b61017d6101a03660046108d7565b61031b565b6101ad6103b7565b6040516101379190610d0c565b61017d6101c8366004610912565b6103bc565b6101e06101db366004610912565b610410565b005b61012a6101f0366004610884565b61045c565b61015d61047b565b61014861048a565b61017d610213366004610912565b610499565b61017d610226366004610912565b610515565b61012a6102393660046108a5565b610529565b6101e061024c366004610884565b610554565b60075481565b60606003805461026690610d57565b80601f016020809104026020016040519081016040528092919081815260200182805461029290610d57565b80156102df5780601f106102b4576101008083540402835291602001916102df565b820191906000526020600020905b8154815290600101906020018083116102c257829003601f168201915b5050505050905090565b600654600160a060020a031681565b600061030c6103056105b0565b84846105b4565b50600192915050565b60025490565b600061032884848461066e565b600160a060020a0384166000908152600160205260408120816103496105b0565b600160a060020a0316600160a060020a03168152602001908152602001600020549050828110156103985760405160e560020a62461bcd02815260040161038f90610b58565b60405180910390fd5b6103ac856103a46105b0565b8584036105b4565b506001949350505050565b601290565b600061030c6103c96105b0565b8484600160006103d76105b0565b600160a060020a03908116825260208083019390935260409182016000908120918b168152925290205461040b9190610d1a565b6105b4565b600654600160a060020a0316331461043d5760405160e560020a62461bcd02815260040161038f90610ac4565b8060075461044b9190610d1a565b60075561045882826107a1565b5050565b600160a060020a0381166000908152602081905260409020545b919050565b600554600160a060020a031681565b60606004805461026690610d57565b600080600160006104a86105b0565b600160a060020a03908116825260208083019390935260409182016000908120918816815292529020549050828110156104f75760405160e560020a62461bcd02815260040161038f90610c6f565b61050b6105026105b0565b858584036105b4565b5060019392505050565b600061030c6105226105b0565b848461066e565b600160a060020a03918216600090815260016020908152604080832093909416825291909152205490565b600554600160a060020a031633146105815760405160e560020a62461bcd02815260040161038f90610afb565b6006805473ffffffffffffffffffffffffffffffffffffffff1916600160a060020a0392909216919091179055565b3390565b600160a060020a0383166105dd5760405160e560020a62461bcd02815260040161038f90610c12565b600160a060020a0382166106065760405160e560020a62461bcd02815260040161038f90610a0a565b600160a060020a0380841660008181526001602090815260408083209487168084529490915290819020849055517f8c5be1e5ebec7d5bd14f71427d1e84f3dd0314c0f7b2291e5b200ac8c7c3b92590610661908590610d03565b60405180910390a3505050565b600160a060020a0383166106975760405160e560020a62461bcd02815260040161038f90610bb5565b600160a060020a0382166106c05760405160e560020a62461bcd02815260040161038f906109ad565b6106cb838383610868565b600160a060020a038316600090815260208190526040902054818110156107075760405160e560020a62461bcd02815260040161038f90610a67565b600160a060020a0380851660009081526020819052604080822085850390559185168152908120805484929061073e908490610d1a565b9250508190555082600160a060020a031684600160a060020a03167fddf252ad1be2c89b69c2b068fc378daa952ba7f163c4a11628f55a4df523b3ef846040516107889190610d03565b60405180910390a361079b848484610868565b50505050565b600160a060020a0382166107ca5760405160e560020a62461bcd02815260040161038f90610ccc565b6107d660008383610868565b80600260008282546107e89190610d1a565b9091555050600160a060020a03821660009081526020819052604081208054839290610815908490610d1a565b9091555050604051600160a060020a038316906000907fddf252ad1be2c89b69c2b068fc378daa952ba7f163c4a11628f55a4df523b3ef90610858908590610d03565b60405180910390a3610458600083835b505050565b8035600160a060020a038116811461047657600080fd5b600060208284031215610895578081fd5b61089e8261086d565b9392505050565b600080604083850312156108b7578081fd5b6108c08361086d565b91506108ce6020840161086d565b90509250929050565b6000806000606084860312156108eb578081fd5b6108f48461086d565b92506109026020850161086d565b9150604084013590509250925092565b60008060408385031215610924578182fd5b61092d8361086d565b946020939093013593505050565b600160a060020a0391909116815260200190565b901515815260200190565b6000602080835283518082850152825b818110156109865785810183015185820160400152820161096a565b818111156109975783604083870101525b50601f01601f1916929092016040019392505050565b60208082526023908201527f45524332303a207472616e7366657220746f20746865207a65726f206164647260408201527f6573730000000000000000000000000000000000000000000000000000000000606082015260800190565b60208082526022908201527f45524332303a20617070726f766520746f20746865207a65726f20616464726560408201527f7373000000000000000000000000000000000000000000000000000000000000606082015260800190565b60208082526026908201527f45524332303a207472616e7366657220616d6f756e742065786365656473206260408201527f616c616e63650000000000000000000000000000000000000000000000000000606082015260800190565b6020808252600f908201527f4d696e743a206f6e6c794f576e65720000000000000000000000000000000000604082015260600190565b60208082526029908201527f4e6f207469656e6573207065726d69736f7320706172612063616d626961722060408201527f616c206d696e7465720000000000000000000000000000000000000000000000606082015260800190565b60208082526028908201527f45524332303a207472616e7366657220616d6f756e742065786365656473206160408201527f6c6c6f77616e6365000000000000000000000000000000000000000000000000606082015260800190565b60208082526025908201527f45524332303a207472616e736665722066726f6d20746865207a65726f20616460408201527f6472657373000000000000000000000000000000000000000000000000000000606082015260800190565b60208082526024908201527f45524332303a20617070726f76652066726f6d20746865207a65726f2061646460408201527f7265737300000000000000000000000000000000000000000000000000000000606082015260800190565b60208082526025908201527f45524332303a2064656372656173656420616c6c6f77616e63652062656c6f7760408201527f207a65726f000000000000000000000000000000000000000000000000000000606082015260800190565b6020808252601f908201527f45524332303a206d696e7420746f20746865207a65726f206164647265737300604082015260600190565b90815260200190565b60ff91909116815260200190565b60008219821115610d52577f4e487b710000000000000000000000000000000000000000000000000000000081526011600452602481fd5b500190565b600281046001821680610d6b57607f821691505b60208210811415610da5577f4e487b7100000000000000000000000000000000000000000000000000000000600052602260045260246000fd5b5091905056fea2646970667358221220f72f4eae28e13d36d8d36ecde03bbcaf4d27a2ba2f2b904489b500e3771f235364736f6c63430008000033",
  "immutableReferences": {},
  "source": "// SPDX-License-Identifier: MIT\r\npragma solidity >=0.4.22 <0.9.0;\r\n\r\nimport \"@openzeppelin/contracts/token/ERC20/ERC20.sol\";\r\n\r\n//import \"../contracts/TransactionFee.sol\";\r\n\r\ncontract Silver is ERC20 {\r\n\r\n  \r\n  address public owner;\r\n  address public minter;\r\n  //uint public maxSupply = 21000000 ether;\r\n  uint public supply = 0;\r\n  \r\n\r\n  /**\r\n   * @dev Grants `DEFAULT_ADMIN_ROLE`, `MINTER_ROLE` and `PAUSER_ROLE` to the\r\n   * account that deploys the contract and mint 1million tokens to master chef address\r\n   *\r\n   * See {ERC20-constructor}.\r\n   *///\r\n  constructor(address masterChef) ERC20('Silver', 'PVP') {\r\n      owner = masterChef;\r\n      minter = masterChef;\r\n  }\r\n\r\n  /**\r\n   * @dev Creates `amount` new tokens for `to`.\r\n   *\r\n   * See {ERC20-_mint}.\r\n   *\r\n   * Requirements:\r\n   *\r\n   * - the caller must have the `MINTER_ROLE`.\r\n   */\r\n  function mint(address to, uint256 amount) public virtual {    \r\n    require(msg.sender == minter, \"Mint: onlyOWner\");\r\n    //require((supply + amount) <= maxSupply, \"Max supply alcanzado\");\r\n    supply = supply + amount;\r\n    _mint(to, amount);\r\n  }\r\n\r\n  function setMinter(address _newMinter) public {\r\n    require(msg.sender == owner, \"No tienes permisos para cambiar al minter\");\r\n    minter = _newMinter;\r\n  }\r\n  \r\n\r\n}",
  "sourcePath": "C:\\Escritorio\\Estudio\\FaucetProyect\\contracts\\token\\silver.sol",
  "compiler": {
    "name": "solc",
    "version": "0.8.0+commit.c7dfd78e.Emscripten.clang"
  },
  "schemaVersion": "3.4.3",
  "updatedAt": "2022-01-16T17:30:26.170Z",
  "devdoc": {
    "kind": "dev",
    "methods": {
      "allowance(address,address)": {
        "details": "See {IERC20-allowance}."
      },
      "approve(address,uint256)": {
        "details": "See {IERC20-approve}. Requirements: - `spender` cannot be the zero address."
      },
      "balanceOf(address)": {
        "details": "See {IERC20-balanceOf}."
      },
      "constructor": {
        "details": "Grants `DEFAULT_ADMIN_ROLE`, `MINTER_ROLE` and `PAUSER_ROLE` to the account that deploys the contract and mint 1million tokens to master chef address See {ERC20-constructor}."
      },
      "decimals()": {
        "details": "Returns the number of decimals used to get its user representation. For example, if `decimals` equals `2`, a balance of `505` tokens should be displayed to a user as `5.05` (`505 / 10 ** 2`). Tokens usually opt for a value of 18, imitating the relationship between Ether and Wei. This is the value {ERC20} uses, unless this function is overridden; NOTE: This information is only used for _display_ purposes: it in no way affects any of the arithmetic of the contract, including {IERC20-balanceOf} and {IERC20-transfer}."
      },
      "decreaseAllowance(address,uint256)": {
        "details": "Atomically decreases the allowance granted to `spender` by the caller. This is an alternative to {approve} that can be used as a mitigation for problems described in {IERC20-approve}. Emits an {Approval} event indicating the updated allowance. Requirements: - `spender` cannot be the zero address. - `spender` must have allowance for the caller of at least `subtractedValue`."
      },
      "increaseAllowance(address,uint256)": {
        "details": "Atomically increases the allowance granted to `spender` by the caller. This is an alternative to {approve} that can be used as a mitigation for problems described in {IERC20-approve}. Emits an {Approval} event indicating the updated allowance. Requirements: - `spender` cannot be the zero address."
      },
      "mint(address,uint256)": {
        "details": "Creates `amount` new tokens for `to`. See {ERC20-_mint}. Requirements: - the caller must have the `MINTER_ROLE`."
      },
      "name()": {
        "details": "Returns the name of the token."
      },
      "symbol()": {
        "details": "Returns the symbol of the token, usually a shorter version of the name."
      },
      "totalSupply()": {
        "details": "See {IERC20-totalSupply}."
      },
      "transfer(address,uint256)": {
        "details": "See {IERC20-transfer}. Requirements: - `recipient` cannot be the zero address. - the caller must have a balance of at least `amount`."
      },
      "transferFrom(address,address,uint256)": {
        "details": "See {IERC20-transferFrom}. Emits an {Approval} event indicating the updated allowance. This is not required by the EIP. See the note at the beginning of {ERC20}. Requirements: - `sender` and `recipient` cannot be the zero address. - `sender` must have a balance of at least `amount`. - the caller must have allowance for ``sender``'s tokens of at least `amount`."
      }
    },
    "version": 1
  },
  "userdoc": {
    "kind": "user",
    "methods": {},
    "version": 1
  }
}